:100000000C94F2000C941A010C941A010C941A012D
:100010000C941A010C941A010C9488240C941A0163
:100020000C941A010C941A010C941A010C94EB17FD
:100030000C941A010C941A010C941A010C941A01D4
:100040000C942A160C941A010C949A160C9474169B
:100050000C941A010C941A010C941A010C941A01B4
:100060000C94CC160C941A01424F4F543A20546110
:10007000736B73206372656174656400424F4F5403
:100080003A20496E69742044485400424F4F543A14
:1000900020496E6974204C434400424F4F543A202B
:1000A000496E697420535049202B20524649440020
:1000B000424F4F543A20536B697020736572766FCC
:1000C0002073746172747570206D6F76656D656EE6
:1000D0007400424F4F543A20536D617274486F6DF3
:1000E00065204672656552544F5320737461727473
:1000F000696E672E2E2E00496E6E657220646F6FDA
:10010000723A20436C6F73696E6700496E6E657258
:1001100020646F6F723A204F70656E696E6700528F
:100120004649443A204163636573732064656E6990
:10013000656400524649443A204163636573732005
:100140006772616E7465640043617264205549444E
:100150003A2000205365633A0020466972653A00F0
:10016000204C617365723A00205049523A00205386
:100170006D6F6B653A0020496E3A00444542554721
:10018000207C204F75743A000000000024002700F6
:100190002A0000000000250028002B0000000008B5
:1001A000000201000003040700000000000000003E
:1001B00000000000230026002900040404040404B5
:1001C0000404020202020202030303030303010206
:1001D00004081020408001020408102001020408D5
:1001E0001020C21811241FBECFEFD8E0DEBFCDBF54
:1001F00012E0A0E0B1E0E0EFF5E502C005900D925D
:10020000A833B107D9F724E0A8E3B2E001C01D92FA
:10021000AA39B207E1F710E0C2EFD0E004C021979D
:10022000FE010E94EB27C13FD107C9F70E94401988
:100230000C94F62A0C9400008CBD9DBD0895CF92BD
:10024000DF92EF92FF92CF93DF93B0916404A0E02E
:100250008111AB2F8091650490E0880F991FAC014C
:1002600040555E4FC0906A04D0906B04E0906C04DF
:10027000F0906D0430E020E0FA01C591D491E8815E
:10028000B90190E080E0EB23EA130AC02F5F3F4FF3
:100290006C157D058E059F0578F36FEF7FEFCB0121
:1002A000DF91CF91FF90EF90DF90CF900895833052
:1002B00081F028F4813099F08230A9F008958730D8
:1002C000A9F08830C9F08430B1F4809180008F7D2E
:1002D00003C0809180008F7780938000089584B55B
:1002E0008F7784BD089584B58F7DFBCF8091B0005A
:1002F0008F778093B00008958091B0008F7DF9CF03
:10030000CF93DF93282F30E0F901E456FE4F84911C
:10031000F901E253FE4FD491F901E654FE4FC49126
:10032000CC23A1F081110E945701EC2FF0E0EE0FD9
:10033000FF1FE055FE4FA591B491EC91ED2381E0B4
:1003400090E009F480E0DF91CF91089580E090E0A3
:10035000FACF1F93CF93DF93282F30E0F901E456B3
:10036000FE4F8491F901E253FE4FD491F901E65416
:10037000FE4FC491CC23A9F0162F81110E94570182
:10038000EC2FF0E0EE0FFF1FEE56FE4FA591B4915B
:100390008FB7F894EC91111108C0D095DE23DC934F
:1003A0008FBFDF91CF911F910895DE2BF8CFCF93B0
:1003B000DF9390E0FC01E253FE4F249186549E4F60
:1003C000FC0184918823C9F090E0880F991FFC01FB
:1003D000E857FE4FA591B491FC01EE56FE4FC59132
:1003E000D49161110DC09FB7F8948C912095822310
:1003F0008C938881282328839FBFDF91CF91089514
:10040000623051F49FB7F8943C91822F80958323FA
:100410008C93E8812E2BEFCF8FB7F894EC912E2B95
:100420002C938FBFEACF8E50806480937C008091A4
:100430007A00806480937A0080917A0086FDFCCFF8
:10044000809178009091790008953FB7F894809159
:10045000550390915603A0915703B091580326B5C8
:10046000A89B05C02F3F19F00196A11DB11D3FBFEC
:10047000BA2FA92F982F8827BC01CD01620F711DBB
:10048000811D911D42E0660F771F881F991F4A95B5
:10049000D1F708958F929F92AF92BF92CF92DF9241
:1004A000EF92FF926B017C010E9425024B015C01DF
:1004B000C114D104E104F104B9F00E9425026819C5
:1004C00079098A099B09683E73408105910580F38B
:1004D00021E0C21AD108E108F10888EE880E83E015
:1004E000981EA11CB11CE4CFFF90EF90DF90CF903D
:1004F000BF90AF909F908F9008952FB7F894609120
:1005000051037091520380915303909154032FBF74
:100510000895CF92DF92EF92FF920F931F93CF93A4
:10052000DF93CDB7DEB7C054D1400FB6F894DEBF2D
:100530000FBECDBF0E947D0200916604109167043A
:1005400020916804309169046B017C01C01AD10AC2
:10055000E20AF30A97018601003D174021053105A3
:1005600090F480916E04C05CDE4F0FB6F894DEBF4D
:100570000FBECDBFDF91CF911F910F91FF90EF90F4
:10058000DF90CF9008956093660470936704809322
:1005900068049093690410926104109260041092B0
:1005A0005F0410925E0410925D0462E08091620428
:1005B0000E94D70161E070E080E090E00E944A0272
:1005C00061E0809162040E94D70160E08091620442
:1005D0000E94A901809163048551823020F58BE24D
:1005E00091E10197F1F762E0809162040E94D701E6
:1005F00080916F0490E08230910538F0880F991F48
:10060000880F991F05970197F1F7F89480E00E94F1
:100610001F016F3F7F4F8F4F9F4F61F410926E0409
:10062000789480E0A0CF64E170E080E090E00E94E8
:100630004A02D9CF81E00E941F016F3F7F4F8F4F49
:100640009F4F61F38E010F5F1F4F6E012FEBC21A98
:100650002EEFD20A780180E00E941F01F70160832B
:1006600071838283938381E00E941F01F701648379
:10067000758386839783F8E0EF0EF11CEC14FD047C
:1006800051F7789430E020E0F801C080D180E2801A
:10069000F3804481558166817781FFEFCF16DF06B5
:1006A000EF06FF0631F04F3F8FEF580768077807D6
:1006B00019F410926E04B5CFF90183E0F595E79532
:1006C0008A95E1F7E35AFB4F8081880FC416D5065F
:1006D000E606F70610F180832F5F3F4F085F1F4F3C
:1006E0002832310589F64091610420915D048091A2
:1006F0005E04280F3327331F80915F04280F311DBC
:1007000080916004820F932F911D99274817190635
:1007100081F681E080936E0426CF8160DCCFAF92BA
:10072000BF92CF92DF92EF92FF920F931F93CF93DE
:10073000DF936C017B018B01040F151FEB015E0140
:10074000AE18BF08C017D10759F06991D601ED91D5
:10075000FC910190F081E02DC6010995892B79F774
:10076000C501DF91CF911F910F91FF90EF90DF9026
:10077000CF90BF90AF900895FC01538D448D252FED
:1007800030E0842F90E0821B930B541710F0CF962B
:10079000089501970895FC01918D828D981761F05D
:1007A000A28DAE0FBF2FB11D5D968C91928D9F5F74
:1007B0009F73928F90E008958FEF9FEF0895FC0153
:1007C000918D828D981731F0828DE80FF11D858D06
:1007D00090E008958FEF9FEF0895FC01918D228D99
:1007E000892F90E0805C9F4F821B91098F7399271E
:1007F000089584EB93E00E94ED0321E0892B09F436
:1008000020E0822F08950E94F90381110C940000CA
:10081000089580E090E0892B11F00C940304089572
:10082000FC01A48DA80FB92FB11DA35ABF4F2C9165
:10083000848D90E001968F739927848FA689B7895C
:100840002C93A089B1898C91837080648C93938D53
:10085000848D981306C00288F389E02D80818F7DF6
:1008600080830895EF92FF920F931F93CF93DF93AE
:10087000EC0181E0888F9B8D8C8D98131AC0E889DC
:10088000F989808185FF15C09FB7F894EE89FF89AB
:100890006083E889F98980818370806480839FBF49
:1008A00081E090E0DF91CF911F910F91FF90EF9049
:1008B0000895F62E0B8D10E00F5F1F4F0F73112759
:1008C000E02E8C8D8E110CC00FB607FCFACFE88994
:1008D000F989808185FFF5CFCE010E941004F1CF08
:1008E000EB8DEC0FFD2FF11DE35AFF4FF0829FB708
:1008F000F8940B8FEA89FB8980818062CFCF682FC3
:1009000084EB93E00C9432040F931F93CF93DF9307
:100910008C01D0E0C0E0F801EC0FFD1F649166236C
:1009200041F084EB93E00E943204892B11F0219670
:10093000F2CFCE01DF91CF911F910F910895CF9308
:10094000DF93EC01888D8823B9F0AA89BB89E889F7
:10095000F9898C9185FD03C0808186FD0DC00FB69D
:1009600007FCF7CF8C9185FFF2CF808185FFEDCF1B
:10097000CE010E941004E9CFDF91CF910895089530
:100980002091BB02260F3327331F21323105ECF4AF
:1009900020910603FC0190E080E0243069F082E0C1
:1009A0000895A091BB022191AC0147565D4FA40F61
:1009B000B52FB11D2C930196861798F38091BB0239
:1009C000680F6093BB0280E0089581E00895109263
:1009D000060381E0809305031092E00261E082E16A
:1009E0000E94A90161E083E10E94A901E9EBF0E026
:1009F00080818E7F808380818D7F808388E4809357
:100A0000B80085E48093BC000895CF93DF9391E014
:100A1000909398028823B9F0C091B800D091BA00A1
:100A20008091BC008A7B8093BC0060E082E10E94E0
:100A3000A90160E083E10E94A9010E94E704D0932C
:100A4000BA00C093B800DF91CF910895089508953A
:100A50000895E091970280919602E81730F4F0E053
:100A6000EA58FD4F808190E008958FEF9FEF089541
:100A700090919702809196022FEF3FEF981748F4DC
:100A8000E92FF0E0EA58FD4F208130E09F5F90931E
:100A90009702C90108958091960290919702891B4F
:100AA000990B0895CF92DF92EF92FF920F931F93CD
:100AB000CF93DF937C01CB018A0120910C03222389
:100AC00089F0EB016B01C40ED51ECC15DD0569F074
:100AD0006991D701ED91FC910190F081E02DC70162
:100AE0000995F3CF642F0E94C004C801DF91CF9114
:100AF0001F910F91FF90EF90DF90CF900895CF93CB
:100B0000DF931F92CDB7DEB7698320910C032223B8
:100B1000F9F020912F03203258F021E030E0FC0161
:100B20003383228390E080E00F90DF91CF9108958E
:100B300080910D03E82FF0E0E25FFC4F99819083F4
:100B40008F5F80930D0380932F0381E090E0ECCFC3
:100B500061E0CE0101960E94C004F7CFCF92DF92F0
:100B6000EF92FF920F931F93CF93DF93FC01C48109
:100B700021E020930C03C0932E0310920D031092DA
:100B80002F038485682B81E594E00E947F05D09136
:100B90002F03D13208F092C00E9425026B017C0124
:100BA00080910603811165C082E08093060381E095
:100BB000809305038FEF8093040310920303D09377
:100BC0000203AEE0B3E0E2EEF2E080E0D81385C0CD
:100BD0001092E1028091E102CC0FC82BC093E10298
:100BE0008091E002813009F07CC01092E0020E9406
:100BF00025026B017C018091E1028093BB00809112
:100C0000080390910903A0910A03B0910B03892B6B
:100C10008A2B8B2B99F00E942502009108031091DA
:100C2000090320910A0330910B036C197D098E0989
:100C30009F090617170728073907E0F18091BC00C4
:100C400083FDD9CF85EC8093BC000E9425026B0107
:100C50007C0180910603823009F445C08091040331
:100C60008F3F61F180910403803241F18091040350
:100C700025C08091080390910903A0910A03B091C7
:100C80000B03892B8A2B8B2B09F48ACF0E94250218
:100C9000009108031091090320910A0330910B037E
:100CA0006C197D098E099F09061717072807390750
:100CB00008F076CF809107030E94050510920D037E
:100CC00010922F0310920C03DF91CF911F910F917F
:100CD000FF90EF90DF90CF9008959D9191938F5F5B
:100CE00075CF85EEB0CF8091080390910903A09154
:100CF0000A03B0910B03892B8A2B8B2B09F4A9CF04
:100D00000E942502009108031091090320910A0313
:100D100030910B036C197D098E099F09061717077F
:100D20002807390708F095CFC5CF90E080E00895F7
:100D30008F929F92AF92BF92FF920F931F93CF9388
:100D4000DF93FC01F0808BE08F1508F44AC08281AC
:100D500008E512E0081B110987FD1395000F111F0C
:100D6000000F111F8181C8E8D0E0C81BD10987FDA1
:100D7000D395CC0FDD1FCC0FDD1F4E010D2E000CC7
:100D8000AA08BB089801012E000C440B550B28192A
:100D900039094A095B09DB010E94DA2524EB30E0BE
:100DA00040E050E00E94B025820E931EA41EB51EA6
:100DB0008C169D062CF0E801801691060CF4E401D7
:100DC0002297CC0FDD1F2FB7F8948F2D90E0FC01F8
:100DD000EE0FFF1FE80FF91FEE5AFD4FD283C183BC
:100DE0002FBFDF91CF911F910F91FF90BF90AF90D8
:100DF0009F908F9008951F93CF93DF93EC01162F50
:100E000088818C3008F04EC061E0812F0E94D701AC
:100E10008881282F30E0F901EE0FFF1FE20FF31F4A
:100E2000EE5AFD4F1F736081607C612B60831982D5
:100E30001A822CE0622F0E94DF27829FB0011124CA
:100E400030E020E0AB01420F531FFA01EE0FFF1F0D
:100E5000E40FF51FEE5AFD4F908196FD16C02F5FEF
:100E60003F4F2C30310571F781110FC01092800077
:100E700082E0809381001092850010928400B19AE4
:100E800080916F00826080936F00E8818E2F90E0E8
:100E9000FC01EE0FFF1FE80FF91FEE5AFD4F808196
:100EA000806480838881DF91CF911F910895BC0178
:100EB0006E5F7F4FDC01ED91FC910190F081E02DA0
:100EC00040E0099591E0811190E0892F08950895FF
:100ED0008EBD00000DB407FEFDCF8EB50895DF92E4
:100EE000EF92FF920F931F93CF93DF937C01062F16
:100EF000D42E152F80E590E00E941C0160E0F701E0
:100F000086850E94A90182E10E946807CD2DD12F1C
:100F10000C0F1D2F111DC017D10721F089910E94C0
:100F20006807F9CF61E0F7018685DF91CF911F91C6
:100F30000F91FF90EF90DF900C94A9011F93CF9336
:100F4000DF93EC01162F80E590E00E941C0160E029
:100F50008E850E94A901812F80680E94680780E029
:100F60000E946807182F61E08E850E94A901812FD9
:100F7000DF91CF911F9108950F931F93CF93DF932C
:100F8000EC01062F142F80E590E00E941C0160E028
:100F90008E850E94A901802F0E946807812F0E94E0
:100FA000680761E08E85DF91CF911F910F910C94BE
:100FB000A901CF92DF92EF92FF920F931F93CF93ED
:100FC000DF93EC016B01F42E890140E062E00E94A6
:100FD000BC0744E06AE0CE010E94BC0740E864E13F
:100FE000CE010E94BC07A6016F2DCE010E946F07A3
:100FF00043E062E0CE010E94BC070E947D026B01CB
:101000007C0129E5C20ED11CE11CF11C6AE0CE0175
:101010000E949E0782FF1BC040E062E0CE010E945A
:10102000BC0764E4CE010E949E07F801808362E45D
:10103000CE010E949E07F801818380E0DF91CF916D
:101040001F910F91FF90EF90DF90CF9008950E9435
:101050007D026C157D058E059F05C0F283E0EECF05
:101060002F923F924F925F926F927F928F929F92B8
:10107000AF92CF92DF92EF92FF920F931F93CF9395
:10108000DF9300D0CDB7DEB74C012B01D42E390150
:1010900080E0E114F10411F0F70180813C2C3294DE
:1010A00090EF3922380E40E062E0C4010E94BC0794
:1010B0004FE768E0C4010E94BC0740E864E1C40156
:1010C0000E94BC07A2016D2DC4010E946F07432D31
:1010D0006AE1C4010E94BC074CE062E0C4010E94C6
:1010E000BC076AE1C4010E949E07482F40686AE17C
:1010F000C4010E94BC070E947D021B012C01F4E286
:101100002F0E311C411C511C68E0C4010E949E0737
:10111000982F907309F0B7C080FF15C083E00F903F
:101120000F90DF91CF911F910F91FF90EF90DF9083
:10113000CF90AF909F908F907F906F905F904F90E7
:101140003F902F9008950E947D02621573058405DB
:101150009505D0F2E3CF6114710409F469C001155B
:10116000110509F465C064E1C4010E949E07382E90
:10117000F8018081831508F480C030823320E1F1CA
:1011800080E590E00E941C0160E0F40186850E94E9
:10119000A9013A9482E90E946807CC20B1F08FEF50
:1011A00090E09C0102C0220F331FCA94E2F769014C
:1011B00082E90E9468079C2D9095F301208192237B
:1011C0008C21982B9083CC24C39423014C0C511C6C
:1011D000C31440F482E90E946807F20181932F0151
:1011E000C394F6CF80E00E946807F201808361E03B
:1011F000F40186850E94A90168E1C4010E949E074E
:101200008770E114F10411F0F701808323FC37C0EB
:1012100061147104B1F10115110599F1AA2089F148
:10122000F8014081413031F4843029F58FEF77CFD8
:1012300080E0ECCF4230F8F081111DC042509E0199
:101240002F5F3F4FB301C4010E94D907811167CFBF
:10125000F8019081690E711CF30132972081998108
:10126000291309C0F1E06F1A7108F30120819A81F6
:10127000291709F454CF87E052CF84E050CF82E0A1
:101280004ECF80E04CCF6CE0C4010E949E07282E18
:10129000837109F460CF81E042CF0F931F93CF9306
:1012A000DF938C01D62FC42F0E949E07C0954C2F30
:1012B00048236D2FC801DF91CF911F910F910C949E
:1012C000BC078F929F92AF92CF92EF92FF920F93B3
:1012D0001F93CF93DF9300D000D01F92CDB7DEB71E
:1012E0004C0182E08D8340E064E2C4010E94BC07AF
:1012F00040E066E2C4010E94BC0746E268E4C40123
:101300000E94BC0786E28B838D818230B0F140E879
:101310006CE1C4010E944D0987E08C83A12CC12C93
:10132000CE0104967C018E010B5F1F4F9E012F5F43
:101330003F4F41E0BE016D5F7F4FC4010E94300806
:10134000982F811117C08D818230B9F48C81811161
:1013500014C081E00F900F900F900F900F90DF91CD
:10136000CF911F910F91FF90EF90CF90AF909F90F2
:101370008F90089581E0923069F380E0EBCF2F9257
:101380003F924F925F926F927F928F929F92AF9215
:10139000BF92CF92DF92EF92FF920F931F93CF9362
:1013A000DF93CDB7DEB72D970FB6F894DEBF0FBE33
:1013B000CDBF16E0413508F045C1342E4B013C014C
:1013C00040E86CE10E944D0983E98983332029F0CC
:1013D00081E0F4019081953008F480E02224239488
:1013E000B12C9B2D990F990F990FD32CD91AD7FC9B
:1013F000D12C32E0882319F098E89B8333E021E078
:101400009D2D977009F420E09D2D959595959595C6
:10141000290FC9F094E0811193E0291708F4922F65
:10142000EB2DF0E03196E80DF91D232F4191A1E05D
:10143000B0E0AC0FBD1FA20FB11D4C932F5F422F28
:10144000431B491798F3882311F0F8E0DF0E8FE172
:101450008D150CF082C090E79A838B819C8189273F
:101460009D8189279E8189278F839E01285F3F4F19
:1014700047E0BE016F5F7F4FC3010E94D907182F5D
:101480008111E0C01A86E3E0EB87DC86CE01079687
:101490002C0199E09D87CA844C2D4295407F4C0DCC
:1014A0006AE1C3010E94BC07A12CCE010A967C010F
:1014B0008E01055F1F4F92014D85BE016F5F7F4F0B
:1014C000C3010E943008182F823009F065C06CE11A
:1014D000C3010E949E0785FDB5C08F7109F480E2AB
:1014E000282F30E04D2DDD0C550B421753070CF023
:1014F0009DC0D82EE82FE595E595E595EF5F982FEF
:10150000977081E009F480E0E80F81E090E08C0FB3
:101510009D1F8E0F911DFC0121503109277033272B
:1015200081E090E002C0880F991F2A95E2F79C01A4
:101530008081822B80838BCF85E98983332031F0B2
:1015400081E0F4019081983008F04BCF80E049CFE2
:1015500087E9898326E0B22EF9CF9D2D97709A876F
:101560008D2D8595859585958E5F282F2295207FD9
:10157000290F2A8321E0911101C020E0280F2D8737
:1015800044244394512C4C0E5D1E480E511CE9E03E
:10159000E81BEB87DC867FCF811154C080E2D82E18
:1015A0009C8590320CF457CF8B81883809F040C06D
:1015B00083E093E0EB2DF0E03196E80DF91D980FF4
:1015C000A1E0B0E0AC0FBD1FA80FB11D2C9121937D
:1015D0008F5F8913F5CFBB84E3E0BE124DC08A85CF
:1015E00081114AC09E012D5F3F4F41E0B201C3010E
:1015F0000E94D907182F811125C09B81F20181819A
:1016000098133CC09C818281981338C0808182FFEE
:1016100012C02394F2E02F1609F48ECF83E028162F
:1016200009F496CF91E0291609F4CECE15E00AC050
:1016300082E094E0BFCFF4018387822D880F820D72
:101640008F5F8083812F2D960FB6F894DEBF0FBE7B
:10165000CDBFDF91CF911F910F91FF90EF90DF9061
:10166000CF90BF90AF909F908F907F906F905F9042
:101670004F903F902F90089511E0E4CF17E0E2CF14
:1016800080914702811108C080914602811104C0F7
:101690009091450281E0911180E008950F931F938E
:1016A000CF938C01C62F0E94AE056C2F6460C801D9
:1016B0000E94AE056C2F6B7FC8010E94AE0583ECC3
:1016C00090E00197F1F7CF911F910F9108950F933B
:1016D0001F93CF93DF938C01D62FC42F607F642B91
:1016E0000E944E0B80E1D89FB00111246C2BC801E1
:1016F000DF91CF911F910F910C944E0BCF93DF93FD
:10170000CDB7DEB728970FB6F894DEBF0FBECDBFBA
:1017100098E0E7E0F1E0DE01119601900D929A95D4
:10172000E1F790917804981708F48FEF90E0880F14
:10173000991F21E030E02C0F3D1F820F931FFC0109
:101740006081606840E080E794E028960FB6F894E6
:10175000DEBF0FBECDBFDF91CF910C94670B41E090
:101760000E94670B81E090E00895FB01019000204A
:10177000E9F73197AF01461B570BDC01ED91FC9166
:101780000280F381E02D09948F929F92AF92BF92D5
:101790000F931F93CF93DF93CDB7DEB7A1970FB60B
:1017A000F894DEBF0FBECDBF19A2423008F44AE064
:1017B0008E010F5D1F4F842E912CB12CA12CA50101
:1017C00094010E94E225E62FB901CA01EA3004F52E
:1017D000E05DD801EE938D01232B242B252B79F787
:1017E00090E080E0109729F0BD0184EB93E00E9427
:1017F000B50BA1960FB6F894DEBF0FBECDBFDF913B
:10180000CF911F910F91BF90AF909F908F900895AF
:10181000E95CDFCFCF93DF930E948404EC016CE49A
:1018200071E084EB93E00E94B50B8C0F9D1FDF915C
:10183000CF9108950F931F93CF93DF93CDB7DEB76A
:1018400061970FB6F894DEBF0FBECDBFFE01319693
:1018500090E08F01DB012D91BD01211109C0F8013C
:10186000E90FF11D20E29F5F21939031E1F704C061
:1018700021939F5F903171F7198A0E947E0BB80106
:1018800080E794E00E94B50B61960FB6F894DEBF36
:101890000FBECDBFDF91CF911F910F91089585EDC0
:1018A0008093BC008091080390910903A0910A03E2
:1018B000B0910B030796A11DB11D23E0B695A79526
:1018C000979587952A95D1F72091BC0024FD03C0F8
:1018D0001092060308954091080350910903609106
:1018E0000A0370910B03452B462B472B69F3009796
:1018F000A105B10541F02AE22A95F1F700C0019750
:10190000A109B109E1CF809107030C94050500E01E
:1019100010E0D0E0C0E0FF24F3948EE00E941302B8
:101920005C018FE00E9413026C0187E00E9480013D
:1019300092ECA91691E0B90608F454C0C33008F43B
:10194000CF5F90E9C91691E0D90608F450C0D330B2
:1019500008F4DF5F813009F04FC0133008F41F5FD7
:1019600081E0C33008F480E080933C0281E0D33012
:1019700008F480E080933E0281E0133008F480E0B8
:1019800080933F0280914702882329F0809147028B
:1019900081508093470280913C02809341020E94D3
:1019A000400B882351F090913E02911106C0909116
:1019B0003F0281E0911101C080E08093400280915C
:1019C000410261E0811106C0809140028823C9F084
:1019D0000F25602F84E00E94A90186E090E00E941C
:1019E000AA1F9BCFCC2309F4ACCFC150AACFDD23D3
:1019F00009F4B0CFD150AECF112309F4B1CF1150BB
:101A0000AFCF60E084E00E94A90100E0E6CFCF9371
:101A1000DF9300D000D01F92CDB7DEB781E08D8379
:101A2000512C412C712C612C80E5D82E3324339419
:101A300093E0292E0E94341B4C0182E00E94800119
:101A4000B82E80913B02882359F080913B0281504F
:101A500080933B0280913B02811102C010923D02B3
:101A600086E894E00E946109882309F4A4C086E80E
:101A700094E00E945707882309F49DC088E491E010
:101A80000E948404C12C80918804C81608F50C2D8E
:101A900010E0F801EA57FB4F7F018381803118F491
:101AA00080E30E947F04F701638170E090E080E0B2
:101AB00040E10E94C40B0F5F1F4F80918804801784
:101AC000110621F01CF080E20E947F04C394DBCF5A
:101AD0006CE471E084EB93E00E94B50B8091880484
:101AE000843009F0A7C0809189048B3F09F0A2C01F
:101AF00080918A048E3509F09DC080918B04853FCA
:101B000009F098C080918C04843009F093C083E37D
:101B100091E00E940A0C30923D02F8E2F0933B0201
:101B2000D092470280914602882371F0809146024C
:101B3000833051F0809146028230C1F434019AEC36
:101B4000691A9EEF790A12C06FE570E083E894E0AD
:101B50000E94980660E570E080E894E00E94980694
:101B600030924602340187E3680E711CD9821A82D2
:101B70009E012D5F3F4F42E0BE016F5F7F4F86E8C1
:101B800094E00E94D907811110C0A12CC12CF12C26
:101B9000E12C10E000E030E020E044E0BE016F5FA7
:101BA0007F4F86E894E00E94300848E060E186E8D4
:101BB00094E00E944D0980914602823009F445C0AC
:101BC000833009F458C0813059F48614970440F0EA
:101BD00082E0809346023401FAEC6F1AFEEF7F0A2E
:101BE000B1101AC09D819130B9F4809145028111E4
:101BF00049C08BE091E00E940A0C6AE570E08DE735
:101C000094E00E949806ED81E09345022401FBE2F6
:101C10004F0E511CD092470280914502813009F449
:101C200046C0833009F44BC084E090E00E94AA1FB4
:101C3000BD8200CF8FE191E00E940A0C82E0809388
:101C40003D02E8E2E0933B0291CF8614970440F214
:101C500065E070E083E894E00E9498066AEA70E02C
:101C600080E894E00E94980620924602340187E3BF
:101C7000680E711CB5CF8614970408F4B1CF10928A
:101C80004602AECF80914502823031F687EF90E078
:101C90000E940A0C70E060E08DE794E00E949806D4
:101CA0002092450224018BE2480E511CB5CF8414CA
:101CB000950408F4B9CF82E080934502B5CF84142F
:101CC000950408F4B1CF10924502AECFBF92CF92E7
:101CD000DF92EF92FF920F931F93CF93DF93E091E8
:101CE000C403F091C50382E08083E091C003F091CA
:101CF000C1031082E091C203F091C30380E18083AD
:101D00001092CC03E091C803F091C90386E0808370
:101D1000E091C603F091C703808180618083E091E8
:101D2000C603F091C703808188608083E091C60379
:101D3000F091C703808180688083E091C603F091B1
:101D4000C70380818F7D808380914B028F5F80935A
:101D50004B0240914C0350914D03E0905B03F09097
:101D60005C03C0915903D0915A03E091B103F09103
:101D7000B203828593856481758126813781DB0179
:101D800015963C932E93149726813781D90113968B
:101D90007C936E931297BF016E5F7F4FDC011196AB
:101DA0000D911C9112970617170721F412963C9378
:101DB0002E93119713861286FC01208121502083D7
:101DC000CA01CE96E091B103F091B203938382836E
:101DD0008417950708F070C20091B1031091B20307
:101DE000C8010296D80112962D913C91FE013396BE
:101DF0002F3F320709F057C2EF81F88522813381E6
:101E0000D80115963C932E931497D90115969C935F
:101E10008E931497D8011796FC93EE93169793839D
:101E200082831B96DC93CE931A9788818F5F888379
:101E30000FB6F8940F9280914B02815080934B0221
:101E400080914B02882309F473C280E00F900FBE8B
:101E5000811102C00E941E1D3FB7F8948091550366
:101E600090915603A0915703B091580326B5A89BB3
:101E700005C02F3F19F00196A11DB11D3FBFBA2F1C
:101E8000A92F982F8827820F911DA11DB11D12E047
:101E9000880F991FAA1FBB1F1A95D1F708E010E001
:101EA00020E030E0FFB7F89440915503509156037D
:101EB0006091570370915803E6B5A89B06C0EF3FA9
:101EC00021F04F5F5F4F6F4F7F4FFFBF762F652F22
:101ED000542F44274E0F511D611D711DC2E0440F48
:101EE000551F661F771FCA95D1F7481B590B6A0B00
:101EF0007B0B483E534061057105A0F2015011096A
:101F00002109310988519C4FAF4FBF4F0115110571
:101F10002105310539F682ED90E00E940A0C62E05D
:101F200082E00E94D70161E084E00E94D70160E076
:101F300087E00E94D70161E08DE00E94D70161E057
:101F400088E00E94D70161E088E00E94A90160E07A
:101F500084E00E94A90165E070E083E894E00E94BB
:101F6000FB0666E070E080E894E00E94FB0663E018
:101F700070E08DE794E00E94FB0680EB90E00E9409
:101F80000A0C8AE990E00E940A0CCFB7F89480917D
:101F90003A02811127C0E4ECF1E08491E8EDF1E030
:101FA0009491E82FF0E0EE0FFF1FE857FE4FA59148
:101FB000B491EC91E92321F461E08AE00E94A90147
:101FC00061E08AE00E94D7018CB580618CBD8CB540
:101FD00080648CBD61E08DE00E94D70161E08BE000
:101FE0000E94D70180913A028F5F80933A02CFBF5F
:101FF00061E0809194040E94D70161E08091940493
:102000000E94A901809195048F3F09F45BC360E0B1
:102010000E94D701809195040E948001892B09F0CC
:1020200051C361E0809195040E94D70160E08091E6
:1020300095040E94A90183E090E00197F1F761E027
:10204000809195040E94A90162E370E080E090E035
:102050000E944A0240E064E286E894E00E94BC07E5
:1020600040E066E286E894E00E94BC0746E268E44D
:1020700086E894E00E94BC0740E864E586E894E0C6
:102080000E94BC0749EA66E586E894E00E94BC0726
:1020900043E068E586E894E00E94BC0748EE6AE504
:1020A00086E894E00E94BC0740E46AE286E894E097
:1020B0000E94BC074DE362E286E894E00E94BC0700
:1020C00068E286E894E00E949E07982F9370933010
:1020D00039F0482F436068E286E894E00E94BC072C
:1020E0008BE890E00E940A0C1092970210929602E0
:1020F00010920D0310922F030E94E70486E295E0F0
:102100009093BA028093B90287E295E09093BE0261
:102110008093BD021092750480917B04823018F088
:1021200098E0909375048093780462E370E080E017
:1021300090E00E944A0260917C0480E794E00E9453
:10214000AE0568EE73E080E090E00E944A0260E332
:1021500080E794E00E944E0B0BE416E4C80101975F
:10216000F1F760E380E794E00E944E0BC80101970D
:10217000F1F760E380E794E00E944E0B83E592E084
:102180000197F1F760E280E794E00E944E0B6091C6
:102190007504606240E080E794E00E94670B84E091
:1021A0008093760440E06CE080E794E00E94670B47
:1021B00040E061E080E794E00E94670B8BE39FE1E1
:1021C0000197F1F780917904882319F080E00E944B
:1021D0007E0B82E08093770440E066E080E794E045
:1021E0000E94670B40E062E080E794E00E94670B8A
:1021F0008BE39FE10197F1F788E080937C0460E036
:1022000080E794E00E94AE056FE471E080E00E94F8
:102210001A0C6EE571E081E00E941A0C8CE790E0E8
:102220000E940A0C62E0809162040E94D7010E9421
:102230007D02605D77408109910960936604709327
:102240006704809368049093690487E380936F0424
:1022500010E000E023E042ED50E06AE671E087E044
:102260009DE00E94602322E044EB50E061E771E0D2
:1022700087E89CE00E94602321E04CED50E069E794
:1022800071E089E793E10E94602388E690E0DF91A6
:10229000CF911F910F91FF90EF90DF90CF90BF9063
:1022A0000C940A0CFA0142815381DA016D917C9100
:1022B00026173707B8F7A2CDC091B103D091B2036A
:1022C0009E012E5F3F4F4A815B81F70133964F3F5E
:1022D000540729F5D7011796ED91FC91428153815E
:1022E0005D834C83DA0115963C932E931497FF83FC
:1022F000EE8333832283FB86EA86E70128812F5F02
:10230000288320914E0330914F038217930708F0E2
:102310008FCD90934F0380934E038ACDFB01628152
:102320007381DB010D911C9140175107B8F7D6CF8F
:102330008091B303882309F488CDE0907403F09072
:102340007503F0E0E0E039E041E080916F03811136
:102350006CC0EF2B69F0E0915B03F0915C0380812E
:102360008111E2C08FEF9FEF90934F0380934E0354
:1023700020914802309149022115310509F495C197
:1023800059E0BB24B3946FEF7FEF80914B02811132
:102390007BC180914C0390914D03019690934D0326
:1023A00080934C03009701F5E0915B03F0915C038F
:1023B000A0915903B0915A03B0935C03A0935B03BF
:1023C000F0935A03E093590340914F024F5F4093BB
:1023D0004F02E0915B03F0915C0340814111AEC07C
:1023E00070934F0360934E03E0914E03F0914F03BF
:1023F00040E08E179F0708F03BC1E091B103F091D8
:10240000B203E6895E9FF0011124E657FC4F8081FC
:10241000823008F041E080914A02811103C04423D8
:1024200009F43BC1B0924A0238C1D7011696ED912A
:10243000FC91A489B5896685778580899189EB01AE
:102440009D838C8380899189EC017B836A83BF01A2
:10245000645F7F4F11960D911C9112970617170715
:1024600021F412969C938E931197158A148A8C915D
:1024700081508C93A285B385848195816681778113
:10248000EC017D836C8366817781EB019B838A837A
:10249000CF01029611960D911C91129708171907FA
:1024A00021F412967C936E931197138612862C91C9
:1024B00021502C93A6892091AE032A1710F4A093E3
:1024C000AE033A9FD0011124A657BC4F11960D9030
:1024D000BC91A02DB583A48314966D917C91159722
:1024E0007783668314966D917C911597EB019B839E
:1024F0008A8315969C938E9314979689939FD00107
:102500001124A657BC4FB387A2878C918F5F8C9301
:10251000A091B103B091B20356968C91891708F03F
:1025200014CF40934A0211CFE0915B03F0915C031A
:102530000580F681E02D8081918116CFE0915B03CB
:10254000F0915C030580F681E02D0190F081E02D93
:10255000F0934F03E0934E0347CFE0915B03F0917C
:102560005C030580F681E02D0680F781E02DA281D5
:10257000B3818A179B0728F4B0934F03A0934E03AF
:102580003CCFA285B38504811581E680F780E80100
:10259000FD82EC82C681D7811B830A838F010E5F87
:1025A0001F4F1196ED90FC901297E016F10621F462
:1025B0001296DC93CE93119713861286CC91C1505C
:1025C000CC93A489B5891097F1F0C684D784E088AC
:1025D000F188E601FD82EC82E088F188E701DB8288
:1025E000CA821196CD90DC901297EF012C96CC16F2
:1025F000DD0621F41296FC92EE921197158A148A48
:10260000CC91C150CC93A689B091AE03BA1710F407
:10261000A093AE035A9FD0011124A657BC4F119628
:102620000D90BC91A02DB583A4831496CD91DC911F
:102630001597D783C6831496CD91DC9115971B838C
:102640000A8315961C930E931497C689C59FD001D3
:102650001124A657BC4FB387A287EC91EF5FEC9390
:10266000E091B103F091B203E689EC1708F441E080
:10267000E0915B03F0915C03E081E1116ECF709318
:102680004F0360934E03B9CE809148029091490266
:10269000019690934902809348022150310909F034
:1026A00074CE109249021092480280914A02882307
:1026B00009F4CBCB8091B1039091B2030E941E1D0F
:1026C00081E0C4CB4FE062E086E894E00E94BC0762
:1026D000C3E062E370E080E090E00E944A0262E0C2
:1026E00086E894E00E949E0784FFB4CCC15089F72D
:1026F000B1CCCF93DF93CDB7DEB7C454D1090FB6B9
:10270000F894DEBF0FBECDBF1CA21BA28FE0FE015E
:10271000B596DF01282F1D922A95E9F71DAA1CAA5C
:102720007196DF011D928A95E9F7812CF12C912C8D
:10273000212C9E012F5F3F4F59018E010E5E1F4FCE
:1027400081E08826682D8DE00E94A901F1100DC15D
:102750000E948902882349F0809163048B3028F01D
:102760008D3050F085518230C8F1412C512C30EC25
:10277000632E3FE7732E1EC060915E0470E090E010
:1027800080E00E94B8262DEC3CEC4CEC5DE30E940E
:1027900049276B017C0160915D0470E090E080E06E
:1027A0000E94B8269B01AC01C701B6010E94142605
:1027B0002B013C010E948902882309F4D3C0809137
:1027C00063048C3009F4A4C0D8F48B3091F1C12C8F
:1027D000D12C90ECE92E9FE7F92E55C060915D0455
:1027E00070915E0476276727762790E080E00E944C
:1027F000B6262DEC3CEC4CEC5DE30E944927D8CF8B
:102800008551823020F730905F04632D70E0762F81
:10281000662766277F7780916004682B90E080E0D0
:102820000E94B6262DEC3CEC4CEC5DE30E9449275F
:102830008BC060915F0470E090E080E00E94B6265B
:102840006B017C013090600437FE0AC0AC019B0133
:1028500060E070E080E89FEB0E9413266B017C0132
:10286000632D6F7070E090E080E00E94B8262DEC40
:102870003CEC4CEC5DE30E944927A70196010E94C5
:1028800014266B017C01A3019201C301B2010E94D5
:10289000B627811167C0A7019601C701B6010E9442
:1028A000B62781115FC020E030E0A901C701B60161
:1028B0000E94442787FD51C060E070E080E09FE304
:1028C000A70196010E9414260E948026609344026C
:1028D00020E030E040E05FE3C301B2010E94142633
:1028E0000E9480266093430281E08093420288E048
:1028F000F82E809141028823D1F161E871E0C50191
:102900000E940A286EE871E0C8010E940A2851C09E
:1029100030905F04632D70E090E080E00E94B62666
:102920006B017C01609160046F7070E090E080E06A
:102930000E94B8262DEC3CEC4CEC5DE30E9449274C
:10294000A70196010E9414266B017C0137FE9BCFE4
:10295000F7FAF094F7F8F09496CF60E070E080E03A
:102960009FEBAECF10924202C2CFFA94C2CF8091B9
:102970004002882309F4A6C06DE971E0C5010E94F8
:102980000A2890913F0280913E021F929F931F92CE
:102990008F938CEA91E09F938F931F9281E18F93A5
:1029A0001F930F930E9411280FB6F894DEBF0FBE3D
:1029B000CDBF8BE791E00E948404E0914602E15094
:1029C00083E4E33020F4F0E0E15FFE4F80810E9479
:1029D0007F0486E791E00E948404E0914502E15083
:1029E00083E4E33020F4F0E0E15FFE4F80810E9459
:1029F0007F048EE691E00E94840460913C0270E0C6
:102A000090E080E04AE00E94C40B88E691E00E94DA
:102A1000840460913E0270E090E080E04AE00E9411
:102A2000C40B80E691E00E94840460913F0270E054
:102A300090E080E04AE00E94C40B89E591E00E94AA
:102A400084046091410270E090E080E04AE00E94DE
:102A5000C40B83E591E00E9484046091400270E021
:102A600090E080E04AE00E94C40B6CE471E084EBEB
:102A700093E00E94B50BBE016D5D7F4FC5010E94C2
:102A80000128892B49F0B50180E00E941A0CB5019C
:102A9000CE0183960E940A28BE016C5C7F4FC8015C
:102AA0000E940128892B49F0B80181E00E941A0C8C
:102AB000B801CE01C4960E940A288FE090E00E94DF
:102AC000AA1F3ECE80913D02813009F566EB71E090
:102AD000C5010E940A28E0914602E15083E4E330F8
:102AE00020F4F0E0E15FFE4F8081282F082E000CDB
:102AF000330B3F938F93A3ECB1E0BF93AF931F923F
:102B000081E18F931F930F930E9411284DCF8091E5
:102B10003D02823041F46CEC71E0C5010E940A284C
:102B200068ED71E0F1CE21105FC0809142028823F0
:102B300009F454C090914302809144021F929F93E4
:102B4000282F082E000C330B3F938F93A5EEB1E096
:102B5000BF93AF931F9281E18F93BF92AF920E9478
:102B600011280FB6F894DEBF0FBECDBFE09145022D
:102B7000E15083E4E33020F4F0E0E15FFE4F808138
:102B8000082E000C990BE0914602E15023E4E3305B
:102B900020F4F0E0E15FFE4F20819F938F93822F1E
:102BA000022E000C990B9F932F93A0E0B2E0BF93ED
:102BB000AF931F9281E18F931F930F930E9411286F
:102BC0000FB6F894DEBF0FBECDBF9394B9E0B91530
:102BD00008F0EFCE81E02826912CEBCE64EF71E077
:102BE000C5010E940A28C2CF20913F0290913C0269
:102BF00080913E021F922F931F929F931F928F935B
:102C0000ADE0B2E0BF93AF931F9281E18F93BF928B
:102C1000AF920E941128809141020FB6F894DEBF56
:102C20000FBECDBFEE24E394D12C811108C090914A
:102C3000400281E0D12C911101C080E0E82E0E9479
:102C4000400BDF92EF921F928F932DE132E03F9382
:102C50002F93AFCF1F920F920FB60F9211242F9385
:102C60003F938F939F93AF93BF9380915103909124
:102C70005203A0915303B09154033091500323E0C9
:102C8000230F2D3758F50196A11DB11D2093500338
:102C90008093510390935203A0935303B093540332
:102CA0008091550390915603A0915703B09158031A
:102CB0000196A11DB11D8093550390935603A093D7
:102CC0005703B0935803BF91AF919F918F913F915C
:102CD0002F910F900FBE0F901F90189526E8230F8D
:102CE0000296A11DB11DD2CF1F920F920FB60F9267
:102CF00011242F933F934F935F936F937F938F9301
:102D00009F93AF93BF93EF93FF9384EB93E00E9465
:102D10001004FF91EF91BF91AF919F918F917F919F
:102D20006F915F914F913F912F910F900FBE0F9038
:102D30001F9018951F920F920FB60F9211242F9388
:102D40008F939F93EF93FF93E091C403F091C5039A
:102D50008081E091CA03F091CB0382FD1BC090817A
:102D60008091CD038F5F8F732091CE03821741F046
:102D7000E091CD03F0E0EC54FC4F958F8093CD03B0
:102D8000FF91EF919F918F912F910F900FBE0F9018
:102D90001F9018958081F4CF1F920F920FB60F925B
:102DA00011242F933F934F935F936F937F938F9350
:102DB0009F93AF93BF93EF93FF938091B900887F68
:102DC000803609F44AC0F0F5883209F4A7C018F536
:102DD000803109F49BC0B8F4882309F4F9C0883025
:102DE00009F494C0FF91EF91BF91AF919F918F91A2
:102DF0007F916F915F914F913F912F910F900FBEF7
:102E00000F901F901895883109F488C0803251F7CF
:102E10008093040314C0803409F49DC040F48033CF
:102E2000B9F38833F9F68093040385ECB0C080359C
:102E300009F485C0883509F496C0883499F60E9453
:102E40004F0CD0CF883909F48CC038F5883729F079
:102E500050F4883611F0803729F683E0809306031A
:102E60001092DF0257C0883809F47BC0803919F00E
:102E7000803809F0B7CF8091DF02803208F071C04E
:102E8000E091DF0281E08E0F8093DF028091BB0032
:102E9000F0E0E154FD4F80833DC0803B39F0E0F429
:102EA000803A09F479C0883A09F09CCF84E0809395
:102EB00006031092BC021092BB02E091B902F0919D
:102EC000BA0209958091BB0281110FC081E0809305
:102ED000BB021092990209C0803C09F4A6CF883C3D
:102EE00009F4A3CF883B09F07DCFE091BC0281E0DB
:102EF0008E0F8093BC02F0E0E756FD4F80818093F7
:102F0000BB009091BC028091BB0229C08091E1027C
:102F10008093BB0085EC8093BC0064CF9091030349
:102F200080910203981758F5E091030381E08E0F1A
:102F300080930303F0E0EE51FD4F8081E9CFE091F3
:102F4000030381E08E0F809303038091BB00F0E0C8
:102F5000EE51FD4F808390910303809102039817F7
:102F6000C8F285E8D8CFE091030381E08E0F80930B
:102F700003038091BB00F0E0EE51FD4F8083809110
:102F8000050381115CCF81E08093E00284EA8093A5
:102F9000BC001092060326CF85EC8093BC001092F3
:102FA00006038091DF02803230F4E091DF02F0E02E
:102FB000E154FD4F10826091DF0270E0E091BD02AC
:102FC000F091BE028FEB92E009951092DF020ACFDA
:102FD0001092040334CF1F920F920FB60F92112458
:102FE0002F933F934F935F936F937F938F939F9311
:102FF000AF93BF93CF93DF93EF93FF9380915002F2
:10300000C0915102D0E087FF24C010928500109239
:103010008400809150028F5F809350028091500213
:10302000082E000C990B8C179D0724F480915002F8
:103030008C30C4F180918400909185000496803496
:103040009C4908F47AC08091840090918500049690
:1030500076C080915002082E000C990B8C179D07AA
:10306000C4F6E09150028E2FEE0F990BFC01EE0F8B
:10307000FF1FE80FF91FEE5AFD4F808186FFC9CF71
:10308000E09150028E2FEE0F990BFC01EE0FFF1F07
:10309000E80FF91FEE5AFD4F808160E08F730E94A8
:1030A000A901B7CF2091840030918500E0915002B2
:1030B0008E2FEE0F990BFC01EE0FFF1FE80FF91F8B
:1030C000EE5AFD4F81819281820F931F9093890068
:1030D00080938800E09150028E2FEE0F990BFC0137
:1030E000EE0FFF1FE80FF91FEE5AFD4F808186FF9C
:1030F00011C0E09150028E2FEE0F990BFC01EE0FE4
:10310000FF1FE80FF91FEE5AFD4F808161E08F73BA
:103110000E94A901FF91EF91DF91CF91BF91AF91F3
:103120009F918F917F916F915F914F913F912F91DF
:103130000F900FBE0F901F90189580E49CE990931C
:103140008900809388008FEF80935002E3CFFC01C9
:10315000909151029C3098F481E0890F8093510244
:103160009083892F90E0FC01EE0FFF1FE80FF91FFD
:10317000EE5AFD4F88EB9BE09283818308958FEF99
:1031800080830895E4EBF3E01382128288EE93E0EB
:10319000A0E0B0E084839583A683B78326E131E085
:1031A0003183208325EC30E03587248724EC30E020
:1031B0003787268720EC30E0318B208B21EC30E004
:1031C000338B228B22EC30E0358B248B26EC30E0E5
:1031D000378B268B118E128E138E148EE1E5F4E060
:1031E0001382128284839583A683B78388E291E059
:1031F00091838083E6E8F4E086E491E09183808324
:103200008AE0868789E0878783E894E00E94A71890
:1032100080E894E00E94A7188DE794E00E94A71828
:10322000E0E7F4E0138212828AE391E091838083E5
:10323000118687E2848380E1828792E093871486F7
:10324000ADE5B4E015968C9315978BE016968C93AC
:103250001697EEEDF1E0E4911796EC931797EAECF0
:10326000F1E0E4911896EC93189740E85EE360E093
:1032700070E01D964D935D936D937C9350970895E8
:10328000CF93DF93CDB7DEB760970FB6F894DEBF6C
:103290000FBECDBF789484B5826084BD84B5816053
:1032A00084BD85B5826085BD85B5816085BD809111
:1032B0006E00816080936E00109281008091810089
:1032C0008260809381008091810081608093810081
:1032D000809180008160809380008091B100846043
:1032E0008093B1008091B00081608093B0008091A4
:1032F0007A00846080937A0080917A008260809363
:103300007A0080917A00816080937A0080917A00BF
:10331000806880937A001092C1002091050130915D
:1033200006018FEF98E0821B930B9093020180932C
:1033300001010E94660EAAE2B2E0FE013196BF01D1
:103340008D918193882321F082E0AA33B807C1F7D9
:1033500000E313E020E040EC50E08FE093E20E94B5
:103360006023882309F4B7C0813009F0B4C00FB6D8
:10337000F8940F9280914A0390914B03892B09F0A6
:1033800050C08FE393E00E94101D86E393E00E94FB
:10339000101D8FE393E0909335038093340386E30D
:1033A00093E0909333038093320381E590E00E9491
:1033B00042238C01009789F14F96F8019183808315
:1033C0008AE0838F85E0848F0FB6F8940F92808116
:1033D0009181238D448DBC01249F600D711D1124AA
:1033E00075836483128E938382832150330B429FB3
:1033F000B001439F700D1124860F971F978386831A
:103400008FEF858F868FC80108960E94101DC80116
:1034100041960E94101D0F900FBE10934B03009316
:103420004A030F900FBE80914A0390914B03892B62
:1034300009F451C008E413E023E04CE550E06FE2EA
:1034400072E08BE991E20E946023813009F043C071
:10345000F8942FEF3FEF30934F0320934E03809368
:10346000B00310924D0310924C03A89588E190ECA4
:103470000FB6F894A895809360000FBE90936000FB
:10348000A091B103B091B203CD91CDBFDD91DEBF6C
:10349000FF91EF91DF91CF91BF91AF919F918F916C
:1034A0007F916F915F914F913F912F911F910F915C
:1034B000FF90EF90DF90CF90BF90AF909F908F9054
:1034C0007F906F905F904F903F902F901F900F9044
:1034D0000FBE0F900895809100010E94660E00E0DB
:1034E00010E001151105E9F30E940304FACFE09101
:1034F0005B03F0915C038081811107C08FEF9FEF28
:1035000090934F0380934E030895E0915B03F091F5
:103510005C030580F681E02D80819181F1CFCF930E
:10352000DF93DC011596ED91FC910680F781E02D8B
:10353000A489B5898685978520893189EC013D83E9
:103540002C83C089D1899B838A83CF010C961196E5
:103550002D913C9112972817390721F41296DC938C
:10356000CE931197158A148A2C9121502C93209177
:103570004B02211157C0A285B38584819581268194
:103580003781EC013D832C83C681D7819B838A835D
:10359000CF01029611962D913C9112972817390769
:1035A00021F41296DC93CE931197138612862C91F8
:1035B00021502C93C6892091AE032C1710F4C09390
:1035C000AE0329E02C9FE0011124C657DC4F09808F
:1035D000DA81C02DD583C4834C815D8157834683B6
:1035E000AC81BD8113969C938E9312979D838C839F
:1035F000A689A29FD0011124A657BC4FB387A287EA
:103600008C918F5F8C93A091B103B091B203968996
:1036100056968C91891730F581E080934A02DF91AC
:10362000CF910895A0917003B0917103B787A687D9
:1036300014962D913C911597318B208B1496CD913A
:10364000DC9115979B838A8315969C938E93149790
:103650008FE693E0958B848B80916F038F5F8093CF
:103660006F03D1CF80E0DBCF0FB6F8940F9280913B
:103670004C0390914D030F900FBE089580914B0223
:103680008F5F80934B0208950FB6F8940F92FC0160
:10369000928D0F900FBE81E0911180E00895EF921E
:1036A000FF920F931F93CF93DF93EC010FB6F89423
:1036B0000F921E8D7C0181E1E80EF11C01E01116D4
:1036C000D4F08FEF8E8F0F900FBE0FB6F8940F923D
:1036D0001D8D7E0188E0E80EF11C01E01116B4F0AA
:1036E0008FEF8D8F0F900FBEDF91CF911F910F91B4
:1036F000FF90EF9008958989882319F3C7010E94EC
:103700008F1A811100934A021150D9CF88858823DE
:1037100039F3C7010E948F1A811100934A02115098
:10372000DDCFCF93DF93FC01A085B18582819381AA
:1037300024813581EC013D832C83C481D5819B8319
:103740008A8311968D919C9112978E179F0721F471
:103750001296DC93CE931197118610868C9181502E
:103760008C93DF91CF9108950F931F93CF93DF93A5
:103770008C01FB0180819181D80113968F3F9807BE
:10378000F1F4E801AF81B88512968D919C91139761
:1037900093838283EC01FD83EC83B583A48313962A
:1037A000FC93EE93129711870087F80180818F5F59
:1037B0008083DF91CF911F910F910895D9011296C7
:1037C0002D913C911397E901488159818417950700
:1037D000A8F7DACFFC01738362839187808746174D
:1037E000570790F0421B530B84859585481759075E
:1037F000C8F4BF016E5F7F4F809132039091330315
:103800000E94B41B80E008954217530718F4621712
:10381000730740F4BF016E5F7F4F80913403909136
:103820003503EECF81E00895EF92FF920F931F933F
:10383000CF93DF93EC018B017A016C857D85600F5E
:10384000711F9801A701CE010E94EA1B811107C0D8
:10385000DF91CF911F910F91FF90EF9008958C858C
:103860009D85080F191FE889F989CE010995E5CFD3
:10387000EF92FF920F931F93CF93DF938C017B0105
:10388000E0913403F09135030580F681E02DC68187
:10389000D781CE0102960E94911B8A8982FF0FC0B8
:1038A000A701B801CE010E94141CE889F989CE0154
:1038B000DF91CF911F910F91FF90EF9009948E7F30
:1038C0008A8BF3CFE0913403F0913503808181112D
:1038D0000DC0809132039091330390933503809310
:1038E0003403F0933303E093320308950580F681A7
:1038F000E02D6FEF7FEF808191810E94381CE2CF35
:10390000BF92CF92DF92EF92FF920F931F93CF93CC
:10391000DF93EC01B62EC0904C03D0904D03009184
:103920005B0310915C03E0905903F0905A0380917F
:10393000B1039091B20302960E94911BCF3FDC0726
:1039400009F042C0BB2009F43FC0E0915E03F09152
:103950005F03A091B103B091B2031596FC93EE936F
:103960001497A091B103B091B20384819581179609
:103970009C938E9316978091B1039091B203A4818A
:10398000B581029613969C938E9312978091B10302
:103990009091B203029695838483E091B103F091F4
:1039A000B2038DE593E09387828780915D038F5FFB
:1039B00080935D03DF91CF911F910F91FF90EF9066
:1039C000DF90CF90BF900895CC0DDD1DE091B10345
:1039D000F091B203D383C2836091B1037091B203BB
:1039E0006E5F7F4FCC15DD0560F4C701DF91CF918D
:1039F0001F910F91FF90EF90DF90CF90BF900C94AC
:103A0000B41BC8010E94B41B80914E0390914F03D8
:103A1000C817D90778F6D0934F03C0934E03CACF87
:103A2000FC010396928381832FEF3FEF348323833E
:103A30009683858390878783108208950F920FB6AF
:103A4000F8940F921F9211242F923F924F925F92FF
:103A50006F927F928F929F92AF92BF92CF92DF929E
:103A6000EF92FF920F931F932F933F934F935F9388
:103A70006F937F938F939F93AF93BF93CF93DF9376
:103A8000EF93FF93A091B103B091B2030DB60D92E5
:103A90000EB60D9280914B02882321F081E0809335
:103AA0004A0261C010924A02A091B103B091B203E0
:103AB000E091B103F091B2032D913C918789908DF3
:103AC00082179307A8F08091B1039091B20380917F
:103AD000B1039091B203259A2D9A2FEF87EA91E6D0
:103AE000215080409040E1F700C000001D9AF5CFC2
:103AF0002091AE0389E001C02150422F50E0849F05
:103B0000F001859FF00D1124E657FC4F9081992319
:103B100099F3A181B28112966D917C917283618338
:103B2000289FC001112483579C4F6817790721F4FF
:103B3000858196819283818389E0849FF001859FAE
:103B4000F00D1124E657FC4F0180F281E02D8681B3
:103B500097819093B2038093B1032093AE03809139
:103B6000B1039091B203A091B103B091B203CD9192
:103B7000CDBFDD91DEBFFF91EF91DF91CF91BF917E
:103B8000AF919F918F917F916F915F914F913F91F5
:103B90002F911F910F91FF90EF90DF90CF90BF90EA
:103BA000AF909F908F907F906F905F904F903F90DD
:103BB0002F901F900F900FBE0F9008958F929F929D
:103BC000BF92CF92DF92EF92FF920F931F93CF930A
:103BD000DF930FB6F8940F9280914B02815080933F
:103BE0004B0280914B02882379F080E00F900FBE4A
:103BF000DF91CF911F910F91FF90EF90DF90CF90C9
:103C0000BF909F908F9008958091B303882369F3AC
:103C1000E0907403F0907503F0E0E0E039E041E0FB
:103C200080916F0381115EC0EF2B11F00E94771A13
:103C3000E0904802F0904902E114F10409F47DC1DA
:103C400089E0D82ECC24C3940FEF1FEF80914B0254
:103C5000811161C1C0914C03D0914D034E018FEF92
:103C6000881A980A90924D0380924C038114910413
:103C7000B9F480915B0390915C03209159033091DA
:103C80005A0330935C0320935B0390935A03809311
:103C9000590380914F028F5F80934F020E94771AE1
:103CA00080914E0390914F03B12C8816990608F02D
:103CB00026C1E091B103F091B203E689DE9EF001E6
:103CC0001124E657FC4F8081823010F0BB24B3945E
:103CD00080914A02811103C0BB2009F425C1C09222
:103CE0004A0222C1D7011696ED91FC91A489B589AB
:103CF0006685778580899189EB019D838C83808996
:103D00009189EC017B836A83BF01645F7F4F1196C9
:103D10000D911C9112970617170721F412969C9388
:103D20008E931197158A148A8C9181508C93A28559
:103D3000B3858481958166817781EC017D836C8375
:103D400066817781EB019B838A83CF01029611966E
:103D50000D911C9112970817190721F412967C9364
:103D60006E931197138612862C9121502C93A6895D
:103D70002091AE032A1710F4A093AE033A9FD0010E
:103D80001124A657BC4F11960D90BC91A02DB58360
:103D9000A48314966D917C9115977783668314960E
:103DA0006D917C911597EB019B838A8315969C936B
:103DB0008E9314979689939FD0011124A657BC4FD8
:103DC000B387A2878C918F5F8C93A091B103B09140
:103DD000B20356968C91891708F022CF40934A027D
:103DE0001FCFE0915B03F0915C030580F681E02D2D
:103DF0000680F781E02D828193818816990628F448
:103E000090934F0380934E0354CFC285D385848112
:103E1000958126813781DC0115963C932E9314976A
:103E200026813781D90113969C938E931297CF01E7
:103E3000029649815A814817590711F43A83298318
:103E400013861286288121502883A489B58910976A
:103E5000F9F02685378540895189E9015D834C83D6
:103E600040895189EA013B832A8311966D917C91A7
:103E700012979F01245F3F4F6217730721F4129638
:103E80005C934E931197158A148A2C9121502C9390
:103E9000A6892091AE032A1710F4A093AE03DA9EF0
:103EA000D0011124A657BC4F11960D90BC91A02DA6
:103EB000B583A48314962D913C911597378326835F
:103EC00014962D913C911597E9019B838A83159651
:103ED0009C938E93149796899D9DD0011124A6578B
:103EE000BC4FB387A2878C918F5F8C93E091B10315
:103EF000F091B2038689891710F4BB24B394E09142
:103F00005B03F0915C03808181116BCF10934F03B1
:103F100000934E03CECE80914802909149020196C3
:103F20009093490280934802D1E0ED1AF10809F01C
:103F30008DCE109249021092480280914A02882345
:103F400009F453CE8091B1039091B2030E941E1DDB
:103F500081E04CCECF93DF93EC01892B29F40E94B2
:103F60001E1DDF91CF9108950E943E1B60E0CE019F
:103F70000E94801C0E94DE1D882389F3F2CF0F92DD
:103F80000FB6F8940F921F9211242F923F924F92E6
:103F90005F926F927F928F929F92AF92BF92CF92D9
:103FA000DF92EF92FF920F931F932F933F934F93C4
:103FB0005F936F937F938F939F93AF93BF93CF93B1
:103FC000DF93EF93FF93A091B103B091B2030DB6CD
:103FD0000D920EB60D9213BE80914B028111F9C065
:103FE00080914C0390914D03019690934D038093E3
:103FF0004C03009781F520915B0330915C03409165
:10400000590350915A0350935C0340935B033093E0
:104010005A032093590320914F022F5F20934F02A0
:10402000E0915B03F0915C032081211107C02FEF29
:104030003FEF30934F0320934E030DC0E0915B039D
:10404000F0915C030580F681E02D20813181309371
:104050004F0320934E0320914E0330914F0382175C
:10406000930710F420E0A1C020E039E0D32EE091C6
:104070005B03F0915C033081311107C08FEF9FEF3C
:1040800090934F0380934E0390C0E0915B03F091B7
:104090005C030580F681E02D0680F781E02D4281EA
:1040A00053818417950728F450934F0340934E0390
:1040B0007CC0A285B3854481558166817781EA0100
:1040C0007D836C8366817781EB015B834A83AF01DB
:1040D0004E5F5F4F11960D911C91129704171507B3
:1040E00021F412967C936E931197138612863C915D
:1040F00031503C93A489B5891097F9F0668577858E
:1041000000891189EB011D830C8300891189E80165
:104110007B836A831196ED90FC901297BF01645FD8
:104120007F4FE616F70621F412961C930E93119713
:10413000158A148A3C9131503C93A6893091AE0384
:104140003A1710F4A093AE03DA9ED0011124A657BB
:10415000BC4F11960D90BC91A02DB583A4831496ED
:104160006D917C9115977783668314966D917C9100
:104170001597EB015B834A8315965C934E931497D6
:1041800046894D9DD0011124A657BC4FB387A28705
:104190003C913F5F3C93E091B103F091B2033689CB
:1041A000341708F064CF21E062CFE091B103F091C1
:1041B000B203E689D9E0ED9FF0011124E657FC4FE8
:1041C0008081823008F021E080914A0281110EC086
:1041D0000AC0809148029091490201969093490249
:1041E000809348026CC0222309F469C080914B027D
:1041F000882321F081E080934A0261C010924A0234
:10420000A091B103B091B203E091B103F091B20378
:104210002D913C918789908D82179307A8F080910A
:10422000B1039091B2038091B1039091B203259AAA
:104230002D9A2FEF87EA91E6215080409040E1F7D8
:1042400000C000001D9AF5CF2091AE0389E001C0A7
:104250002150422F50E0849FF001859FF00D1124E2
:10426000E657FC4F9081992399F3A181B281129670
:104270006D917C9172836183289FC00111248357C3
:104280009C4F6817790721F48581968192838183F9
:1042900089E0849FF001859FF00D1124E657FC4FC3
:1042A0000180F281E02D868197819093B203809303
:1042B000B1032093AE038091B1039091B203A0911A
:1042C000B103B091B203CD91CDBFDD91DEBFFF91BF
:1042D000EF91DF91CF91BF91AF919F918F917F919E
:1042E0006F915F914F913F912F911F910F91FF908F
:1042F000EF90DF90CF90BF90AF909F908F907F9086
:104300006F905F904F903F902F901F900F900FBE37
:104310000F900895CF93DF93009751F0EC010E9426
:104320003E1BCE010E942725DF91CF910C94DE1D0C
:10433000DF91CF910895CF93DF9300D000D01F92EB
:10434000CDB7DEB785E0B82ECE0101967C01E091B5
:104350003403F09135031081D12CC12C112329F0A5
:104360000580F681E02DC080D1800E943E1B0E9416
:10437000341B4C0180914D0290914E028816990693
:1043800008F089C00E94621C90924E0280924D02F9
:104390000E94DE1DD701EB2D1D92EA95E9F70091F1
:1043A0004A0310914B030FB6F8940F92D8015A9616
:1043B000DC905A97DD2009F42FC15C964C915C97F4
:1043C0004423F9F050E016968D919C911797840F35
:1043D000951F17969C938E93169714962D913C914A
:1043E00015978217930738F08D919C911197179626
:1043F0009C938E931697F80166817781C7010E947E
:10440000F127DA94D8015A96DC925A9718968C9133
:10441000882339F0C80108960E948F1A81110E94E2
:104420001E1D0F900FBEA980A7FCB9CF0C811D8166
:10443000D8011A968D919C91892B21F0C801029682
:104440000E94911B0E94341B6C0180914D0290913F
:104450004E02C816D90610F40E94621CD0924E0279
:10446000C0924D02EFEFEA0DE93008F098CF0E2E22
:10447000000CFF0BEE5BFD4DD80152968C915297CC
:104480000C94EB27C522C5220823F0220223C52263
:10449000C5220823F02290924E0280924D021123F1
:1044A00051F08C149D0470F00E94DE1DB401C60111
:1044B0000E94381C6FCFE0913203F091330361E02A
:1044C0008081811160E000914A0310914B030FB687
:1044D000F8940F92D8015D968C915D978F3F11F4FF
:1044E0005D961C92F801868D8F3F09F4168E0F9011
:1044F0000FBED8015A968C915A9781113CC05296A2
:10450000ED91FC91A091B103B091B2031F96FC9381
:10451000EE931E97A091B103B091B203848195816F
:1045200051969C938E9350978091B1039091B203D2
:10453000A481B5810C9613969C938E9312978091CB
:10454000B1039091B2030C9695838483E091B103FB
:10455000F091B203C8014196958B848BF801818953
:104560008F5F818BC60188199909662311F08FEF3F
:104570009FEF0E94801CC8010E944F1B0E94DE1DFD
:10458000811108CF0E941E1D05CF8160F801828B2A
:104590008A809B8064857585680D791D9401A601CC
:1045A000C8010E94EA1B882309F4F9CED80152966B
:1045B0008C91529782FF10C01C966D917C91680D72
:1045C000791DA601C8010E94141CD8015096ED91D6
:1045D000FC91C8010995E3CE8E7FF801828BF5CF5F
:1045E000816052968C9352976A817B811D967C9351
:1045F0006E931C976C0D7D1D9601A601C8010E944B
:10460000EA1BCDCE81FD04C0C8010E948A21C7CE1D
:104610008E7FF801828BC3CE0F900FBE98CE00E044
:1046200010E080914C0281110CC080918A0382308D
:1046300010F00E941E1D0115110599F30E9403043C
:10464000F0CF0FB6F8940F92E0916B03F0916C03EA
:10465000C681D781CE0102960E94911B8091B3033F
:1046600081508093B30380914C02815080934C021F
:104670000F900FBE8F89988D0E948A21CE010E94D3
:104680008A21CFCFCF93DF93EC010E943E1BCE0156
:104690000E948B24EC010E94DE1D209769F4259A6C
:1046A0002D9A2FEF80E792E0215080409040E1F773
:1046B00000C000001D9AF5CFCE01DF91CF91089583
:1046C0007F928F929F92AF92BF92CF92DF92EF92A2
:1046D000FF920F931F93CF93DF93982EA92E762EE0
:1046E000872E7A01B22ECA010E9442236C01892BC7
:1046F00009F4EDC080E390E00E944223EC01892B95
:1047000009F4E2C080E3DE011D928A95E9F7D88EB4
:10471000CF8AA70165EA70E0C6010E94FA27B1E0DE
:10472000EB1AF108EF89F88DEE0DFF1D672D782D3E
:10473000CE0149969B01205F3F4FDB014D91BD01AA
:10474000DC014D93CD01AB0141505109DA014C918F
:10475000442319F02617370781F718A6BE8AB9A691
:104760001B861A861D8A1C8AD987C88784E090E038
:104770008B1991099D878C87DB8BCA8B9082DF0117
:104780001197AC9211971C92119780E88C93119716
:104790001C9257971C9211971C92B397F983E88348
:1047A0000115110519F0F801D183C0830FB6F894F3
:1047B0000F928091B3038F5F8093B3038091B10315
:1047C0009091B203892B09F091C0D093B203C093AA
:1047D000B1038091B303813081F58AE893E00E94B0
:1047E000101D83E993E00E94101D8CE993E00E9464
:1047F000101D85EA93E00E94101D81E893E00E945D
:10480000101D88E793E00E94101D8FE693E00E9440
:10481000101D86E693E00E94101D8DE593E00E9436
:10482000101D81E893E090935C0380935B0388E71D
:1048300093E090935A03809359038091AF038F5F65
:104840008093AF03AE898091AE038A1710F4A093D2
:10485000AE0329E02A9FD0011124A657BC4F119620
:104860000D90BC91A02DBD83AC8314968D919C912D
:1048700015979F838E831496ED91FC911597CE0129
:1048800002969383828315969C938E931497EE8958
:10489000E29FF0011124E657FC4FFB87EA878081F5
:1048A0008F5F80830F900FBE8091B003882351F0FB
:1048B000E091B103F091B20396898E89981710F4B4
:1048C0000E941E1D81E004C0C6010E948A218FEF54
:1048D000DF91CF911F910F91FF90EF90DF90CF90DC
:1048E000BF90AF909F908F907F9008958091B0037C
:1048F0008111A3CFE091B103F091B20396898E8923
:10490000891708F49ACFD093B203C093B10395CF1F
:104910000E94BF1F18950F931F93CF93DF93823090
:10492000910510F482E090E0E0919804F0919904F0
:1049300030E020E0B0E0A0E0309799F42115310597
:1049400009F44AC0281B390B24303105D8F58A8177
:104950009B816115710589F1FB0193838283FE01BF
:1049600011C0408151810281138148175907E0F03D
:104970004817590799F4109761F012960C93129703
:1049800013961C933296CF01DF91CF911F910F9117
:1049900008950093980410939904F4CF21153105DC
:1049A00051F04217530738F0A901DB019A01BD010C
:1049B000DF01F801C1CFEF01F9CF90939904809303
:1049C0009804CDCFFE01E20FF31F81939193225003
:1049D000310939832883D7CF2091960430919704E9
:1049E000232B41F42091030130910401309397046B
:1049F0002093960420910101309102012115310587
:104A000041F42DB73EB74091050150910601241B9A
:104A1000350BE0919604F0919704E217F307A0F4A8
:104A20002E1B3F0B2817390778F0AC014E5F5F4F04
:104A30002417350748F04E0F5F1F5093970440939B
:104A40009604819391939FCFF0E0E0E09CCFCF93C9
:104A5000DF930097E9F0FC01329713821282A09154
:104A60009804B0919904ED0130E020E01097A1F492
:104A700020813181820F931F2091960430919704F9
:104A80002817390709F061C0F0939704E093960462
:104A9000DF91CF910895EA01CE17DF07E8F54A814B
:104AA0005B819E0141155105B1F7E901FB83EA8362
:104AB00049915991C40FD51FEC17FD0761F480810E
:104AC00091810296840F951FE901998388838281E1
:104AD00093819B838A83F0E0E0E012968D919C9114
:104AE00013970097B9F52D913C911197CD0102963E
:104AF000820F931F2091960430919704281739074D
:104B000039F6309751F51092990410929804B093A9
:104B10009704A0939604BCCFD383C2834081518174
:104B2000840F951FC817D90761F44E5F5F4F8881C6
:104B30009981480F591F518340838A819B819383B8
:104B400082832115310509F0B0CFF0939904E093E9
:104B500098049ECFFD01DC01C0CF13821282D7CF13
:104B6000052E97FB1EF400940E94C72557FD07D021
:104B70000E94E22507FC03D04EF40C94C725509503
:104B80004095309521953F4F4F4F5F4F0895909539
:104B90008095709561957F4F8F4F9F4F08950E942C
:104BA0000426A59F900DB49F900DA49F800D911D8C
:104BB00011240895B7FF0C94CF250E94CF25821BA6
:104BC000930B0895A1E21A2EAA1BBB1BFD010DC079
:104BD000AA1FBB1FEE1FFF1FA217B307E407F507AD
:104BE00020F0A21BB30BE40BF50B661F771F881F89
:104BF000991F1A9469F760957095809590959B011F
:104C0000AC01BD01CF010895A29FB001B39FC001C7
:104C1000A39F700D811D1124911DB29F700D811DE8
:104C20001124911D08955058BB27AA270E942B26B6
:104C30000C940A270E94FC2638F00E94032720F0DB
:104C400039F49F3F19F426F40C94F9260EF4E095FC
:104C5000E7FB0C94F326E92F0E941B2758F3BA17A1
:104C6000620773078407950720F079F4A6F50C9482
:104C70003D270EF4E0950B2EBA2FA02D0B01B901A4
:104C800090010C01CA01A0011124FF27591B99F0C2
:104C9000593F50F4503E68F11A16F040A22F232FCE
:104CA000342F4427585FF3CF469537952795A7951E
:104CB000F0405395C9F77EF41F16BA0B620B730BC5
:104CC000840BBAF09150A1F0FF0FBB1F661F771F36
:104CD000881FC2F70EC0BA0F621F731F841F48F4EB
:104CE000879577956795B795F7959E3F08F0B0CF74
:104CF0009395880F08F09927EE0F9795879508955B
:104D00000E9487266894B1110C943E2708950E9452
:104D1000232788F09F5798F0B92F9927B751B0F003
:104D2000E1F0660F771F881F991F1AF0BA95C9F72F
:104D300014C0B13091F00E943D27B1E008950C9469
:104D40003D27672F782F8827B85F39F0B93FCCF31C
:104D5000869577956795B395D9F73EF490958095AC
:104D6000709561957F4F8F4F9F4F0895E89409C0CC
:104D700097FB3EF490958095709561957F4F8F4F8E
:104D80009F4F9923A9F0F92F96E9BB279395F695A4
:104D9000879577956795B795F111F8CFFAF4BB0F22
:104DA00011F460FF1BC06F5F7F4F8F4F9F4F16C086
:104DB000882311F096E911C0772321F09EE8872F10
:104DC000762F05C0662371F096E8862F70E060E0CC
:104DD0002AF09A95660F771F881FDAF7880F969545
:104DE000879597F9089597F99F6780E870E060E0EC
:104DF00008959FEF80EC089500240A941616170674
:104E000018060906089500240A94121613061406BB
:104E100005060895092E0394000C11F4882352F01E
:104E2000BB0F40F4BF2B11F460FF04C06F5F7F4FD6
:104E30008F4F9F4F089557FD9058440F551F59F0BD
:104E40005F3F71F04795880F97FB991F61F09F3F77
:104E500079F087950895121613061406551FF2CFA0
:104E60004695F1DF08C0161617061806991FF1CFF0
:104E700086957105610508940895E894BB27662717
:104E80007727CB0197F908950E94BB2708F48FEF8D
:104E900008950E945C270C940A270E94FC2638F093
:104EA0000E94032720F0952311F00C94F3260C9414
:104EB000F92611240C943E270E941B2770F3959F1E
:104EC000C1F3950F50E0551F629FF001729FBB2701
:104ED000F00DB11D639FAA27F00DB11DAA1F649F9D
:104EE0006627B00DA11D661F829F2227B00DA11D50
:104EF000621F739FB00DA11D621F839FA00D611DD6
:104F0000221F749F3327A00D611D231F849F600DF6
:104F1000211D822F762F6A2F11249F5750409AF01F
:104F2000F1F088234AF0EE0FFF1FBB1F661F771FAB
:104F3000881F91505040A9F79E3F510580F00C9476
:104F4000F3260C943E275F3FE4F3983ED4F3869516
:104F500077956795B795F795E7959F5FC1F7FE2B16
:104F6000880F911D9695879597F908950E94BB2704
:104F7000880B990B0895990F0008550FAA0BE0E8CC
:104F8000FEEF16161706E807F907C0F0121613060B
:104F9000E407F50798F0621B730B840B950B39F44B
:104FA0000A2661F0232B242B252B21F408950A26B1
:104FB00009F4A140A6958FEF811D811D0895991BCD
:104FC00079E004C0991F961708F0961B881F7A9500
:104FD000C9F780950895EE0FFF1F0590F491E02D1D
:104FE0000994FB01DC0102C001900D924150504038
:104FF000D8F70895DC0101C06D9341505040E0F7AF
:105000000895FB01DC018D91019080190110D9F305
:10501000990B0895FB01DC0101900D920020E1F74E
:105020000895AEE0B0E0E7E1F8E20C94CD2A0D89F6
:105030001E898F89988D26E02C831A83098397FF18
:1050400002C080E090E801979E838D83AE01455EAB
:105050005F4F698D7A8DCE0101960E9441284D8166
:105060005E8157FD0AC02F813885421753070CF423
:105070009A01020F131FF80110822E96E4E00C949F
:10508000E92AABE0B0E0E7E4F8E20C94BF2A7C0147
:105090003B018A01FC0117821682838181FFC8C10E
:1050A000CE0101965C01F7019381F30193FD859197
:1050B00093FF81913F01882309F453C1853239F46C
:1050C00093FD859193FF81913F01853229F4B701CA
:1050D00090E00E94312AE7CF912C212C312CFFE166
:1050E000F31538F08B3211F190F4803209F18332EC
:1050F00029F137FC3CC020ED280F2A3050F536FE50
:1051000020C08AE0989E200D1124922E06C08D3278
:1051100091F0803371F7689430F8F30193FD859135
:1051200093FF81913F018111DACF21C0689431F85A
:10513000689432F8F2CF689433F8EFCF689434F87B
:10514000ECCFEAE02E9E200D1124222E689435F833
:10515000E4CF8E3229F436FC04C1689436F8DDCFF2
:105160008C3619F4689437F8D8CF8836B1F2982F76
:105170009F7D95549330E0F08336A1F18337C1F1E0
:10518000833509F063C02801F2E04F0E511CF8018D
:10519000C080D180692D70E036FC02C06FEF7FEFD8
:1051A000C6010E941B2A4C01689437F882010AC08C
:1051B0000C5F1F4FFFE3F98388248394912C6501D2
:1051C000E89437F833FE2DC0522C8114910471F508
:1051D000552009F468CFB70180E290E00E94312A9F
:1051E0005A94F6CFF801808189830E5F1F4FE4CF78
:1051F0002801F2E04F0E511CF801C080D180692DCA
:1052000070E036FC02C06FEF7FEFC6010E94262AD5
:105210004C018201D5CFB70180E290E00E94312A93
:105220002A942814190409F0B0F7CECFF60137FC00
:10523000859137FE81916F01B70190E00E94312A7C
:1052400051105A94F1E08F1A9108BFCF843619F0AB
:10525000893609F077C0F80137FE6BC06081718133
:10526000828193810C5F1F4FF32DFF763F2E97FFB6
:1052700009C090958095709561957F4F8F4F9F4F96
:10528000689437F82AE030E0A5010E94612AC82E10
:10529000CA188C2C432C36FE0CC0E89440F8C91474
:1052A00040F434FE05C032FC03C0F32DFE7E4F2EC9
:1052B000892C44FE95C0FE01EC0DF11D80818033E8
:1052C00009F087C0242D297E422E842D8870582E07
:1052D00043FC95C040FE8FC09C2C821418F42C0C0B
:1052E000922C981844FE91C0B70180E390E00E9490
:1052F000312A42FE09C088E790E041FE02C088E5FD
:1053000090E0B7010E94312AC91408F48AC0CA94F7
:10531000D12C9FEFC91AD90ACA0CDB1CF601829165
:105320006F01B70190E00E94312AAC14BD04B1F7BF
:105330004FCF60817181072E000C880B990B0E5F97
:105340001F4F92CFD32CE894D4F82AE030E0853771
:1053500039F1232D297FD22E8F3601F148F488357B
:10536000A9F0F701868197812B96E2E10C94DB2A64
:10537000803749F08837A9F7D4FE02C06894D2F884
:1053800020E130E00DC06894D4F8F6CF34FE03C0BD
:10539000822F8660D82E20E132E002C028E030E083
:1053A000F801D7FE0FC060817181828193810C5F0B
:1053B0001F4FA5010E94612AC82ECA183D2CE894EF
:1053C00037F867CF6081718190E080E00E5F1F4FFA
:1053D000F0CF42FC02C0839478CF8394839475CF3E
:1053E000842D867809F471CFF6CFB70180E290E082
:1053F0000E94312A83948214C0F3512C73CF522C13
:105400005818821408F46ECFF8CF842D867809F4EA
:105410007BCF8BE241FE80E247FC8DE2B70190E05A
:1054200071CFB70180E390E00E94312A9A946CCF4B
:105430008FEF9FEF99CFFC010590615070400110F4
:10544000D8F7809590958E0F9F1F0895FC016150AD
:10545000704001900110D8F7809590958E0F9F1F96
:1054600008950F931F93CF93DF93182F092FEB010C
:105470008B8181FD09C01FEF0FEF812F902FDF91EE
:10548000CF911F910F91089582FF14C02E813F810B
:105490008C819D81281739073CF4E881F981CF017F
:1054A00001969983888310838E819F8101969F83C3
:1054B0008E83E3CFE885F985812F0995892BA1F3A8
:1054C000DACFFA01AA27283051F1203181F1E8948E
:1054D0006F936E7F6E5F7F4F8F4F9F4FAF4FB1E0E7
:1054E0003ED0B4E03CD0670F781F891F9A1FA11DE2
:1054F000680F791F8A1F911DA11D6A0F711D811DE3
:10550000911DA11D20D009F468943F912AE0269FA7
:1055100011243019305D3193DEF6CF010895462F06
:105520004770405D4193B3E00FD0C9F7F6CF462FE7
:105530004F70405D4A3318F0495D31FD4052419350
:1055400002D0A9F7EACFB4E0A6959795879577950D
:105550006795BA95C9F700976105710508959B0194
:10556000AC010A2E06945795479537952795BA951D
:10557000C9F7620F731F841F951FA01D08952F92F6
:105580003F924F925F926F927F928F929F92AF92D3
:10559000BF92CF92DF92EF92FF920F931F93CF9320
:1055A000DF93CDB7DEB7CA1BDB0B0FB6F894DEBFB7
:1055B0000FBECDBF09942A88398848885F846E84DD
:1055C0007D848C849B84AA84B984C884DF80EE8027
:1055D000FD800C811B81AA81B981CE0FD11D0FB630
:1055E000F894DEBF0FBECDBFED010895F894FFCF54
:1055F0000300009A04800000004000140054006F73
:105600004F630000000032048F03BC039F04ED03CE
:10561000CB03DF03000000007F0552059506280537
:105620004B053805290500000000AF0B8F039506D8
:10563000BF0400000000BF09610957070D0A0053AD
:105640006D617274486F6D652052544F53005374EE
:10565000617274696E672E2E2E00416363657373E9
:105660000053656E736F727300446973706C617977
:105670000021212120464952452021212100536D3E
:105680006F6B6520616C61726D204F4E0053454316
:10569000555249545920414C45525400503A2575B1
:1056A000204C3A25750052464944204752414E54F9
:1056B0004544004F757465723A256300524649446B
:1056C0002044454E49454400556E6B6E6F776E2001
:1056D0006361726400543A2532644320483A2532AB
:1056E00075252500543A2D2D4320483A2D2D2500AF
:1056F0004F75743A256320496E3A256300503A2568
:105700007520536D3A2575204C3A25750041726D10
:105710003A257520427A3A25750049444C45005493
:085720006D7220537663000056
:00000001FF
