:100000000C9490000C94B8000C94B8000C94B800B8
:100010000C94B8000C94B8000C94E60E0C94B80044
:100020000C94B8000C94B8000C94B8000C942704FD
:100030000C94B8000C94B8000C94B8000C94B80060
:100040000C9485030C94B8000C94F5030C94CF0326
:100050000C94B8000C94B8000C94B8000C94B80040
:100060000C94B8000C94B800000000002400270095
:100070002A00536572766F2077696C6C2063686123
:100080006E676520706F736974696F6E2065766541
:1000900072792032207365636F6E64732E0046722E
:1000A000656552544F5320736572766F2074696D85
:1000B00065722072656164792E00536572766F20D7
:1000C0002D3E204F50454E00536572766F202D3ED9
:1000D00020434C4F534544000000000025002800F9
:1000E0002B000404040404040404020202020202B9
:1000F00003030303030301020408102040800102EC
:10010000040810200102040810200000000800026A
:100110000100000304070000000000000000E90ED9
:1001200011241FBECFEFD8E0DEBFCDBF11E0A0E0AD
:10013000B1E0E6E5F4E202C005900D92A033B1070C
:10014000D9F722E0A0E3B1E001C01D92A838B207C0
:10015000E1F710E0C0E9D0E004C02197FE010E9461
:100160001312CF38D107C9F70E94460F0C942912F9
:100170000C9400008F929F92AF92BF92FF920F93C8
:100180001F93CF93DF93F09081022BE02F1508F49B
:100190004CC02091830208E512E0021B110927FDE3
:1001A0001395000F111F000F111F20918202C8E844
:1001B000D0E0C21BD10927FDD395CC0FDD1FCC0F9A
:1001C000DD1F4E010D2E000CAA08BB089801012E60
:1001D000000C440B550B281939094A095B09DC014D
:1001E0000E94CE1124EB30E040E050E00E94A411C8
:1001F000820E931EA41EB51E8C169D062CF0E801DF
:10020000801691060CF4E4012297CC0FDD1F2FB766
:10021000F8948F2D90E0FC01EE0FFF1FE80FF91FFF
:10022000E45AFD4FD283C1832FBFDF91CF911F913D
:100230000F91FF90BF90AF909F908F90089590E0A6
:10024000FC01E65FFE4F2491FC01EA50FF4F349120
:10025000FC01EE51FF4FE491EE23C9F0222339F067
:10026000233001F1A8F4213019F1223029F1F0E016
:10027000EE0FFF1FE852FF4FA591B4918FB7F8948E
:10028000EC91611126C030953E233C938FBF0895B9
:100290002730A9F02830C9F0243049F78091800038
:1002A0008F7D03C0809180008F7780938000DFCFA7
:1002B00084B58F7784BDDBCF84B58F7DFBCF8091F4
:1002C000B0008F778093B000D2CF8091B0008F7D47
:1002D000F9CF3E2BDACFAF92BF92CF92DF92EF925F
:1002E000FF920F931F93CF93DF936C017B018B01E0
:1002F000040F151FEB015E01AE18BF08C017D10730
:1003000059F06991D601ED91FC910190F081E02DB9
:10031000C6010995892B79F7C501DF91CF911F910E
:100320000F91FF90EF90DF90CF90BF90AF90089526
:10033000FC01538D448D252F30E0842F90E0821BEB
:10034000930B541710F0CF96089501970895FC0170
:10035000918D828D981761F0A28DAE0FBF2FB11DC8
:100360005D968C91928D9F5F9F73928F90E0089520
:100370008FEF9FEF0895FC01918D828D981731F0DA
:10038000828DE80FF11D858D90E008958FEF9FEF2E
:100390000895FC01918D228D892F90E0805C9F4F04
:1003A000821B91098F73992708958FEB91E00E942A
:1003B000C90121E0892B09F420E0822F08950E94D1
:1003C000D50181110C940000089580E090E0892B04
:1003D00011F00C94DF010895FC01A48DA80FB92F32
:1003E000B11DA35ABF4F2C91848D90E001968F735D
:1003F0009927848FA689B7892C93A089B1898C917C
:10040000837080648C93938D848D981306C00288CA
:10041000F389E02D80818F7D80830895EF92FF9294
:100420000F931F93CF93DF93EC0181E0888F9B8D17
:100430008C8D98131AC0E889F989808185FF15C0D1
:100440009FB7F894EE89FF896083E889F9898081F4
:100450008370806480839FBF81E090E0DF91CF91C3
:100460001F910F91FF90EF900895F62E0B8D10E0E5
:100470000F5F1F4F0F731127E02E8C8D8E110CC054
:100480000FB607FCFACFE889F989808185FFF5CF9F
:10049000CE010E94EC01F1CFEB8DEC0FFD2FF11D91
:1004A000E35AFF4FF0829FB7F8940B8FEA89FB89DC
:1004B00080818062CFCF0F931F93CF93DF938C0106
:1004C000D0E0C0E0F801EC0FFD1F6491662341F01D
:1004D0008FEB91E00E940E02892B11F02196F2CF52
:1004E00042E050E069E171E08FEB91E00E946B0126
:1004F0008C0F9D1FDF91CF911F910F910895CF9386
:10050000DF93EC01888D8823B9F0AA89BB89E8893B
:10051000F9898C9185FD03C0808186FD0DC00FB6E1
:1005200007FCF7CF8C9185FFF2CF808185FFEDCF5F
:10053000CE010E94EC01E9CFDF91CF910895C0E098
:10054000D1E0CC23B9F090E080E00E94BA0088ECC2
:1005500090E00E945B02CD270E94AA0560E08DE733
:1005600090E00E94EC060E944A088111EACF0E94A6
:100570008A07E7CF8AE590E00E94BA008AEB90E014
:10058000E8CF0F931F93E091CF01F091D00182E06B
:100590008083E091CB01F091CC011082E091CD01FC
:1005A000F091CE018FEC80831092D701E091D301BE
:1005B000F091D40186E08083E091D101F091D201E5
:1005C000808180618083E091D101F091D2018081AE
:1005D00088608083E091D101F091D20180818068B0
:1005E0008083E091D101F091D20180818F7D808361
:1005F000809181028C3008F068C0EBEFF0E024912C
:10060000E7EEF0E08491882399F090E0880F991F3D
:10061000FC01E859FF4FA591B491FC01E852FF4F4E
:10062000859194918FB7F894EC91E22BEC938FBF66
:1006300080918102282F30E0F901EE0FFF1FE20FB9
:10064000F31FE45AFD4F9081907C95609083109247
:100650008202109283022CE0622F0E940712829F76
:10066000B001112430E020E0AB01420F531FFA012A
:10067000EE0FFF1FE40FF51FE45AFD4F908196FD2A
:1006800016C02F5F3F4F2C30310571F781110FC01D
:100690001092800082E08093810010928500109279
:1006A0008400B19A80916F00826080936F00E09126
:1006B00081028E2F90E0FC01EE0FFF1FE80FF91F63
:1006C000E45AFD4F80818064808390E080E00E9446
:1006D000BA008EE990E00E945B0282E790E00E94FF
:1006E0005B0210E000E021E040E850E06CE171E0E6
:1006F0008FE992E00E945B0E009721F01F910F910D
:100700000C94160A1F910F9108951F920F920FB625
:100710000F9211242F933F938F939F93AF93BF9387
:100720008091BB019091BC01A091BD01B091BE012F
:100730003091BA0123E0230F2D3758F50196A11D02
:10074000B11D2093BA018093BB019093BC01A0938B
:10075000BD01B093BE018091B6019091B701A09107
:10076000B801B091B9010196A11DB11D8093B601E8
:100770009093B701A093B801B093B901BF91AF9125
:100780009F918F913F912F910F900FBE0F901F90CF
:10079000189526E8230F0296A11DB11DD2CF1F92F6
:1007A0000F920FB60F9211242F933F934F935F93A5
:1007B0006F937F938F939F93AF93BF93EF93FF9329
:1007C0008FEB91E00E94EC01FF91EF91BF91AF910F
:1007D0009F918F917F916F915F914F913F912F9159
:1007E0000F900FBE0F901F9018951F920F920FB68B
:1007F0000F9211242F938F939F93EF93FF93E09188
:10080000CF01F091D0018081E091D501F091D60126
:1008100082FD1BC090818091D8018F5F8F732091E2
:10082000D901821741F0E091D801F0E0E154FE4F88
:10083000958F8093D801FF91EF919F918F912F9188
:100840000F900FBE0F901F9018958081F4CF1F92CC
:100850000F920FB60F9211242F933F934F935F93F4
:100860006F937F938F939F93AF93BF93CF93DF93B8
:10087000EF93FF9380919401C0918002D0E087FFB5
:1008800024C01092850010928400809194018F5FA3
:100890008093940180919401082E000C990B8C1781
:1008A0009D0724F4809194018C30C4F180918400E0
:1008B00090918500049680349C4908F47AC0809118
:1008C000840090918500049676C080919401082E52
:1008D000000C990B8C179D07C4F6E09194018E2FA4
:1008E000EE0F990BFC01EE0FFF1FE80FF91FE45A02
:1008F000FD4F808186FFC9CFE09194018E2FEE0FCE
:10090000990BFC01EE0FFF1FE80FF91FE45AFD4F92
:10091000808160E08F730E941F01B7CF2091840017
:1009200030918500E09194018E2FEE0F990BFC0120
:10093000EE0FFF1FE80FF91FE45AFD4F81819281EE
:10094000820F931F9093890080938800E091940117
:100950008E2FEE0F990BFC01EE0FFF1FE80FF91F12
:10096000E45AFD4F808186FF11C0E09194018E2FE3
:10097000EE0F990BFC01EE0FFF1FE80FF91FE45A71
:10098000FD4F808161E08F730E941F01FF91EF9105
:10099000DF91CF91BF91AF919F918F917F916F9197
:1009A0005F914F913F912F910F900FBE0F901F902D
:1009B000189580E49CE990938900809388008FEFDC
:1009C00080939401E3CFE0918D01F0918E018081BD
:1009D000811107C08FEF9FEF9093B5018093B40111
:1009E0000895E0918D01F0918E010580F681E02D52
:1009F00080819181F1CFCF93DF93DC011596ED914A
:100A0000FC910680F781E02DA489B58986859785BC
:100A100020893189EC013D832C83C089D1899B8356
:100A20008A83CF010C9611962D913C91129728172D
:100A3000390721F41296DC93CE931197158A148A04
:100A40002C9121502C9320915201211157C0A28545
:100A5000B3858481958126813781EC013D832C8388
:100A6000C681D7819B838A83CF01029611962D91EF
:100A70003C9112972817390721F41296DC93CE93F4
:100A80001197138612862C9121502C93C6892091A0
:100A900051012C1710F4C093510129E02C9FE00163
:100AA0001124C25ADE4F0980DA81C02DD583C48358
:100AB0004C815D8157834683AC81BD8113969C93A5
:100AC0008E9312979D838C83A689A29FD0011124B7
:100AD000A25ABE4FB387A2878C918F5F8C93A0914F
:100AE0009101B0919201968956968C91891730F5B3
:100AF00081E080934701DF91CF910895A091490152
:100B0000B0914A01B787A68714962D913C9115970D
:100B1000318B208B1496CD91DC9115979B838A8322
:100B200015969C938E93149788E491E0958B848B13
:100B3000809148018F5F80934801D1CF80E0DBCF67
:100B40000FB6F8940F928091B1019091B2010F907D
:100B50000FBE0895809152018F5F809352010895D6
:100B60000FB6F8940F92FC01928D0F900FBE81E0AA
:100B7000911180E00895EF92FF920F931F93CF930E
:100B8000DF93EC010FB6F8940F921E8D7C0181E18A
:100B9000E80EF11C01E01116D4F08FEF8E8F0F904C
:100BA0000FBE0FB6F8940F921D8D7E0188E0E80EFF
:100BB000F11C01E01116B4F08FEF8D8F0F900FBE76
:100BC000DF91CF911F910F91FF90EF900895898948
:100BD000882319F3C7010E94FB0481110093470188
:100BE0001150D9CF8885882339F3C7010E94FB04AF
:100BF0008111009347011150DDCFCF93DF93FC01AA
:100C0000A085B1858281938124813581EC013D836A
:100C10002C83C481D5819B838A8311968D919C916D
:100C200012978E179F0721F41296DC93CE9311979B
:100C3000118610868C9181508C93DF91CF9108950D
:100C40000F931F93CF93DF938C01FB0180819181E0
:100C5000D80113968F3F9807F1F4E801AF81B8856A
:100C600012968D919C91139793838283EC01FD835F
:100C7000EC83B583A4831396FC93EE9312971187AC
:100C80000087F80180818F5F8083DF91CF911F9172
:100C90000F910895D90112962D913C911397E90176
:100CA0004881598184179507A8F7DACFFC0173832F
:100CB0006283918780874617570790F0421B530B3A
:100CC0008485958548175907C8F4BF016E5F7F4F2B
:100CD00080919701909198010E94200680E00895EC
:100CE0004217530718F46217730740F4BF016E5F91
:100CF0007F4F8091990190919A01EECF81E0089504
:100D0000EF92FF920F931F93CF93DF93EC018B0130
:100D10007A016C857D85600F711F9801A701CE0156
:100D20000E945606811107C0DF91CF911F910F914C
:100D3000FF90EF9008958C859D85080F191FE88915
:100D4000F989CE010995E5CFEF92FF920F931F939A
:100D5000CF93DF938C017B01E0919901F0919A018F
:100D60000580F681E02DC681D781CE0102960E94D2
:100D7000FD058A8982FF0FC0A701B801CE010E943C
:100D80008006E889F989CE01DF91CF911F910F91FB
:100D9000FF90EF9009948E7F8A8BF3CFE0919901B9
:100DA000F0919A01808181110DC0809197019091FD
:100DB000980190939A0180939901F0939801E093A0
:100DC000970108950580F681E02D6FEF7FEF808118
:100DD00091810E94A406E2CFBF92CF92DF92EF9260
:100DE000FF920F931F93CF93DF93EC01B62EC09029
:100DF000B101D090B20100918D0110918E01E0906F
:100E00008B01F0908C01809191019091920102965A
:100E10000E94FD05CF3FDC0709F042C0BB2009F46A
:100E20003FC0E0918301F0918401A0919101B091C4
:100E300092011596FC93EE931497A0919101B091B5
:100E400092018481958117969C938E931697809139
:100E5000910190919201A481B581029613969C9381
:100E60008E931297809191019091920102969583B1
:100E70008483E0919101F091920182E891E093875F
:100E80008287809182018F5F80938201DF91CF9171
:100E90001F910F91FF90EF90DF90CF90BF9008953A
:100EA000CC0DDD1DE0919101F0919201D383C283BD
:100EB00060919101709192016E5F7F4FCC15DD05BD
:100EC00060F4C701DF91CF911F910F91FF90EF90D8
:100ED000DF90CF90BF900C942006C8010E9420069E
:100EE0008091B4019091B501C817D90778F6D093D5
:100EF000B501C093B401CACFFC01039692838183EC
:100F00002FEF3FEF348323839683858390878783F6
:100F1000108208950F920FB6F8940F921F92112429
:100F20002F923F924F925F926F927F928F929F92F9
:100F3000AF92BF92CF92DF92EF92FF920F931F93E7
:100F40002F933F934F935F936F937F938F939F93D1
:100F5000AF93BF93CF93DF93EF93FF93A091910152
:100F6000B09192010DB60D920EB60D928091520184
:100F7000882321F081E08093470161C010924701EE
:100F8000A0919101B0919201E0919101F0919201B3
:100F90002D913C918789908D82179307A8F08091BD
:100FA0009101909192018091910190919201259AE5
:100FB0002D9A2FEF87EA91E6215080409040E1F78B
:100FC00000C000001D9AF5CF2091510189E001C0B9
:100FD0002150422F50E0849FF001859FF00D112495
:100FE000E25AFE4F9081992399F3A181B281129622
:100FF0006D917C9172836183289FC00111248F5968
:101000009E4F6817790721F48581968192838183A9
:1010100089E0849FF001859FF00D1124E25AFE4F74
:101020000180F281E02D86819781909392018093D7
:101030009101209351018091910190919201A09191
:101040009101B0919201CD91CDBFDD91DEBFFF91B5
:10105000EF91DF91CF91BF91AF919F918F917F9150
:101060006F915F914F913F912F911F910F91FF9041
:10107000EF90DF90CF90BF90AF909F908F907F9038
:101080006F905F904F903F902F901F900F900FBEEA
:101090000F9008958F929F92BF92CF92DF92EF921E
:1010A000FF920F931F93CF93DF930FB6F8940F9295
:1010B0008091520181508093520180915201882386
:1010C00079F080E00F900FBEDF91CF911F910F91CB
:1010D000FF90EF90DF90CF90BF909F908F900895FA
:1010E00080915401882369F3E0904D01F0904E0106
:1010F000F0E0E0E039E041E08091480181115EC01C
:10110000EF2B11F00E94E304E0904501F0904601BE
:10111000E114F10409F47DC189E0D82ECC24C394F4
:101120000FEF1FEF80915201811161C1C091B10198
:10113000D091B2014E018FEF881A980A9092B201B5
:101140008092B10181149104B9F480918D01909144
:101150008E0120918B0130918C0130938E01209370
:101160008D0190938C0180938B01809193018F5F0F
:10117000809393010E94E3048091B4019091B501A2
:10118000B12C8816990608F026C1E0919101F091E2
:101190009201E689DE9EF0011124E25AFE4F808121
:1011A000823010F0BB24B39480914701811103C0B9
:1011B000BB2009F425C1C092470122C1D701169670
:1011C000ED91FC91A489B58966857785808991899F
:1011D000EB019D838C8380899189EC017B836A83F9
:1011E000BF01645F7F4F11960D911C9112970617F6
:1011F000170721F412969C938E931197158A148ADF
:101200008C9181508C93A285B38584819581668170
:101210007781EC017D836C8366817781EB019B8311
:101220008A83CF01029611960D911C91129708178F
:10123000190721F412967C936E93119713861286E8
:101240002C9121502C93A689209151012A1710F43A
:10125000A09351013A9FD0011124A25ABE4F11967A
:101260000D90BC91A02DB583A48314966D917C91B3
:1012700015977783668314966D917C911597EB0192
:101280009B838A8315969C938E9314979689939F3C
:10129000D0011124A25ABE4FB387A2878C918F5FD1
:1012A0008C93A0919101B091920156968C918917DF
:1012B00008F022CF409347011FCFE0918D01F091BC
:1012C0008E010580F681E02D0680F781E02D828178
:1012D00093818816990628F49093B5018093B40100
:1012E00054CFC285D3858481958126813781DC01E5
:1012F00015963C932E93149726813781D901139626
:101300009C938E931297CF01029649815A81481778
:10131000590711F43A8329831386128628812150B4
:101320002883A489B5891097F9F0268537854089E7
:101330005189E9015D834C8340895189EA013B83EE
:101340002A8311966D917C9112979F01245F3F4FE4
:101350006217730721F412965C934E931197158AC6
:10136000148A2C9121502C93A689209151012A177F
:1013700010F4A0935101DA9ED0011124A25ABE4F5D
:1013800011960D90BC91A02DB583A48314962D9138
:101390003C9115973783268314962D913C91159790
:1013A000E9019B838A8315969C938E931497968963
:1013B0009D9DD0011124A25ABE4FB387A2878C9164
:1013C0008F5F8C93E0919101F0919201868989174A
:1013D00010F4BB24B394E0918D01F0918E018081D3
:1013E00081116BCF1093B5010093B401CECE8091E3
:1013F00045019091460101969093460180934501E5
:10140000D1E0ED1AF10809F08DCE1092460110924C
:10141000450180914701882309F453CE80919101C1
:10142000909192010E948A0781E04CCECF93DF9386
:10143000EC010FB6F8940F92809154018F5F809366
:1014400054018091910190919201892B09F080C003
:10145000D0939201C093910180915401813081F524
:101460008EE591E00E947C0787E691E00E947C0770
:1014700080E791E00E947C0789E791E00E947C0769
:101480008BE391E00E947C0782E391E00E947C075D
:1014900088E491E00E947C0785E591E00E947C074A
:1014A00082E891E00E947C078BE391E090938E01AB
:1014B00080938D0182E391E090938C0180938B0166
:1014C000809144018F5F80934401AE8980915101E6
:1014D0008A1710F4A093510129E02A9FD00111240A
:1014E000A25ABE4F11960D90BC91A02DBD83AC8326
:1014F00014968D919C9115979F838E831496ED91F0
:10150000FC911597CE0102969383828315969C9346
:101510008E931497EE89E29FF0011124E25AFE4F58
:10152000FB87EA8780818F5F80830F900FBE809159
:10153000B301882351F0E0919101F09192019689D5
:101540008E89981710F40E948A07DF91CF91089531
:101550008091B3018111B4CFE0919101F09192019A
:1015600096898E89891708F4ABCFD0939201C093E6
:101570009101A6CF0F920FB6F8940F921F921124EB
:101580002F923F924F925F926F927F928F929F9293
:10159000AF92BF92CF92DF92EF92FF920F931F9381
:1015A0002F933F934F935F936F937F938F939F936B
:1015B000AF93BF93CF93DF93EF93FF93A0919101EC
:1015C000B09192010DB60D920EB60D9213BE8091A0
:1015D00052018111F9C08091B1019091B20101963F
:1015E0009093B2018093B101009781F520918D0114
:1015F00030918E0140918B0150918C0150938E015E
:1016000040938D0130938C0120938B0120919301A5
:101610002F5F20939301E0918D01F0918E01208145
:10162000211107C02FEF3FEF3093B5012093B40194
:101630000DC0E0918D01F0918E010580F681E02DC5
:10164000208131813093B5012093B4012091B40100
:101650003091B5018217930710F420E0A1C020E07B
:1016600039E0D32EE0918D01F0918E01308131115E
:1016700007C08FEF9FEF9093B5018093B40190C0A6
:10168000E0918D01F0918E010580F681E02D0680BC
:10169000F781E02D428153818417950728F45093F8
:1016A000B5014093B4017CC0A285B38544815581C6
:1016B00066817781EA017D836C8366817781EB01A6
:1016C0005B834A83AF014E5F5F4F11960D911C9172
:1016D00012970417150721F412967C936E931197B5
:1016E000138612863C9131503C93A489B58910979A
:1016F000F9F06685778500891189EB011D830C83DC
:1017000000891189E8017B836A831196ED90FC9032
:101710001297BF01645F7F4FE616F70621F4129619
:101720001C930E931197158A148A3C9131503C9367
:10173000A689309151013A1710F4A0935101DA9E15
:10174000D0011124A25ABE4F11960D90BC91A02D2C
:10175000B583A48314966D917C91159777836683E6
:1017600014966D917C911597EB015B834A831596D6
:101770005C934E93149746894D9DD0011124A25A33
:10178000BE4FB387A2873C913F5F3C93E0919101AC
:10179000F09192013689341708F064CF21E062CFCE
:1017A000E0919101F0919201E689D9E0ED9FF0017D
:1017B0001124E25AFE4F8081823008F021E08091AE
:1017C000470181110EC00AC08091450190914601E8
:1017D000019690934601809345016CC0222309F441
:1017E00069C080915201882321F081E080934701F4
:1017F00061C010924701A0919101B0919201E091D6
:101800009101F09192012D913C918789908D8217E1
:101810009307A8F08091910190919201809191019C
:1018200090919201259A2D9A2FEF87EA91E6215007
:1018300080409040E1F700C000001D9AF5CF209154
:10184000510189E001C02150422F50E0849FF001F6
:10185000859FF00D1124E25AFE4F9081992399F350
:10186000A181B28112966D917C9172836183289FD0
:10187000C00111248F599E4F6817790721F4858183
:1018800096819283818389E0849FF001859FF00D8A
:101890001124E25AFE4F0180F281E02D868197816A
:1018A0009093920180939101209351018091910135
:1018B00090919201A0919101B0919201CD91CDBFF3
:1018C000DD91DEBFFF91EF91DF91CF91BF91AF919D
:1018D0009F918F917F916F915F914F913F912F9148
:1018E0001F910F91FF90EF90DF90CF90BF90AF903E
:1018F0009F908F907F906F905F904F903F902F9030
:101900001F900F900FBE0F900895CF93DF93009715
:1019100051F0EC010E94AA05CE010E941B11DF913B
:10192000CF910C944A08DF91CF910895CF93DF9324
:1019300000D000D01F92CDB7DEB785E0B82ECE0123
:1019400001967C01E0919901F0919A011081D12CCE
:10195000C12C112329F00580F681E02DC080D180B3
:101960000E94AA050E94A0054C0180918F019091D0
:1019700090018816990608F089C00E94CE069092C0
:10198000900180928F010E944A08D701EB2D1D9291
:10199000EA95E9F70091AF011091B0010FB6F89404
:1019A0000F92D8015A96DC905A97DD2009F42FC186
:1019B0005C964C915C974423F9F050E016968D911B
:1019C0009C911797840F951F17969C938E9316974B
:1019D00014962D913C9115978217930738F08D91AD
:1019E0009C91119717969C938E931697F801668198
:1019F0007781C7010E941912DA94D8015A96DC92B5
:101A00005A9718968C91882339F0C80108960E943D
:101A1000FB0481110E948A070F900FBEA980A7FCCA
:101A2000B9CF0C811D81D8011A968D919C91892B7B
:101A300021F0C80102960E94FD050E94A0056C01DC
:101A400080918F0190919001C816D90610F40E94E0
:101A5000CE06D0929001C0928F01EFEFEA0DE930EF
:101A600008F098CF0E2E000CFF0BE35CF24FD8016C
:101A700052968C9152970C941312C00DC00D030E08
:101A8000EB0DFD0DC00DC00D030EEB0D90929001FE
:101A900080928F01112351F08C149D0470F00E94EC
:101AA0004A08B401C6010E94A4066FCFE0919701D5
:101AB000F091980161E08081811160E00091AF01B7
:101AC0001091B0010FB6F8940F92D8015D968C91E9
:101AD0005D978F3F11F45D961C92F801868D8F3FC4
:101AE00009F4168E0F900FBED8015A968C915A9712
:101AF00081113CC05296ED91FC91A0919101B09161
:101B000092011F96FC93EE931E97A0919101B091C4
:101B100092018481958151969C938E9350978091E8
:101B2000910190919201A481B5810C9613969C939A
:101B30008E93129780919101909192010C969583CA
:101B40008483E0919101F0919201C8014196958BB7
:101B5000848BF80181898F5F818BC601881999096F
:101B6000662311F08FEF9FEF0E94EC06C8010E94E0
:101B7000BB050E944A08811108CF0E948A0705CF41
:101B80008160F801828B8A809B8064857585680DF1
:101B9000791D9401A601C8010E945606882309F404
:101BA000F9CED80152968C91529782FF10C01C96A4
:101BB0006D917C91680D791DA601C8010E94800677
:101BC000D8015096ED91FC91C8010995E3CE8E7F26
:101BD000F801828BF5CF816052968C9352976A817F
:101BE0007B811D967C936E931C976C0D7D1D9601D9
:101BF000A601C8010E945606CDCE81FD04C0C801D1
:101C00000E94850CC7CE8E7FF801828BC3CE0F90C9
:101C10000FBE98CE00E010E08091530181110CC0FE
:101C200080915E01823010F00E948A070115110533
:101C300099F30E94DF01F0CF0FB6F8940F92E09174
:101C40005A01F0915B01C681D781CE0102960E94B4
:101C5000FD0580915401815080935401809153017E
:101C60008150809353010F900FBE8F89988D0E94F1
:101C7000850CCE010E94850CCFCFCF93DF93EC0172
:101C80000E94AA05CE010E947F10EC010E944A0822
:101C9000209769F4259A2D9A2FEF80E792E0215042
:101CA00080409040E1F700C000001D9AF5CFCE01C2
:101CB000DF91CF9108957F928F929F92AF92BF92C2
:101CC000CF92DF92EF92FF920F931F93CF93DF9308
:101CD000982EA92E762E872E7A01B22ECA010E9446
:101CE0003D0E6C01D0E0C0E0892B09F460C080E3B8
:101CF00090E00E943D0EEC01892B09F455C080E371
:101D0000DE011D928A95E9F7D88ECF8AA70165EA90
:101D100070E0C6010E942212B1E0EB1AF108EF89CF
:101D2000F88DEE0DFF1D672D782DCE0149969B0194
:101D3000205F3F4FDB014D91BD01DC014D93CD0193
:101D4000AB0141505109DA014C91442319F0261797
:101D5000370781F718A6BE8AB9A61B861A861D8A80
:101D60001C8AD987C88784E090E08B1991099D87E8
:101D70008C87DB8BCA8B9082DF011197AC92119715
:101D80001C92119780E88C9311971C9257971C9284
:101D900011971C92B397F983E8830115110539F067
:101DA000F801D183C08303C0C6010E94850CCE0117
:101DB000DF91CF911F910F91FF90EF90DF90CF9027
:101DC000BF90AF909F908F907F9008950E94BA0A25
:101DD00018951092C2011092C10188EE93E0A0E024
:101DE000B0E08093C3019093C401A093C501B09368
:101DF000C6018BE091E09093C0018093BF0185EC18
:101E000090E09093CC018093CB0184EC90E0909390
:101E1000CE018093CD0180EC90E09093D00180932F
:101E2000CF0181EC90E09093D2018093D10182ECBC
:101E300090E09093D4018093D30186EC90E090934E
:101E4000D6018093D5011092D8011092D901109239
:101E5000DA011092DB01809180028C3098F491E0DD
:101E6000980F909380028093810290E0FC01EE0F26
:101E7000FF1FE80FF91FE45AFD4F88EB9BE09283A8
:101E8000818308958FEF809381020895CF93DF932C
:101E9000CDB7DEB760970FB6F894DEBF0FBECDBFEB
:101EA000789484B5826084BD84B5816084BD85B535
:101EB000826085BD85B5816085BD80916E00816041
:101EC00080936E00109281008091810082608093E7
:101ED00081008091810081608093810080918000E9
:101EE0008160809380008091B10084608093B10014
:101EF0008091B00081608093B00080917A0084600E
:101F000080937A0080917A00826080937A00809139
:101F10007A00816080937A0080917A008068809353
:101F20007A001092C10020910501309106018FEFD7
:101F300098E0821B930B90930201809301010E9411
:101F4000C102A2E2B1E0FE013196BF018D91819301
:101F5000882321F081E0A233B807C1F705E911E039
:101F600020E040EC50E08AE09EE00E945B0E00978B
:101F700009F4B9C00E94160A0FB6F8940F92809126
:101F8000AF019091B001892B09F050C084EA91E033
:101F90000E947C078BE991E00E947C0784EA91E033
:101FA00090939A01809399018BE991E09093980125
:101FB0008093970181E590E00E943D0E8C0100978F
:101FC00089F14F96F801918380838AE0838F85E0C1
:101FD000848F0FB6F8940F9280819181238D448D68
:101FE000BC01249F600D711D112475836483128EC2
:101FF000938382832150330B429FB001439F700D26
:102000001124860F971F978386838FEF858F868F86
:10201000C80108960E947C07C80141960E947C076F
:102020000F900FBE1093B0010093AF010F900FBE41
:102030008091AF019091B001892B09F454C00DEA51
:1020400011E023E04CE550E067E271E086E99CE0B6
:102050000E945B0E009709F446C00E94160AF8948D
:102060008FEF9FEF9093B5018093B40181E080934F
:10207000B3011092B2011092B101A89588E190ECE1
:102080000FB6F894A895809360000FBE90936000FF
:10209000A0919101B0919201CD91CDBFDD91DEBFB4
:1020A000FF91EF91DF91CF91BF91AF919F918F9170
:1020B0007F916F915F914F913F912F911F910F9160
:1020C000FF90EF90DF90CF90BF90AF909F908F9058
:1020D0007F906F905F904F903F902F901F900F9048
:1020E0000FBE0F900895809100010E94C10200E090
:1020F00010E001151105E9F30E94DF01FACF0F93FB
:102100001F93CF93DF938230910510F482E090E02B
:10211000E0918602F091870230E020E0B0E0A0E09C
:10212000309799F42115310509F44AC0281B390B61
:1021300024303105D8F58A819B816115710589F1BB
:10214000FB0193838283FE0111C040815181028192
:10215000138148175907E0F04817590799F4109769
:1021600061F012960C93129713961C933296CF013E
:10217000DF91CF911F910F910895009386021093E4
:102180008702F4CF2115310551F04217530738F07B
:10219000A901DB019A01BD01DF01F801C1CFEF0107
:1021A000F9CF9093870280938602CDCFFE01E20F94
:1021B000F31F819391932250310939832883D7CF1C
:1021C0002091840230918502232B41F42091030158
:1021D0003091040130938502209384022091010103
:1021E000309102012115310541F42DB73EB74091E0
:1021F000050150910601241B350BE0918402F091FA
:102200008502E217F307A0F42E1B3F0B28173907AE
:1022100078F0AC014E5F5F4F2417350748F04E0F42
:102220005F1F5093850240938402819391939FCFC7
:10223000F0E0E0E09CCFCF93DF930097E9F0FC0162
:10224000329713821282A0918602B0918702ED012B
:1022500030E020E01097A1F420813181820F931F9C
:1022600020918402309185022817390709F061C056
:10227000F0938502E0938402DF91CF910895EA0103
:10228000CE17DF07E8F54A815B819E0141155105B4
:10229000B1F7E901FB83EA8349915991C40FD51F36
:1022A000EC17FD0761F4808191810296840F951FE0
:1022B000E90199838883828193819B838A83F0E0FB
:1022C000E0E012968D919C9113970097B9F52D91AE
:1022D0003C911197CD010296820F931F20918402A9
:1022E000309185022817390739F6309751F5109249
:1022F000870210928602B0938502A0938402BCCF1D
:10230000D383C28340815181840F951FC817D90799
:1023100061F44E5F5F4F88819981480F591F518347
:1023200040838A819B81938382832115310509F043
:10233000B0CFF0938702E09386029ECFFD01DC01CF
:10234000C0CF13821282D7CF052E97FB1EF40094C4
:102350000E94BB1157FD07D00E94D61107FC03D085
:102360004EF40C94BB1150954095309521953F4FFC
:102370004F4F5F4F089590958095709561957F4F71
:102380008F4F9F4F08950E94F811A59F900DB49F05
:10239000900DA49F800D911D11240895B7FF0C94FA
:1023A000C3110E94C311821B930B0895A1E21A2E40
:1023B000AA1BBB1BFD010DC0AA1FBB1FEE1FFF1FE9
:1023C000A217B307E407F50720F0A21BB30BE40B39
:1023D000F50B661F771F881F991F1A9469F7609580
:1023E0007095809590959B01AC01BD01CF0108953A
:1023F000A29FB001B39FC001A39F700D811D112446
:10240000911DB29F700D811D1124911D0895991B7E
:1024100079E004C0991F961708F0961B881F7A95DB
:10242000C9F780950895EE0FFF1F0590F491E02DF8
:102430000994FB01DC0102C001900D924150504013
:10244000D8F70895DC0101C06D9341505040E0F78A
:062450000895F894FFCF8F
:1024560003000088028000000000000E026B019855
:10246600017F02C901A701BB010D0A0053657276FF
:102476006F0049444C4500546D722053766300004A
:00000001FF
