:100000000C94BD000C94E5000C94E5000C94E50004
:100010000C94E5000C94E5000C94D7180C94E500C2
:100020000C94E5000C94E5000C94E5000C940A0E89
:100030000C94E5000C94E5000C94E5000C94E500AC
:100040000C94680D0C94E5000C94D80D0C94B20D32
:100050000C94E5000C94E5000C94E5000C94E5008C
:100060000C94E5000C94E50000000000230026003D
:1000700029005363616E206361726420746F206F86
:1000800070656E20676174652E00417574686F72CB
:10009000697A6564205549443A2046422035452016
:1000A0004635203034005246494420467265655238
:1000B000544F5320676174652072656164792E0026
:1000C0004761746520697320636C6F7365642E00EB
:1000D000436C6F73696E6720676174652E2E2E0006
:1000E00047617465206973206F70656E2E004163EF
:1000F000636573732064656E6965642E0041636394
:10010000657373206772616E7465642E204F70652D
:100110006E696E6720676174652E2E2E00436172D2
:1001200064205549443A20000000000024002700C4
:100130002A0000000000250028002B00040404040D
:100140000404040402020202020203030303030381
:10015000010204081020408001020408102001025E
:10016000040810200000000800020100000304073A
:100170000000000000000000DA1811241FBECFEFBD
:10018000D8E0DEBFCDBF11E0A0E0B1E0E0E8F8E3E9
:1001900002C005900D92A234B107D9F722E0A2E483
:1001A000B1E001C01D92A13BB207E1F710E0CDEB39
:1001B000D0E004C02197FE010E94281CCC3BD1074F
:1001C000C9F70E945D190C943E1C0C9400008CBD74
:1001D0009DBD0895833081F028F4813099F08230FC
:1001E000A9F008958730A9F08830C9F08430B1F4BF
:1001F000809180008F7D03C0809180008F778093F5
:100200008000089584B58F7784BD089584B58F7D6F
:10021000FBCF8091B0008F778093B00008958091DC
:10022000B0008F7DF9CF1F93CF93DF93282F30E05D
:10023000F901EC59FE4F8491F901E05BFE4FD49136
:10024000F901E45CFE4FC491CC23A9F0162F811173
:100250000E94EA00EC2FF0E0EE0FFF1FEE5CFE4F75
:10026000A591B4918FB7F894EC91111108C0D09575
:10027000DE23DC938FBFDF91CF911F910895DE2B9A
:10028000F8CFCF93DF9390E0FC01E05BFE4F249129
:10029000845C9E4FFC0184918823D1F090E0880F0C
:1002A000991FFC01E85DFE4FA591B491FC01EE5C45
:1002B000FE4FC591D49161110EC09FB7F8948C91F7
:1002C000E22FE0958E238C932881E223E8839FBF61
:1002D000DF91CF9108958FB7F894EC91E22BEC93D6
:1002E0008FBFF6CF3FB7F894809172019091730160
:1002F000A0917401B091750126B5A89B05C02F3F50
:1003000019F00196A11DB11D3FBFBA2FA92F982F3B
:100310008827BC01CD01620F711D811D911D42E036
:10032000660F771F881F991F4A95D1F708958F92FE
:100330009F92AF92BF92CF92DF92EF92FF926B01AA
:100340007C010E9472014B015C01C114D104E104E3
:10035000F104B9F00E947201681979098A099B09B0
:10036000683E73408105910580F321E0C21AD108EF
:10037000E108F10888EE880E83E0981EA11CB11CEC
:10038000E4CFFF90EF90DF90CF90BF90AF909F9021
:100390008F900895AF92BF92CF92DF92EF92FF922B
:1003A0000F931F93CF93DF936C017B018B01040F9D
:1003B000151FEB015E01AE18BF08C017D10759F039
:1003C0006991D601ED91FC910190F081E02DC6017B
:1003D0000995892B79F7C501DF91CF911F910F9175
:1003E000FF90EF90DF90CF90BF90AF900895FC0109
:1003F000538D448D252F30E0842F90E0821B930B8A
:10040000541710F0CF96089501970895FC01918D2F
:10041000828D981761F0A28DAE0FBF2FB11D5D9632
:100420008C91928D9F5F9F73928F90E008958FEFD4
:100430009FEF0895FC01918D828D981731F0828D88
:10044000E80FF11D858D90E008958FEF9FEF0895DF
:10045000FC01918D228D892F90E0805C9F4F821B43
:1004600091098F739927089585ED91E00E942802E4
:1004700021E0892B09F420E0822F08950E943402A4
:1004800081110C940000089580E090E0892B11F018
:100490000C943E020895FC01A48DA80FB92FB11D44
:1004A000A35ABF4F2C91848D90E001968F739927AA
:1004B000848FA689B7892C93A089B1898C91837088
:1004C00080648C93938D848D981306C00288F38981
:1004D000E02D80818F7D80830895EF92FF920F93AE
:1004E0001F93CF93DF93EC0181E0888F9B8D8C8DE0
:1004F00098131AC0E889F989808185FF15C09FB7D4
:10050000F894EE89FF896083E889F9898081837096
:10051000806480839FBF81E090E0DF91CF911F9145
:100520000F91FF90EF900895F62E0B8D10E00F5F66
:100530001F4F0F731127E02E8C8D8E110CC00FB63C
:1005400007FCFACFE889F989808185FFF5CFCE01D4
:100550000E944B02F1CFEB8DEC0FFD2FF11DE35A02
:10056000FF4FF0829FB7F8940B8FEA89FB89808157
:100570008062CFCF0F931F93CF93DF938C01D0E096
:10058000C0E0F801EC0FFD1F6491662341F085ED9A
:1005900091E00E946D02892B11F02196F2CFCE01DD
:1005A000DF91CF911F910F910895CF93DF93EC01CD
:1005B000888D8823B9F0AA89BB89E889F9898C914B
:1005C00085FD03C0808186FD0DC00FB607FCF7CF07
:1005D0008C9185FFF2CF808185FFEDCFCE010E9407
:1005E0004B02E9CFDF91CF9108958F929F92AF9206
:1005F000BF92FF920F931F93CF93DF93FC01F08084
:100600008BE08F1508F44AC0828108E512E0081BD0
:10061000110987FD1395000F111F000F111F818114
:10062000C8E8D0E0C81BD10987FDD395CC0FDD1FEA
:10063000CC0FDD1F4E010D2E000CAA08BB0898013F
:10064000012E000C440B550B281939094A095B0986
:10065000DB010E94E31B24EB30E040E050E00E940D
:10066000B91B820E931EA41EB51E8C169D062CF07F
:10067000E801801691060CF4E4012297CC0FDD1FEF
:100680002FB7F8948F2D90E0FC01EE0FFF1FE80FBD
:10069000F91FEE58FD4FD283C1832FBFDF91CF9159
:1006A0001F910F91FF90BF90AF909F908F900895F2
:1006B0001F93CF93DF93EC01162F88818C3008F0C5
:1006C0004EC061E0812F0E9441018881282F30E0D7
:1006D000F901EE0FFF1FE20FF31FEE58FD4F1F73DE
:1006E0006081607C612B608319821A822CE0622F0A
:1006F0000E941C1C829FB001112430E020E0AB015D
:10070000420F531FFA01EE0FFF1FE40FF51FEE58C3
:10071000FD4F908196FD16C02F5F3F4F2C30310565
:1007200071F781110FC01092800082E080938100E8
:100730001092850010928400B19A80916F008260BF
:1007400080936F00E8818E2F90E0FC01EE0FFF1F79
:10075000E80FF91FEE58FD4F808180648083888107
:10076000DF91CF911F910895BC016E5F7F4FDC0137
:10077000ED91FC910190F081E02D40E0099591E030
:10078000811190E0892F089508958EBD00000DB469
:1007900007FEFDCF8EB50895DF92EF92FF920F9383
:1007A0001F93CF93DF937C01062FD42E152F80E566
:1007B00090E00E94E70060E0F70186850E94130147
:1007C00082E10E94C503CD2DD12F0C0F1D2F111DCD
:1007D000C017D10721F089910E94C503F9CF61E0CC
:1007E000F7018685DF91CF911F910F91FF90EF90D8
:1007F000DF900C9413011F93CF93DF93EC01162F1E
:1008000080E590E00E94E70060E08E850E94130181
:10081000812F80680E94C50380E00E94C503182FC5
:1008200061E08E850E941301812FDF91CF911F918E
:1008300008950F931F93CF93DF93EC01062F142F8E
:1008400080E590E00E94E70060E08E850E94130141
:10085000802F0E94C503812F0E94C50361E08E8511
:10086000DF91CF911F910F910C941301CF92DF92E2
:10087000EF92FF920F931F93CF93DF93EC016B01E5
:10088000F42E890140E062E00E94190444E06AE02D
:10089000CE010E94190440E864E1CE010E941904CF
:1008A000A6016F2DCE010E94CC0343E062E0CE0191
:1008B0000E9419048FB7F894C0907601D090770108
:1008C000E0907801F09079018FBF89E5C80ED11CC6
:1008D000E11CF11C6AE0CE010E94FB0382FF1BC0F9
:1008E00040E062E0CE010E94190464E4CE010E945F
:1008F000FB03F801808362E4CE010E94FB03F80150
:10090000818380E0DF91CF911F910F91FF90EF9055
:10091000DF90CF9008952FB7F89480917601909151
:100920007701A0917801B09179012FBF8C159D05B9
:10093000AE05BF0578F283E0E5CF2F923F924F924C
:100940005F926F927F928F929F92AF92CF92DF923F
:10095000EF92FF920F931F93CF93DF9300D0CDB709
:10096000DEB74C012B01D42E390180E0E114F104F3
:1009700011F0F70180813C2C329490EF3922380E2F
:1009800040E062E0C4010E9419044FE768E0C4013E
:100990000E94190440E864E1C4010E941904A20104
:1009A0006D2DC4010E94CC03432D6AE1C4010E9455
:1009B00019044CE062E0C4010E9419046AE1C40118
:1009C0000E94FB03482F40686AE1C4010E94190499
:1009D0008FB7F8942090760130907701409078019D
:1009E000509079018FBFF4E22F0E311C411C511C35
:1009F00068E0C4010E94FB03982F907309F0C0C007
:100A000080FF15C083E00F900F90DF91CF911F9171
:100A10000F91FF90EF90DF90CF90AF909F908F90CD
:100A20007F906F905F904F903F902F9008952FB7D9
:100A3000F8948091760190917701A0917801B0911E
:100A400079012FBF82159305A405B50588F2DACF89
:100A50006114710409F469C00115110509F465C038
:100A600064E1C4010E94FB03382EF80180818315E4
:100A700008F480C030823320E1F180E590E00E94EC
:100A8000E70060E0F40186850E9413013A9482E950
:100A90000E94C503CC20B1F08FEF90E09C0102C012
:100AA000220F331FCA94E2F7690182E90E94C5034D
:100AB0009C2D9095F301208192238C21982B90837B
:100AC000CC24C39423014C0C511CC31440F482E980
:100AD0000E94C503F20181932F01C394F6CF80E0F9
:100AE0000E94C503F201808361E0F40186850E94C3
:100AF000130168E1C4010E94FB038770E114F10453
:100B000011F0F701808323FC37C061147104B1F147
:100B10000115110599F1AA2089F1F80140814130B0
:100B200031F4843029F58FEF6ECF80E0ECCF423086
:100B3000F8F081111DC042509E012F5F3F4FB3015D
:100B4000C4010E94360481115ECFF8019081690EC4
:100B5000711CF301329720819981291309C0F1E0BA
:100B60006F1A7108F30120819A81291709F44BCF7C
:100B700087E049CF84E047CF82E045CF80E043CF94
:100B80006CE0C4010E94FB03282E837109F460CF3E
:100B900081E039CF0F931F93CF93DF938C01D62F32
:100BA000C42F0E94FB03C0954C2F48236D2FC80112
:100BB000DF91CF911F910F910C9419048F929F9206
:100BC000AF92CF92EF92FF920F931F93CF93DF9349
:100BD00000D000D01F92CDB7DEB74C0182E08D83EC
:100BE00040E064E2C4010E94190440E066E2C401EE
:100BF0000E94190446E268E4C4010E94190486E2D6
:100C00008B838D818230B0F140E86CE1C4010E9499
:100C1000CA0587E08C83A12CC12CCE0104967C01EF
:100C20008E010B5F1F4F9E012F5F3F4F41E0BE01C2
:100C30006D5F7F4FC4010E949D04982F811117C0E2
:100C40008D818230B9F48C81811114C081E00F90C4
:100C50000F900F900F900F90DF91CF911F910F91F8
:100C6000FF90EF90CF90AF909F908F90089581E08C
:100C7000923069F380E0EBCF2F923F924F925F92D8
:100C80006F927F928F929F92AF92BF92CF92DF929C
:100C9000EF92FF920F931F93CF93DF93CDB7DEB701
:100CA0002D970FB6F894DEBF0FBECDBF16E04135CD
:100CB00008F045C1342E4B013C0140E86CE10E9434
:100CC000CA0583E98983332029F081E0F40190810A
:100CD000953008F480E022242394B12C9B2D990FA9
:100CE000990F990FD32CD91AD7FCD12C32E0882335
:100CF00019F098E89B8333E021E09D2D977009F46B
:100D000020E09D2D959595959595290FC9F094E036
:100D1000811193E0291708F4922FEB2DF0E0319622
:100D2000E80DF91D232F4191A1E0B0E0AC0FBD1FEC
:100D3000A20FB11D4C932F5F422F431B491798F30D
:100D4000882311F0F8E0DF0E8FE18D150CF082C0E2
:100D500090E79A838B819C8189279D8189279E8139
:100D600089278F839E01285F3F4F47E0BE016F5F59
:100D70007F4FC3010E943604182F8111E0C01A86EC
:100D8000E3E0EB87DC86CE0107962C0199E09D8796
:100D9000CA844C2D4295407F4C0D6AE1C3010E94EC
:100DA0001904A12CCE010A967C018E01055F1F4F0C
:100DB00092014D85BE016F5F7F4FC3010E949D046C
:100DC000182F823009F065C06CE1C3010E94FB035B
:100DD00085FDB5C08F7109F480E2282F30E04D2DDC
:100DE000DD0C550B421753070CF09DC0D82EE82F91
:100DF000E595E595E595EF5F982F977081E009F40B
:100E000080E0E80F81E090E08C0F9D1F8E0F911D18
:100E1000FC01215031092770332781E090E002C0A6
:100E2000880F991F2A95E2F79C018081822B80838D
:100E30008BCF85E98983332031F081E0F401908103
:100E4000983008F04BCF80E049CF87E9898326E0CE
:100E5000B22EF9CF9D2D97709A878D2D859585950A
:100E600085958E5F282F2295207F290F2A8321E0E8
:100E7000911101C020E0280F2D8744244394512C68
:100E80004C0E5D1E480E511CE9E0E81BEB87DC862A
:100E90007FCF811154C080E2D82E9C8590320CF413
:100EA00057CF8B81883809F040C083E093E0EB2D69
:100EB000F0E03196E80DF91D980FA1E0B0E0AC0F1D
:100EC000BD1FA80FB11D2C9121938F5F8913F5CF02
:100ED000BB84E3E0BE124DC08A8581114AC09E01E9
:100EE0002D5F3F4F41E0B201C3010E943604182F2D
:100EF000811125C09B81F201818198133CC09C81A6
:100F00008281981338C0808182FF12C02394F2E05E
:100F10002F1609F48ECF83E0281609F496CF91E0BE
:100F2000291609F4CECE15E00AC082E094E0BFCFC6
:100F3000F4018387822D880F820D8F5F8083812F3C
:100F40002D960FB6F894DEBF0FBECDBFDF91CF91C7
:100F50001F910F91FF90EF90DF90CF90BF90AF90D7
:100F60009F908F907F906F905F904F903F902F90C9
:100F7000089511E0E4CF17E0E2CF42E050E063E2F1
:100F800071E085ED91E00C94CA01CF93DF930E944C
:100F9000BA02EC010E94BD078C0F9D1FDF91CF911B
:100FA0000895CF93DF93CDB7DEB7A1970FB6F8942E
:100FB000DEBF0FBECDBF912C812C30E5532E48E211
:100FC000D42EBB24B39453E0452E0E94830F3C01E2
:100FD00080914701882359F0809147018150809387
:100FE000470180914701811102C0109246018DE9AD
:100FF00092E00E94DE05882309F4C9C08DE992E0E1
:101000000E94B403882309F4C2C08DE191E00E94DC
:10101000BA02C12C80919F02C81608F04CC00C2D5A
:1010200010E0C80183569D4F7C01FC018381803113
:1010300028F460E385ED91E00E946D02F701838161
:1010400090E0B0E0A0E019A2FE01B196AC01BD01B4
:101050004F7055276627772724E0B695A795979573
:1010600087952A95D1F74A3024F5405D4293009741
:10107000A105B10559F7309769F0DF010D90002007
:10108000E9F71197AD014E1B5F0BBF0185ED91E0B4
:101090000E94CA010F5F1F4F80919F0280171106A7
:1010A00031F02CF060E285ED91E00E946D02C39476
:1010B000B1CF495CDBCF0E94BD0780919F02843095
:1010C00009F081C08091A0028B3F09F07CC0809123
:1010D000A1028E3509F077C08091A202853F09F008
:1010E00072C08091A302843009F06DC08DEF90E052
:1010F0000E94C507B0924601D092470180914501F8
:10110000882371F080914501833051F08091450131
:101110008230C1F443018AEC881A8EEF980A12C01B
:101120006AE570E08AE992E00E94F5026AE570E003
:1011300087E992E00E94F502B09245014301F7E38E
:101140008F0E911C59821A829E012D5F3F4F42E003
:10115000BE016F5F7F4F8DE992E00E9436048111DE
:1011600010C0A12CC12CF12CE12C10E000E030E0EB
:1011700020E044E0BE016F5F7F4F8DE992E00E9466
:101180009D0448E060E18DE992E00E94CA058091EB
:101190004501823011F18330C1F1813079F4681456
:1011A000790460F082E08093450143019AEC891A4A
:1011B0009EEF990A80EE90E00E94C50784E090E0DF
:1011C0000E94F91302CF8EEE90E00E94C50782E0E4
:1011D00080934601D0924701B5CF6814790470F32B
:1011E00070E060E08AE992E00E94F50264EB70E052
:1011F00087E992E00E94F502409245014301E7E34E
:101200008E0E911C80ED90E0D7CF68147904B0F277
:101210001092450180EC90E0CFCF61E08DE00E941C
:1012200013018FE190E00E94F91360E08DE00E94CD
:1012300013018FE190E00E94F913EFCFBF92CF929C
:10124000DF92EF92FF920F931F93CF93DF93E09182
:10125000E501F091E60182E08083E091E101F09107
:10126000E2011082E091E301F091E40180E18083EA
:101270001092ED01E091E901F091EA0186E08083AE
:10128000E091E701F091E801808180618083E09145
:10129000E701F091E801808188608083E091E701B7
:1012A000F091E801808180688083E091E701F0910E
:1012B000E80180818F7D808361E08DE00E944101A3
:1012C00065E070E08AE992E00E94580366E070E011
:1012D00087E992E00E945803CFB7F89480914401C7
:1012E000811127C0E6E4F1E08491EAE5F1E0949110
:1012F000E82FF0E0EE0FFF1FE85DFE4FA591B491DF
:10130000EC91E92321F461E08AE00E94130161E09D
:101310008AE00E9441018CB580618CBD8CB58064EF
:101320008CBD61E08DE00E94410161E08BE00E9494
:101330004101809144018F5F80934401CFBF61E000
:101340008091AB020E94410161E08091AB020E945A
:1013500013018091AC028F3F09F493C160E00E94B9
:1013600041012091AC0230E0F901EC59FE4F84912B
:10137000F901E05BFE4FD491F901E45CFE4FC491AA
:10138000C11170C161E08091AC020E94410160E036
:101390008091AC020E94130183E090E00197F1F785
:1013A00061E08091AC020E94130162E370E080E092
:1013B00090E00E94970140E064E28DE992E00E9493
:1013C000190440E066E28DE992E00E94190446E2C9
:1013D00068E48DE992E00E94190440E864E58DE933
:1013E00092E00E94190449EA66E58DE992E00E94C4
:1013F000190443E068E58DE992E00E94190448EE83
:101400006AE58DE992E00E94190440E46AE28DE900
:1014100092E00E9419044DE362E28DE992E00E949D
:10142000190468E28DE992E00E94FB03982F937003
:10143000933039F0482F436068E28DE992E00E94D2
:10144000190480914B018F5F80934B0140916D0196
:1014500050916E01E0907C01F0907D01C0917A0185
:10146000D0917B01E091D201F091D30182859385E7
:101470006481758126813781DB0115963C932E931B
:10148000149726813781D90113967C936E93129716
:10149000BF016E5F7F4FDC0111960D911C91129779
:1014A0000617170721F412963C932E931197138673
:1014B0001286FC01208121502083CA010696E0910A
:1014C000D201F091D301938382838417950708F0AA
:1014D000F9C00091D2011091D301C8010296D80140
:1014E00012962D913C91FE0133962F3F320709F061
:1014F000E0C0EF81F88522813381D80115963C93B5
:101500002E931497D90115969C938E931497D80116
:101510001796FC93EE931697938382831B96DC9326
:10152000CE931A9788818F5F88830FB6F8940F92B5
:1015300080914B01815080934B0180914B01882316
:1015400009F4FCC080E00F900FBE811102C00E9420
:101550006D113FB7F8948091720190917301A09141
:101560007401B091750126B5A89B05C02F3F19F0F5
:101570000196A11DB11D3FBFBA2FA92F982F882713
:10158000820F911DA11DB11D12E0880F991FAA1F86
:10159000BB1F1A95D1F704E010E020E030E0FFB760
:1015A000F8944091720150917301609174017091AF
:1015B0007501E6B5A89B06C0EF3F21F04F5F5F4F76
:1015C0006F4F7F4FFFBF762F652F542F44274E0F4D
:1015D000511D611D711DC2E0440F551F661F771F0D
:1015E000CA95D1F7481B590B6A0B7B0B483E5340F9
:1015F00061057105A0F201501109210931098851D5
:101600009C4FAF4FBF4F011511052105310539F62C
:1016100086EA90E00E94C5078AE890E00E94C5072C
:1016200082E790E00E94C50710E000E021E040E87A
:1016300050E066E271E08DE099E00E94AF1722E091
:1016400040EC50E06CE271E081ED97E00E94AF1752
:10165000DF91CF911F910F91FF90EF90DF90CF908E
:10166000BF90089581110E94EA00EC2FF0E0EE0F88
:10167000FF1FE859FF4FA591B491EC91ED2309F4B8
:1016800081CE4FE062E08DE992E00E941904C3E050
:1016900062E370E080E090E00E94970162E08DE9F3
:1016A00092E00E94FB0384FF86CEC15089F783CE6F
:1016B000FA0142815381DA016D917C912617370737
:1016C000B8F719CFC091D201D091D3019E012E5FFE
:1016D0003F4F4A815B81F70133964F3F540729F50D
:1016E000D7011796ED91FC91428153815D834C8324
:1016F000DA0115963C932E931497FF83EE83338380
:101700002283FB86EA86E70128812F5F28832091C8
:101710006F01309170018217930708F006CF909304
:10172000700180936F0101CFFB0162817381DB0146
:101730000D911C9140175107B8F7D6CF8091D40175
:10174000882309F4FFCEE0909501F0909601F0E037
:10175000E0E039E041E08091900181116CC0EF2B15
:1017600069F0E0917C01F0917D0180818111E2C0FE
:101770008FEF9FEF9093700180936F01209148014C
:10178000309149012115310509F495C159E0BB2477
:10179000B3946FEF7FEF80914B0181117BC18091FA
:1017A0006D0190916E01019690936E0180936D0191
:1017B000009701F5E0917C01F0917D01A0917A0103
:1017C000B0917B01B0937D01A0937C01F0937B01EC
:1017D000E0937A0140914F014F5F40934F01E091B8
:1017E0007C01F0917D0140814111AEC07093700188
:1017F00060936F01E0916F01F091700140E08E17EE
:101800009F0708F03BC1E091D201F091D301E68936
:101810005E9FF0011124E555FE4F8081823008F073
:1018200041E080914A01811103C0442309F43BC186
:10183000B0924A0138C1D7011696ED91FC91A48966
:10184000B5896685778580899189EB019D838C8335
:1018500080899189EC017B836A83BF01645F7F4F3C
:1018600011960D911C9112970617170721F41296E5
:101870009C938E931197158A148A8C9181508C9326
:10188000A285B3858481958166817781EC017D8312
:101890006C8366817781EB019B838A83CF010296FB
:1018A00011960D911C9112970817190721F41296A1
:1018B0007C936E931197138612862C9121502C9352
:1018C000A6892091CF012A1710F4A093CF013A9F47
:1018D000D0011124A555BE4F11960D90BC91A02D9D
:1018E000B583A48314966D917C9115977783668355
:1018F00014966D917C911597EB019B838A831596C5
:101900009C938E9314979689939FD0011124A5558B
:10191000BE4FB387A2878C918F5F8C93A091D20129
:10192000B091D30156968C91891708F014CF40934B
:101930004A0111CFE0917C01F0917D010580F68193
:10194000E02D8081918116CFE0917C01F0917D01A5
:101950000580F681E02D0190F081E02DF09370017B
:10196000E0936F0147CFE0917C01F0917D0105800C
:10197000F681E02D0680F781E02DA281B3818A17E0
:101980009B0728F4B0937001A0936F013CCFA28510
:10199000B38504811581E680F780E801FD82EC8241
:1019A000C681D7811B830A838F010E5F1F4F11965B
:1019B000ED90FC901297E016F10621F41296DC935C
:1019C000CE93119713861286CC91C150CC93A489E3
:1019D000B5891097F1F0C684D784E088F188E601D4
:1019E000FD82EC82E088F188E701DB82CA821196F1
:1019F000CD90DC901297EF012C96CC16DD0621F4E9
:101A00001296FC92EE921197158A148ACC91C150CD
:101A1000CC93A689B091CF01BA1710F4A093CF014F
:101A20005A9FD0011124A555BE4F11960D90BC911F
:101A3000A02DB583A4831496CD91DC911597D783FF
:101A4000C6831496CD91DC9115971B830A83159656
:101A50001C930E931497C689C59FD0011124A555D8
:101A6000BE4FB387A287EC91EF5FEC93E091D20178
:101A7000F091D301E689EC1708F441E0E0917C0194
:101A8000F0917D01E081E1116ECF70937001609360
:101A90006F01B9CE809148019091490101969093D0
:101AA0004901809348012150310909F074CE109208
:101AB00049011092480180914A01882309F442CDDE
:101AC0008091D2019091D3010E946D1181E03BCDB4
:101AD0001F920F920FB60F9211242F933F938F9363
:101AE0009F93AF93BF938091760190917701A091DE
:101AF0007801B09179013091710123E0230F2D37E6
:101B000058F50196A11DB11D2093710180937601B6
:101B100090937701A0937801B0937901809172013D
:101B200090917301A0917401B09175010196A11D6E
:101B3000B11D8093720190937301A0937401B093CF
:101B40007501BF91AF919F918F913F912F910F9010
:101B50000FBE0F901F90189526E8230F0296A11D27
:101B6000B11DD2CF1F920F920FB60F9211242F9357
:101B70003F934F935F936F937F938F939F93AF9315
:101B8000BF93EF93FF9385ED91E00E944B02FF918D
:101B9000EF91BF91AF919F918F917F916F915F91E5
:101BA0004F913F912F910F900FBE0F901F9018955E
:101BB0001F920F920FB60F9211242F938F939F9322
:101BC000EF93FF93E091E501F091E6018081E091D0
:101BD000EB01F091EC0182FD1BC090818091EE0140
:101BE0008F5F8F732091EF01821741F0E091EE013A
:101BF000F0E0EB52FE4F958F8093EE01FF91EF9155
:101C00009F918F912F910F900FBE0F901F9018955D
:101C10008081F4CF1F920F920FB60F9211242F9351
:101C20003F934F935F936F937F938F939F93AF9364
:101C3000BF93CF93DF93EF93FF9380915001C091B7
:101C40009602D0E087FF24C0109285001092840095
:101C5000809150018F5F8093500180915001082E38
:101C6000000C990B8C179D0724F4809150018C3047
:101C7000C4F18091840090918500049680349C4941
:101C800008F47AC08091840090918500049676C013
:101C900080915001082E000C990B8C179D07C4F6FB
:101CA000E09150018E2FEE0F990BFC01EE0FFF1FFC
:101CB000E80FF91FEE58FD4F808186FFC9CFE091F4
:101CC00050018E2FEE0F990BFC01EE0FFF1FE80F56
:101CD000F91FEE58FD4F808160E08F730E94130161
:101CE000B7CF2091840030918500E09150018E2F74
:101CF000EE0F990BFC01EE0FFF1FE80FF91FEE58D6
:101D0000FD4F81819281820F931F90938900809370
:101D10008800E09150018E2FEE0F990BFC01EE0F21
:101D2000FF1FE80FF91FEE58FD4F808186FF11C09D
:101D3000E09150018E2FEE0F990BFC01EE0FFF1F6B
:101D4000E80FF91FEE58FD4F808161E08F730E940C
:101D50001301FF91EF91DF91CF91BF91AF919F91CF
:101D60008F917F916F915F914F913F912F910F9044
:101D70000FBE0F901F90189580E49CE99093890006
:101D8000809388008FEF80935001E3CFE0917C0136
:101D9000F0917D018081811107C08FEF9FEF9093BB
:101DA000700180936F010895E0917C01F0917D01B5
:101DB0000580F681E02D80819181F1CFCF93DF9373
:101DC000DC011596ED91FC910680F781E02DA48948
:101DD000B5898685978520893189EC013D832C83DF
:101DE000C089D1899B838A83CF010C9611962D914E
:101DF0003C9112972817390721F41296DC93CE9361
:101E00001197158A148A2C9121502C9320914B0103
:101E1000211157C0A285B3858481958126813781A0
:101E2000EC013D832C83C681D7819B838A83CF01BC
:101E3000029611962D913C9112972817390721F49B
:101E40001296DC93CE931197138612862C91215013
:101E50002C93C6892091CF012C1710F4C093CF0189
:101E600029E02C9FE0011124C555DE4F0980DA815D
:101E7000C02DD583C4834C815D8157834683AC815B
:101E8000BD8113969C938E9312979D838C83A68914
:101E9000A29FD0011124A555BE4FB387A2878C9174
:101EA0008F5F8C93A091D201B091D3019689569601
:101EB0008C91891730F581E080934A01DF91CF91B1
:101EC0000895A0919101B0919201B787A6871496C9
:101ED0002D913C911597318B208B1496CD91DC91EF
:101EE00015979B838A8315969C938E93149780E90C
:101EF00091E0958B848B809190018F5F809390010E
:101F0000D1CF80E0DBCF0FB6F8940F9280916D01B6
:101F100090916E010F900FBE089580914B018F5FDD
:101F200080934B0108950FB6F8940F92FC01928DA7
:101F30000F900FBE81E0911180E00895EF92FF9223
:101F40000F931F93CF93DF93EC010FB6F8940F928A
:101F50001E8D7C0181E1E80EF11C01E01116D4F028
:101F60008FEF8E8F0F900FBE0FB6F8940F921D8DCE
:101F70007E0188E0E80EF11C01E01116B4F08FEF4D
:101F80008D8F0F900FBEDF91CF911F910F91FF901A
:101F9000EF9008958989882319F3C7010E94DE0E06
:101FA000811100934A011150D9CF8885882339F3D4
:101FB000C7010E94DE0E811100934A011150DDCF4E
:101FC000CF93DF93FC01A085B18582819381248129
:101FD0003581EC013D832C83C481D5819B838A8329
:101FE00011968D919C9112978E179F0721F412964E
:101FF000DC93CE931197118610868C9181508C932F
:10200000DF91CF9108950F931F93CF93DF938C01AE
:10201000FB0180819181D80113968F3F9807F1F4DD
:10202000E801AF81B88512968D919C9113979383A7
:102030008283EC01FD83EC83B583A4831396FC9328
:10204000EE93129711870087F80180818F5F80835C
:10205000DF91CF911F910F910895D90112962D9183
:102060003C911397E9014881598184179507A8F796
:10207000DACFFC0173836283918780874617570705
:1020800090F0421B530B8485958548175907C8F477
:10209000BF016E5F7F4F80915301909154010E9468
:1020A000031080E008954217530718F4621773076E
:1020B00040F4BF016E5F7F4F8091550190915601B2
:1020C000EECF81E00895EF92FF920F931F93CF938D
:1020D000DF93EC018B017A016C857D85600F711FA8
:1020E0009801A701CE010E943910811107C0DF912C
:1020F000CF911F910F91FF90EF9008958C859D8552
:10210000080F191FE889F989CE010995E5CFEF92EB
:10211000FF920F931F93CF93DF938C017B01E0918C
:102120005501F09156010580F681E02DC681D781D9
:10213000CE0102960E94E00F8A8982FF0FC0A7019C
:10214000B801CE010E946310E889F989CE01DF91C0
:10215000CF911F910F91FF90EF9009948E7F8A8B02
:10216000F3CFE0915501F0915601808181110DC0AE
:1021700080915301909154019093560180935501A1
:10218000F0935401E093530108950580F681E02D0A
:102190006FEF7FEF808191810E948710E2CFBF9225
:1021A000CF92DF92EF92FF920F931F93CF93DF9323
:1021B000EC01B62EC0906D01D0906E0100917C01B3
:1021C00010917D01E0907A01F0907B018091D20125
:1021D0009091D30102960E94E00FCF3FDC0709F0F7
:1021E00042C0BB2009F43FC0E0917F01F091800123
:1021F000A091D201B091D3011596FC93EE93149760
:10220000A091D201B091D3018481958117969C93BE
:102210008E9316978091D2019091D301A481B581BC
:10222000029613969C938E9312978091D20190916F
:10223000D301029695838483E091D201F091D3017A
:102240008EE791E09387828780917E018F5F8093F4
:102250007E01DF91CF911F910F91FF90EF90DF9062
:10226000CF90BF900895CC0DDD1DE091D201F0918B
:10227000D301D383C2836091D2017091D3016E5F89
:102280007F4FCC15DD0560F4C701DF91CF911F9121
:102290000F91FF90EF90DF90CF90BF900C940310C0
:1022A000C8010E94031080916F0190917001C817BE
:1022B000D90778F6D0937001C0936F01CACFFC01A3
:1022C0000396928381832FEF3FEF3483238396839A
:1022D000858390878783108208950F920FB6F894B4
:1022E0000F921F9211242F923F924F925F926F9202
:1022F0007F928F929F92AF92BF92CF92DF92EF9296
:10230000FF920F931F932F933F934F935F936F937E
:102310007F938F939F93AF93BF93CF93DF93EF936D
:10232000FF93A091D201B091D3010DB60D920EB6DC
:102330000D9280914B01882321F081E080934A0126
:1023400061C010924A01A091D201B091D301E091F5
:10235000D201F091D3012D913C918789908D821704
:102360009307A8F08091D2019091D3018091D2017E
:102370009091D301259A2D9A2FEF87EA91E621506B
:1023800080409040E1F700C000001D9AF5CF2091F9
:10239000CF0189E001C02150422F50E0849FF0011D
:1023A000859FF00D1124E555FE4F9081992399F3F7
:1023B000A181B28112966D917C9172836183289F75
:1023C000C001112482559E4F6817790721F4858139
:1023D00096819283818389E0849FF001859FF00D2F
:1023E0001124E555FE4F0180F281E02D8681978111
:1023F0009093D3018093D2012093CF018091D20199
:102400009091D301A091D201B091D301CD91CDBFD4
:10241000DD91DEBFFF91EF91DF91CF91BF91AF9141
:102420009F918F917F916F915F914F913F912F91EC
:102430001F910F91FF90EF90DF90CF90BF90AF90E2
:102440009F908F907F906F905F904F903F902F90D4
:102450001F900F900FBE0F9008958F929F92BF9282
:10246000CF92DF92EF92FF920F931F93CF93DF9360
:102470000FB6F8940F9280914B01815080934B01DD
:1024800080914B01882379F080E00F900FBEDF919F
:10249000CF911F910F91FF90EF90DF90CF90BF9061
:1024A0009F908F9008958091D401882369F3E090E4
:1024B0009501F0909601F0E0E0E039E041E0809194
:1024C000900181115EC0EF2B11F00E94C60EE090CA
:1024D0004801F0904901E114F10409F47DC189E05B
:1024E000D82ECC24C3940FEF1FEF80914B018111A4
:1024F00061C1C0916D01D0916E014E018FEF881ABC
:10250000980A90926E0180926D0181149104B9F441
:1025100080917C0190917D0120917A0130917B0125
:1025200030937D0120937C0190937B0180937A010D
:1025300080914F018F5F80934F010E94C60E809162
:102540006F0190917001B12C8816990608F026C190
:10255000E091D201F091D301E689DE9EF0011124D1
:10256000E555FE4F8081823010F0BB24B3948091FA
:102570004A01811103C0BB2009F425C1C0924A0160
:1025800022C1D7011696ED91FC91A489B589668583
:10259000778580899189EB019D838C8380899189DE
:1025A000EC017B836A83BF01645F7F4F11960D91BD
:1025B0001C9112970617170721F412969C938E937D
:1025C0001197158A148A8C9181508C93A285B385BA
:1025D0008481958166817781EC017D836C8366813E
:1025E0007781EB019B838A83CF01029611960D912F
:1025F0001C9112970817190721F412967C936E9379
:102600001197138612862C9121502C93A689209124
:10261000CF012A1710F4A093CF013A9FD0011124C3
:10262000A555BE4F11960D90BC91A02DB583A483E6
:1026300014966D917C9115977783668314966D91AE
:102640007C911597EB019B838A8315969C938E93BF
:1026500014979689939FD0011124A555BE4FB38737
:10266000A2878C918F5F8C93A091D201B091D301FE
:1026700056968C91891708F022CF40934A011FCFBC
:10268000E0917C01F0917D010580F681E02D0680CE
:10269000F781E02D828193818816990628F4909322
:1026A000700180936F0154CFC285D3858481958159
:1026B00026813781DC0115963C932E931497268151
:1026C0003781D90113969C938E931297CF0102966E
:1026D00049815A814817590711F43A83298313868F
:1026E0001286288121502883A489B5891097F9F092
:1026F0002685378540895189E9015D834C8340896E
:102700005189EA013B832A8311966D917C9112973E
:102710009F01245F3F4F6217730721F412965C9369
:102720004E931197158A148A2C9121502C93A689C7
:102730002091CF012A1710F4A093CF01DA9ED00187
:102740001124A555BE4F11960D90BC91A02DB583B7
:10275000A48314962D913C91159737832683149664
:102760002D913C911597E9019B838A8315969C9343
:102770008E93149796899D9DD0011124A555BE4F27
:10278000B387A2878C918F5F8C93E091D201F091F7
:10279000D3018689891710F4BB24B394E0917C019E
:1027A000F0917D01808181116BCF109370010093B6
:1027B0006F01CECE8091480190914901019690938E
:1027C000490180934801D1E0ED1AF10809F08DCE5E
:1027D000109249011092480180914A01882309F41E
:1027E00053CE8091D2019091D3010E946D1181E06E
:1027F0004CCECF93DF93EC01892B29F40E946D110D
:10280000DF91CF9108950E948D0F60E0CE010E946C
:10281000CF100E942D12882389F3F2CF0F920FB6AA
:10282000F8940F921F9211242F923F924F925F9231
:102830006F927F928F929F92AF92BF92CF92DF92D0
:10284000EF92FF920F931F932F933F934F935F93BA
:102850006F937F938F939F93AF93BF93CF93DF93A8
:10286000EF93FF93A091D201B091D3010DB60D92D9
:102870000EB60D9213BE80914B018111F9C080916B
:102880006D0190916E01019690936E0180936D01A0
:10289000009781F520917C0130917D0140917A0172
:1028A00050917B0150937D0140937C0130937B01DB
:1028B00020937A0120914F012F5F20934F01E091E7
:1028C0007C01F0917D012081211107C02FEF3FEFA6
:1028D0003093700120936F010DC0E0917C01F09165
:1028E0007D010580F681E02D2081318130937001DA
:1028F00020936F0120916F0130917001821793072F
:1029000010F420E0A1C020E039E0D32EE0917C015A
:10291000F0917D013081311107C08FEF9FEF9093CF
:10292000700180936F0190C0E0917C01F0917D0176
:102930000580F681E02D0680F781E02D42815381EC
:102940008417950728F45093700140936F017CC061
:10295000A285B3854481558166817781EA017D83B3
:102960006C8366817781EB015B834A83AF014E5FA5
:102970005F4F11960D911C9112970417150721F4C2
:1029800012967C936E931197138612863C91315068
:102990003C93A489B5891097F9F0668577850089FD
:1029A0001189EB011D830C8300891189E8017B8368
:1029B0006A831196ED90FC901297BF01645F7F4F80
:1029C000E616F70621F412961C930E931197158ABA
:1029D000148A3C9131503C93A6893091CF013A172B
:1029E00010F4A093CF01DA9ED0011124A555BE4F5B
:1029F00011960D90BC91A02DB583A48314966D9172
:102A00007C9115977783668314966D917C911597C9
:102A1000EB015B834A8315965C934E93149746892A
:102A20004D9DD0011124A555BE4FB387A2873C917F
:102A30003F5F3C93E091D201F091D3013689341786
:102A400008F064CF21E062CFE091D201F091D30190
:102A5000E689D9E0ED9FF0011124E555FE4F808114
:102A6000823008F021E080914A0181110EC00AC035
:102A7000809148019091490101969093490180937A
:102A800048016CC0222309F469C080914B0188235E
:102A900021F081E080934A0161C010924A01A09127
:102AA000D201B091D301E091D201F091D3012D91E7
:102AB0003C918789908D82179307A8F08091D2016D
:102AC0009091D3018091D2019091D301259A2D9AB2
:102AD0002FEF87EA91E6215080409040E1F700C057
:102AE00000001D9AF5CF2091CF0189E001C021504F
:102AF000422F50E0849FF001859FF00D1124E55591
:102B0000FE4F9081992399F3A181B28112966D9124
:102B10007C9172836183289FC001112482559E4F4E
:102B20006817790721F4858196819283818389E0F2
:102B3000849FF001859FF00D1124E555FE4F018023
:102B4000F281E02D868197819093D3018093D20109
:102B50002093CF018091D2019091D301A091D20115
:102B6000B091D301CD91CDBFDD91DEBFFF91EF914B
:102B7000DF91CF91BF91AF919F918F917F916F9195
:102B80005F914F913F912F911F910F91FF90EF9087
:102B9000DF90CF90BF90AF909F908F907F906F907D
:102BA0005F904F903F902F901F900F900FBE0F900F
:102BB0000895CF93DF93009751F0EC010E948D0FA1
:102BC000CE010E94301BDF91CF910C942D12DF912A
:102BD000CF910895CF93DF9300D000D01F92CDB74F
:102BE000DEB785E0B82ECE0101967C01E09155015B
:102BF000F09156011081D12CC12C112329F00580B0
:102C0000F681E02DC080D1800E948D0F0E94830F3D
:102C10004C0180914D0190914E018816990608F063
:102C200089C00E94B11090924E0180924D010E9485
:102C30002D12D701EB2D1D92EA95E9F700916B015A
:102C400010916C010FB6F8940F92D8015A96DC904F
:102C50005A97DD2009F42FC15C964C915C97442370
:102C6000F9F050E016968D919C911797840F951F5F
:102C700017969C938E93169714962D913C911597C9
:102C80008217930738F08D919C91119717969C931A
:102C90008E931697F80166817781C7010E942E1CDA
:102CA000DA94D8015A96DC925A9718968C91882318
:102CB00039F0C80108960E94DE0E81110E946D1144
:102CC0000F900FBEA980A7FCB9CF0C811D81D80140
:102CD0001A968D919C91892B21F0C80102960E9431
:102CE000E00F0E94830F6C0180914D0190914E0185
:102CF000C816D90610F40E94B110D0924E01C092AD
:102D00004D01EFEFEA0DE93008F098CF0E2E000CE0
:102D1000FF0BEF56F94ED80152968C9152970C94B6
:102D2000281C1417141757173F1751171417141787
:102D300057173F1790924E0180924D01112351F089
:102D40008C149D0470F00E942D12B401C6010E94E3
:102D500087106FCFE0915301F091540161E08081C1
:102D6000811160E000916B0110916C010FB6F89435
:102D70000F92D8015D968C915D978F3F11F45D960F
:102D80001C92F801868D8F3F09F4168E0F900FBEAE
:102D9000D8015A968C915A9781113CC05296ED9168
:102DA000FC91A091D201B091D3011F96FC93EE93B8
:102DB0001E97A091D201B091D30184819581519643
:102DC0009C938E9350978091D2019091D301A481CE
:102DD000B5810C9613969C938E9312978091D20195
:102DE0009091D3010C9695838483E091D201F09168
:102DF000D301C8014196958B848BF80181898F5F3F
:102E0000818BC60188199909662311F08FEF9FEF16
:102E10000E94CF10C8010E949E0F0E942D128111A6
:102E200008CF0E946D1105CF8160F801828B8A80E6
:102E30009B8064857585680D791D9401A601C80184
:102E40000E943910882309F4F9CED80152968C914A
:102E5000529782FF10C01C966D917C91680D791D70
:102E6000A601C8010E946310D8015096ED91FC9113
:102E7000C8010995E3CE8E7FF801828BF5CF816082
:102E800052968C9352976A817B811D967C936E93A8
:102E90001C976C0D7D1D9601A601C8010E9439107A
:102EA000CDCE81FD04C0C8010E94D915C7CE8E7F4A
:102EB000F801828BC3CE0F900FBE98CE00E010E0D9
:102EC00080914C0181110CC08091AB01823010F0D7
:102ED0000E946D110115110599F30E943E02F0CF79
:102EE0000FB6F8940F92E0918C01F0918D01C6819C
:102EF000D781CE0102960E94E00F8091D4018150CB
:102F00008093D40180914C01815080934C010F90AB
:102F10000FBE8F89988D0E94D915CE010E94D915B8
:102F2000CFCFCF93DF93EC010E948D0FCE010E9493
:102F3000941AEC010E942D12209769F4259A2D9A7B
:102F40002FEF80E792E0215080409040E1F700C0F1
:102F500000001D9AF5CFCE01DF91CF9108957F92A9
:102F60008F929F92AF92BF92CF92DF92EF92FF9299
:102F70000F931F93CF93DF93982EA92E762E872E33
:102F80007A01B22ECA010E9491176C01892B09F4B3
:102F9000EDC080E390E00E949117EC01892B09F4C9
:102FA000E2C080E3DE011D928A95E9F7D88ECF8AD0
:102FB000A70165EA70E0C6010E94371CB1E0EB1A78
:102FC000F108EF89F88DEE0DFF1D672D782DCE01EC
:102FD00049969B01205F3F4FDB014D91BD01DC0114
:102FE0004D93CD01AB0141505109DA014C9144237D
:102FF00019F02617370781F718A6BE8AB9A61B86CF
:103000001A861D8A1C8AD987C88784E090E08B19AC
:1030100091099D878C87DB8BCA8B9082DF0111978A
:10302000AC9211971C92119780E88C9311971C9287
:1030300057971C9211971C92B397F983E883011557
:10304000110519F0F801D183C0830FB6F8940F92DF
:103050008091D4018F5F8093D4018091D2019091AF
:10306000D301892B09F091C0D093D301C093D20131
:103070008091D401813081F58BEA91E00E945F114B
:1030800084EB91E00E945F118DEB91E00E945F1153
:1030900086EC91E00E945F1182EA91E00E945F114C
:1030A00089E991E00E945F1180E991E00E945F113F
:1030B00087E891E00E945F118EE791E00E945F1126
:1030C00082EA91E090937D0180937C0189E991E00F
:1030D00090937B0180937A018091D0018F5F8093E0
:1030E000D001AE898091CF018A1710F4A093CF014F
:1030F00029E02A9FD0011124A555BE4F11960D90AD
:10310000BC91A02DBD83AC8314968D919C91159795
:103110009F838E831496ED91FC911597CE010296B4
:103120009383828315969C938E931497EE89E29FE6
:10313000F0011124E555FE4FFB87EA8780818F5F00
:1031400080830F900FBE8091D101882351F0E091D0
:10315000D201F091D30196898E89981710F40E94BC
:103160006D1181E004C0C6010E94D9158FEFDF9177
:10317000CF911F910F91FF90EF90DF90CF90BF9074
:10318000AF909F908F907F9008958091D101811191
:10319000A3CFE091D201F091D30196898E8989174E
:1031A00008F49ACFD093D301C093D20195CF0E9457
:1031B0000E1418951092D8011092D70188EE93E062
:1031C000A0E0B0E08093D9019093DA01A093DB01F5
:1031D000B093DC018BE091E09093D6018093D50110
:1031E00085EC90E09093E2018093E10184EC90E023
:1031F0009093E4018093E30180EC90E09093E601EA
:103200008093E50181EC90E09093E8018093E701E1
:1032100082EC90E09093EA018093E90186EC90E0E3
:103220009093EC018093EB011092EE011092EF016C
:103230001092F0011092F1018DE191E090939E02C5
:1032400080939D028AE08093AB0289E08093AC0278
:10325000809196028C3048F591E0980F90939602F9
:1032600080939A0290E0FC01EE0FFF1FE80FF91F18
:10327000EE58FD4F88EB9BE092838183809196020C
:103280008C30B8F491E0980F909396028093970257
:1032900090E0FC01EE0FFF1FE80FF91FEE58FD4F05
:1032A00088EB9BE09283818308958FEF80939A024D
:1032B000E5CF8FEF809397020895CF93DF93CDB73B
:1032C000DEB760970FB6F894DEBF0FBECDBF78941F
:1032D00084B5826084BD84B5816084BD85B582601B
:1032E00085BD85B5816085BD80916E0081608093CC
:1032F0006E00109281008091810082608093810035
:103300008091810081608093810080918000816044
:10331000809380008091B10084608093B10080919F
:10332000B00081608093B00080917A0084608093C7
:103330007A0080917A00826080937A0080917A008E
:10334000816080937A0080917A00806880937A000F
:103350001092C10020910501309106018FEF98E095
:10336000821B930B90930201809301010E941E091E
:10337000A5E3B1E0FE013196BF018D9181938823D1
:1033800021F081E0A534B807C1F701E511E020E0A4
:1033900040EC50E08EE597E10E94AF17882309F4D6
:1033A000B7C0813009F0B4C00FB6F8940F92809185
:1033B0006B0190916C01892B09F050C080E691E07F
:1033C0000E945F1187E591E00E945F1180E691E025
:1033D000909356018093550187E591E090935401B5
:1033E0008093530181E590E00E9491178C01009732
:1033F00089F14F96F801918380838AE0838F85E07D
:10340000848F0FB6F8940F9280819181238D448D23
:10341000BC01249F600D711D112475836483128E7D
:10342000938382832150330B429FB001439F700DE1
:103430001124860F971F978386838FEF858F868F42
:10344000C80108960E945F11C80141960E945F1151
:103450000F900FBE10936C0100936B010F900FBE85
:1034600080916B0190916C01892B09F451C009E6A0
:1034700011E023E04CE550E06AE371E08AEE95E16B
:103480000E94AF17813009F043C0F8942FEF3FEF4F
:103490003093700120936F018093D10110926E01DF
:1034A00010926D01A89588E190EC0FB6F894A8955C
:1034B000809360000FBE90936000A091D201B09104
:1034C000D301CD91CDBFDD91DEBFFF91EF91DF91B3
:1034D000CF91BF91AF919F918F917F916F915F91AC
:1034E0004F913F912F911F910F91FF90EF90DF909F
:1034F000CF90BF90AF909F908F907F906F905F9094
:103500004F903F902F901F900F900FBE0F900895F7
:10351000809100010E941E0900E010E001151105D4
:10352000E9F30E943E02FACF0F931F93CF93DF93EC
:103530008230910510F482E090E0E091AF02F091CA
:10354000B00230E020E0B0E0A0E0309799F421151F
:10355000310509F44AC0281B390B24303105D8F550
:103560008A819B816115710589F1FB0193838283B7
:10357000FE0111C040815181028113814817590712
:10358000E0F04817590799F4109761F012960C93E0
:10359000129713961C933296CF01DF91CF911F9112
:1035A0000F9108950093AF021093B002F4CF21154C
:1035B000310551F04217530738F0A901DB019A0198
:1035C000BD01DF01F801C1CFEF01F9CF9093B00247
:1035D0008093AF02CDCFFE01E20FF31F8193919351
:1035E0002250310939832883D7CF2091AD02309101
:1035F000AE02232B41F4209103013091040130935A
:10360000AE022093AD0220910101309102012115FB
:10361000310541F42DB73EB74091050150910601A7
:10362000241B350BE091AD02F091AE02E217F307D7
:10363000A0F42E1B3F0B2817390778F0AC014E5F22
:103640005F4F2417350748F04E0F5F1F5093AE02AF
:103650004093AD02819391939FCFF0E0E0E09CCF47
:10366000CF93DF930097E9F0FC0132971382128227
:10367000A091AF02B091B002ED0130E020E01097D0
:10368000A1F420813181820F931F2091AD023091EE
:10369000AE022817390709F061C0F093AE02E0933B
:1036A000AD02DF91CF910895EA01CE17DF07E8F56B
:1036B0004A815B819E0141155105B1F7E901FB8308
:1036C000EA8349915991C40FD51FEC17FD0761F4A6
:1036D000808191810296840F951FE90199838883E7
:1036E000828193819B838A83F0E0E0E012968D9142
:1036F0009C9113970097B9F52D913C911197CD01AD
:103700000296820F931F2091AD023091AE022817CE
:10371000390739F6309751F51092B0021092AF0286
:10372000B093AE02A093AD02BCCFD383C2834081DD
:103730005181840F951FC817D90761F44E5F5F4F01
:1037400088819981480F591F518340838A819B81C9
:10375000938382832115310509F0B0CFF093B00235
:10376000E093AF029ECFFD01DC01C0CF1382128235
:10377000D7CF052E97FB1EF400940E94D01B57FD57
:1037800007D00E94EB1B07FC03D04EF40C94D01B17
:1037900050954095309521953F4F4F4F5F4F08957D
:1037A00090958095709561957F4F8F4F9F4F0895AD
:1037B0000E940D1CA59F900DB49F900DA49F800D9D
:1037C000911D11240895B7FF0C94D81B0E94D81B9B
:1037D000821B930B0895A1E21A2EAA1BBB1BFD01AD
:1037E0000DC0AA1FBB1FEE1FFF1FA217B307E407E0
:1037F000F50720F0A21BB30BE40BF50B661F771F38
:10380000881F991F1A9469F7609570958095909517
:103810009B01AC01BD01CF010895A29FB001B39FF0
:10382000C001A39F700D811D1124911DB29F700DC9
:10383000811D1124911D0895991B79E004C0991FE1
:10384000961708F0961B881F7A95C9F780950895FA
:10385000EE0FFF1F0590F491E02D0994FB01DC01B0
:1038600002C001900D9241505040D8F70895DC01FC
:1038700001C06D9341505040E0F70895F894FFCF98
:10388000030000B1028000000000006D02CA01F7D1
:1038900001D502280206021A02000000003C06DEE2
:1038A00005B4030D0A00426C696E6B005246494430
:1038B000476174650049444C4500546D722053764D
:0238C0006300A3
:00000001FF
