:100000000C945D000C9485000C9485000C94850084
:100010000C9485000C9485000C94E80F0C948500DA
:100020000C9485000C9485000C9485000C9485003C
:100030000C9485000C9485000C9485000C9485002C
:100040000C9443050C9485000C94B3050C948D0519
:100050000C9485000C9485000C9485000C9485000C
:100060000C9485000C9485000000000023002600FD
:10007000290000000000250028002B0004040404CF
:100080000404040402020202020203030303030342
:10009000010204081020408001020408102001021F
:1000A00004081020000000080002010000030407FB
:1000B0000000000000000000241111241FBECFEF3B
:1000C000D8E0DEBFCDBF11E0A0E0B1E0ECE1F5E2A9
:1000D00002C005900D92A635B107D9F722E0A6E53A
:1000E000B1E001C01D92A538B207E1F710E0CDE5FF
:1000F000D0E004C02197FE010E947612CC35D107D2
:10010000C9F70E94EB0F0C948C120C940000833002
:1001100081F028F4813099F08230A9F00895873079
:10012000A9F08830C9F08430B1F4809180008F7DCF
:1001300003C0809180008F7780938000089584B5FC
:100140008F7784BD089584B58F7DFBCF8091B000FB
:100150008F778093B00008958091B0008F7DF9CFA4
:10016000AF92BF92CF92DF92EF92FF920F931F93C5
:10017000CF93DF936C017B018B01040F151FEB0103
:100180005E01AE18BF08C017D10759F06991D601BA
:10019000ED91FC910190F081E02DC6010995892B2C
:1001A00079F7C501DF91CF911F910F91FF90EF90EB
:1001B000DF90CF90BF90AF900895FC01538D448D98
:1001C000252F30E0842F90E0821B930B541710F002
:1001D000CF96089501970895FC01918D828D98170F
:1001E00061F0A28DAE0FBF2FB11D5D968C91928DE7
:1001F0009F5F9F73928F90E008958FEF9FEF089518
:10020000FC01918D828D981731F0828DE80FF11DE0
:10021000858D90E008958FEF9FEF0895FC01918DFB
:10022000228D892F90E0805C9F4F821B91098F73F4
:100230009927089584EE91E00E940E0121E0892B18
:1002400009F420E0822F08950E941A0181110C9474
:100250000000089580E090E0892B11F00C942401B7
:100260000895FC01A48DA80FB92FB11DA35ABF4F4B
:100270002C91848D90E001968F739927848FA689A5
:10028000B7892C93A089B1898C91837080648C93F9
:10029000938D848D981306C00288F389E02D8081A8
:1002A0008F7D80830895EF92FF920F931F93CF93DA
:1002B000DF93EC0181E0888F9B8D8C8D98131AC0A1
:1002C000E889F989808185FF15C09FB7F894EE8988
:1002D000FF896083E889F9898081837080648083E5
:1002E0009FBF81E090E0DF91CF911F910F91FF9030
:1002F000EF900895F62E0B8D10E00F5F1F4F0F73D8
:100300001127E02E8C8D8E110CC00FB607FCFACF92
:10031000E889F989808185FFF5CFCE010E943101FE
:10032000F1CFEB8DEC0FFD2FF11DE35AFF4FF08263
:100330009FB7F8940B8FEA89FB8980818062CFCFC9
:10034000CF93DF93EC01888D8823B9F0AA89BB890C
:10035000E889F9898C9185FD03C0808186FD0DC0F7
:100360000FB607FCF7CF8C9185FFF2CF808185FF18
:10037000EDCFCE010E943101E9CFDF91CF910895F9
:10038000FC0101900020E9F73197AF01481B590BA0
:10039000BC0184EE91E00C94B00001EB10E02DE97B
:1003A000E22E20E0F22E39E8C32E30E0D32EF80101
:1003B0008491F701D491F601C491CC2309F445C08E
:1003C00081110E948700EC2FF0E0EE0FFF1FE8592B
:1003D000FF4FA591B4918C91D82391E080E009F46E
:1003E00090E0C92FD82FF8018491F701A490F6016D
:1003F000B490BB20A1F081110E948700EB2DF0E0AA
:10040000EE0FFF1FEE58FF4FA591B4918FB7F894F0
:100410009C91CD2BE9F0A094A922AC928FBF89E1E9
:1004200091E00E94C0018CE291E00E94C0010E9414
:10043000AC0660E08EE390E00E94EE070E944C095B
:100440008111B5CF0E948C08B2CFD0E0C0E0CBCFF5
:10045000A92AE3CF8F929F92BF92CF92DF92EF9221
:10046000FF920F931F93CF93DF93E091F401F091EC
:10047000F50182E08083E091F001F091F1011082BA
:10048000E091F201F091F30180E180831092FC0190
:10049000E091F801F091F90186E08083E091F601A6
:1004A000F091F701808180618083E091F601F09105
:1004B000F701808188608083E091F601F091F70177
:1004C000808180688083E091F601F091F70180815E
:1004D0008F7D8083809178018F5F80937801409138
:1004E000D6015091D701E090B301F090B401C091D2
:1004F000B101D091B201E091B701F091B8018285CC
:1005000093856481758126813781DB0115963C9343
:100510002E93149726813781D90113967C936E937D
:100520001297BF016E5F7F4FDC0111960D911C91F8
:1005300012970617170721F412963C932E931197E2
:1005400013861286FC01208121502083CA01855B1D
:100550009F4FE091B701F091B80193838283841794
:10056000950708F07AC00091B7011091B801C80151
:100570000296D80112962D913C91FE0133962F3FA1
:10058000320709F061C0EF81F88522813381D801FB
:1005900015963C932E931497D90115969C938E93A0
:1005A0001497D8011796FC93EE9316979383828342
:1005B0001B96DC93CE931A9788818F5F88830FB642
:1005C000F8940F9280917801815080937801809106
:1005D0007801882309F47DC080E00F900FBE81115F
:1005E00002C00E948C088FB7F8944091DB015091B3
:1005F000DC016091DD017091DE0196B595B38FBF8E
:100600008FE291E00E94C0018CE291E00E94C00163
:1006100010E000E021E040E850E065E471E08DEC9E
:1006200091E00E945D0F009709F421C2DF91CF9104
:100630001F910F91FF90EF90DF90CF90BF909F9010
:100640008F900C94180BFA0142815381DA016D915D
:100650007C9126173707B8F798CFC091B701D09192
:10066000B8019E012E5F3F4F4A815B81F7013396AF
:100670004F3F540729F5D7011796ED91FC91428120
:1006800053815D834C83DA0115963C932E93149726
:10069000FF83EE8333832283FB86EA86E70128818A
:1006A0002F5F28832091D9013091DA0182179307B7
:1006B00008F085CF9093DA018093D90180CFFB01B8
:1006C00062817381DB010D911C9140175107B8F7CE
:1006D000D6CF80917A01882309F47ECFE090730110
:1006E000F0907401F0E0E0E039E041E080916E01CB
:1006F00081116CC0EF2B69F0E091B301F091B4016E
:1007000080818111E2C08FEF9FEF9093DA01809397
:10071000D90120916B0130916C012115310509F44B
:1007200099C159E0BB24B3946FEF7FEF80917801BA
:1007300081117FC18091D6019091D701019690934C
:10074000D7018093D601009701F5E091B301F091B4
:10075000B401A091B101B091B201B093B401A093E2
:10076000B301F093B201E093B1014091B9014F5F41
:100770004093B901E091B301F091B401408141117E
:10078000AEC07093DA016093D901E091D901F09184
:10079000DA0140E08E179F0708F03FC1E091B701F2
:1007A000F091B801E6895E9FF0011124EC57FE4FED
:1007B0008081823008F041E080916D01811103C099
:1007C000442309F43FC1B0926D013CC1D701169694
:1007D000ED91FC91A489B589668577858089918999
:1007E000EB019D838C8380899189EC017B836A83F3
:1007F000BF01645F7F4F11960D911C9112970617F0
:10080000170721F412969C938E931197158A148AD8
:100810008C9181508C93A285B3858481958166816A
:100820007781EC017D836C8366817781EB019B830B
:100830008A83CF01029611960D911C911297081789
:10084000190721F412967C936E93119713861286E2
:100850002C9121502C93A689209177012A1710F40E
:10086000A09377013A9FD0011124AC57BE4F119647
:100870000D90BC91A02DB583A48314966D917C91AD
:1008800015977783668314966D917C911597EB018C
:100890009B838A8315969C938E9314979689939F36
:1008A000D0011124AC57BE4FB387A2878C918F5FC4
:1008B0008C93A091B701B091B80156968C9189178D
:1008C00008F014CF40936D0111CFE091B301F09186
:1008D000B4010580F681E02D8081918116CFE091F1
:1008E000B301F091B4010580F681E02D0190F08113
:1008F000E02DF093DA01E093D90147CFE091B30105
:10090000F091B4010580F681E02D0680F781E02D9D
:10091000A281B3818A179B0728F4B093DA01A093D0
:10092000D9013CCFA285B385E480F580068117818B
:10093000E7011D830C8306811781E801FB82EA82AF
:100940004F01D2E08D0E911C1196ED90FC90129704
:10095000E814F90421F412961C930E931197138650
:1009600012861C9111501C93A489B5891097F9F037
:1009700006851785E088F188E801FD82EC82E08831
:10098000F188E7011B830A831196CD90DC901297C2
:100990008F01045F1F4FC016D10621F41296FC92FE
:1009A000EE921197158A148A1C9111501C93A689F6
:1009B000B0917701BA1710F4A09377015A9FD00134
:1009C0001124AC57BE4F11960D90BC91A02DB5834C
:1009D000A48314960D911C91159717830683149682
:1009E0000D911C911597E8019B828A8215969C9225
:1009F0008E921497C689C59FD0011124AC57BE4F63
:100A0000B387A287EC91EF5FEC93E091B701F0918F
:100A1000B801E689EC1708F441E0E091B301F091E8
:100A2000B401E081E1116ACF7093DA016093D901DA
:100A3000B5CE80916B0190916C01019690936C0101
:100A400080936B012150310909F070CE10926C0136
:100A500010926B0180916D01882309F4BDCD8091C6
:100A6000B7019091B8010E948C0881E0B6CDDF916A
:100A7000CF911F910F91FF90EF90DF90CF90BF909B
:100A80009F908F9008951F920F920FB60F9211248E
:100A90002F933F938F939F93AF93BF938091E001E8
:100AA0009091E101A091E201B091E3013091DF0169
:100AB00023E0230F2D3758F50196A11DB11D20937A
:100AC000DF018093E0019093E101A093E201B093F4
:100AD000E3018091DB019091DC01A091DD01B091F7
:100AE000DE010196A11DB11D8093DB019093DC0115
:100AF000A093DD01B093DE01BF91AF919F918F91E3
:100B00003F912F910F900FBE0F901F90189526E8E0
:100B1000230F0296A11DB11DD2CF1F920F920FB6C7
:100B20000F9211242F933F934F935F936F937F9373
:100B30008F939F93AF93BF93EF93FF9384EE91E0D6
:100B40000E943101FF91EF91BF91AF919F918F91E1
:100B50007F916F915F914F913F912F910F900FBEB9
:100B60000F901F9018951F920F920FB60F9211249D
:100B70002F938F939F93EF93FF93E091F401F09164
:100B8000F5018081E091FA01F091FB0182FD1BC02B
:100B900090818091FD018F5F8F732091FE018217FC
:100BA00041F0E091FD01F0E0EC51FE4F958F809314
:100BB000FD01FF91EF919F918F912F910F900FBEAB
:100BC0000F901F9018958081F4CFE091B301F091C0
:100BD000B4018081811107C08FEF9FEF9093DA01FC
:100BE0008093D9010895E091B301F091B40105809B
:100BF000F681E02D80819181F1CFCF93DF93DC01ED
:100C00001596ED91FC910680F781E02DA489B589B8
:100C10008685978520893189EC013D832C83C089A5
:100C2000D1899B838A83CF010C9611962D913C919B
:100C300012972817390721F41296DC93CE93119757
:100C4000158A148A2C9121502C932091780121111E
:100C500057C0A285B3858481958126813781EC01B7
:100C60003D832C83C681D7819B838A83CF010296E3
:100C700011962D913C9112972817390721F412965D
:100C8000DC93CE931197138612862C9121502C93CE
:100C9000C689209177012C1710F4C093770129E0C1
:100CA0002C9FE0011124CC57DE4F0980DA81C02D42
:100CB000D583C4834C815D8157834683AC81BD81DC
:100CC00013969C938E9312979D838C83A689A29FE3
:100CD000D0011124AC57BE4FB387A2878C918F5F90
:100CE0008C93A091B701B091B801968956968C91DA
:100CF000891730F581E080936D01DF91CF910895E0
:100D0000A0916F01B0917001B787A68714962D91BD
:100D10003C911597318B208B1496CD91DC911597D2
:100D20009B838A8315969C938E9314978EE691E00D
:100D3000958B848B80916E018F5F80936E01D1CFF4
:100D400080E0DBCF0FB6F8940F928091D60190919E
:100D5000D7010F900FBE0895809178018F5F809327
:100D6000780108950FB6F8940F92FC01928D0F90C0
:100D70000FBE81E0911180E00895EF92FF920F93F2
:100D80001F93CF93DF93EC010FB6F8940F921E8D53
:100D90007C0181E1E80EF11C01E01116D4F08FEF27
:100DA0008E8F0F900FBE0FB6F8940F921D8D7E019F
:100DB00088E0E80EF11C01E01116B4F08FEF8D8F82
:100DC0000F900FBEDF91CF911F910F91FF90EF9089
:100DD00008958989882319F3C7010E94FD058111AF
:100DE00000936D011150D9CF8885882339F3C7014D
:100DF0000E94FD05811100936D011150DDCFCF934D
:100E0000DF93FC01A085B1858281938124813581A6
:100E1000EC013D832C83C481D5819B838A83119609
:100E20008D919C9112978E179F0721F41296DC9357
:100E3000CE931197118610868C9181508C93DF91FF
:100E4000CF9108950F931F93CF93DF938C01FB01F4
:100E500080819181D80113968F3F9807F1F4E801C2
:100E6000AF81B88512968D919C911397938382835D
:100E7000EC01FD83EC83B583A4831396FC93EE937E
:100E8000129711870087F80180818F5F8083DF913F
:100E9000CF911F910F910895D90112962D913C91F8
:100EA0001397E9014881598184179507A8F7DACF8C
:100EB000FC0173836283918780874617570790F000
:100EC000421B530B8485958548175907C8F4BF0109
:100ED0006E5F7F4F8091BC019091BD010E942207FF
:100EE00080E008954217530718F46217730740F41F
:100EF000BF016E5F7F4F8091BE019091BF01EECF29
:100F000081E00895EF92FF920F931F93CF93DF93A9
:100F1000EC018B017A016C857D85600F711F980152
:100F2000A701CE010E945807811107C0DF91CF9120
:100F30001F910F91FF90EF9008958C859D85080F6C
:100F4000191FE889F989CE010995E5CFEF92FF9243
:100F50000F931F93CF93DF938C017B01E091BE0130
:100F6000F091BF010580F681E02DC681D781CE01C9
:100F700002960E94FF068A8982FF0FC0A701B8016E
:100F8000CE010E948207E889F989CE01DF91CF91D5
:100F90001F910F91FF90EF9009948E7F8A8BF3CF72
:100FA000E091BE01F091BF01808181110DC080915F
:100FB000BC019091BD019093BF018093BE01F0935D
:100FC000BD01E093BC0108950580F681E02D6FEF2F
:100FD0007FEF808191810E94A607E2CFBF92CF92DE
:100FE000DF92EF92FF920F931F93CF93DF93EC0169
:100FF000B62EC090D601D090D7010091B3011091C8
:10100000B401E090B101F090B2018091B7019091EC
:10101000B80102960E94FF06CF3FDC0709F042C0EC
:10102000BB2009F43FC0E091A901F091AA01A09171
:10103000B701B091B8011596FC93EE931497A09167
:10104000B701B091B8018481958117969C938E93D6
:1010500016978091B7019091B801A481B58102964D
:1010600013969C938E9312978091B7019091B8013B
:10107000029695838483E091B701F091B80188EAE4
:1010800091E0938782878091A8018F5F8093A80168
:10109000DF91CF911F910F91FF90EF90DF90CF9054
:1010A000BF900895CC0DDD1DE091B701F091B8011E
:1010B000D383C2836091B7017091B8016E5F7F4F97
:1010C000CC15DD0560F4C701DF91CF911F910F9121
:1010D000FF90EF90DF90CF90BF900C942207C80153
:1010E0000E9422078091D9019091DA01C817D9078F
:1010F00078F6D093DA01C093D901CACFFC010396E8
:10110000928381832FEF3FEF3483238396838583FC
:1011100090878783108208950F920FB6F8940F92EC
:101120001F9211242F923F924F925F926F927F9263
:101130008F929F92AF92BF92CF92DF92EF92FF92E7
:101140000F931F932F933F934F935F936F937F93CF
:101150008F939F93AF93BF93CF93DF93EF93FF93BF
:10116000A091B701B091B8010DB60D920EB60D92D7
:1011700080917801882321F081E080936D0161C026
:1011800010926D01A091B701B091B801E091B70143
:10119000F091B8012D913C918789908D821793072A
:1011A000A8F08091B7019091B8018091B70190911A
:1011B000B801259A2D9A2FEF87EA91E621508040B9
:1011C0009040E1F700C000001D9AF5CF2091770113
:1011D00089E001C02150422F50E0849FF001859F9B
:1011E000F00D1124EC57FE4F9081992399F3A181C2
:1011F000B28112966D917C9172836183289FC001A8
:10120000112489579E4F6817790721F485819681AB
:101210009283818389E0849FF001859FF00D1124E2
:10122000EC57FE4F0180F281E02D868197819093EB
:10123000B8018093B701209377018091B701909115
:10124000B801A091B701B091B801CD91CDBFDD91AA
:10125000DEBFFF91EF91DF91CF91BF91AF919F9151
:101260008F917F916F915F914F913F912F911F913E
:101270000F91FF90EF90DF90CF90BF90AF909F9035
:101280008F907F906F905F904F903F902F901F9026
:101290000F900FBE0F9008958F929F92BF92CF92A2
:1012A000DF92EF92FF920F931F93CF93DF930FB6CE
:1012B000F8940F9280917801815080937801809109
:1012C0007801882379F080E00F900FBEDF91CF91F5
:1012D0001F910F91FF90EF90DF90CF90BF909F9064
:1012E0008F90089580917A01882369F3E0907301CB
:1012F000F0907401F0E0E0E039E041E080916E01AF
:1013000081115EC0EF2B11F00E94E505E0906B01AA
:10131000F0906C01E114F10409F47DC189E0D82E4C
:10132000CC24C3940FEF1FEF80917801811161C12C
:10133000C091D601D091D7014E018FEF881A980A3B
:101340009092D7018092D60181149104B9F48091D2
:10135000B3019091B4012091B1013091B201309369
:10136000B4012093B3019093B2018093B1018091B5
:10137000B9018F5F8093B9010E94E5058091D90181
:101380009091DA01B12C8816990608F026C1E091F7
:10139000B701F091B801E689DE9EF0011124EC5707
:1013A000FE4F8081823010F0BB24B39480916D0198
:1013B000811103C0BB2009F425C1C0926D0122C177
:1013C000D7011696ED91FC91A489B589668577853C
:1013D00080899189EB019D838C8380899189EC01BF
:1013E0007B836A83BF01645F7F4F11960D911C91CF
:1013F00012970617170721F412969C938E93119754
:10140000158A148A8C9181508C93A285B38584812E
:10141000958166817781EC017D836C83668177811C
:10142000EB019B838A83CF01029611960D911C914B
:1014300012970817190721F412967C936E9311974F
:10144000138612862C9121502C93A6892091770126
:101450002A1710F4A09377013A9FD0011124AC57BA
:10146000BE4F11960D90BC91A02DB583A483149608
:101470006D917C9115977783668314966D917C911D
:101480001597EB019B838A8315969C938E931497F3
:101490009689939FD0011124AC57BE4FB387A28782
:1014A0008C918F5F8C93A091B701B091B801569643
:1014B0008C91891708F022CF40936D011FCFE091E6
:1014C000B301F091B4010580F681E02D0680F7812B
:1014D000E02D828193818816990628F49093DA0191
:1014E0008093D90154CFC285D3858481958126818B
:1014F0003781DC0115963C932E9314972681378112
:10150000D90113969C938E931297CF01029649812D
:101510005A814817590711F43A8329831386128692
:10152000288121502883A489B5891097F9F0268550
:10153000378540895189E9015D834C834089518910
:10154000EA013B832A8311966D917C9112979F014A
:10155000245F3F4F6217730721F412965C934E93FA
:101560001197158A148A2C9121502C93A6892091C9
:1015700077012A1710F4A0937701DA9ED001112485
:10158000AC57BE4F11960D90BC91A02DB583A4838E
:1015900014962D913C9115973783268314962D919F
:1015A0003C911597E9019B838A8315969C938E93B2
:1015B000149796899D9DD0011124AC57BE4FB387D7
:1015C000A2878C918F5F8C93E091B701F091B80165
:1015D0008689891710F4BB24B394E091B301F0918C
:1015E000B401808181116BCF1093DA010093D9018E
:1015F000CECE80916B0190916C01019690936C011D
:1016000080936B01D1E0ED1AF10809F08DCE1092B4
:101610006C0110926B0180916D01882309F453CE07
:101620008091B7019091B8010E948C0881E04CCE66
:10163000CF93DF93EC010FB6F8940F9280917A016B
:101640008F5F80937A018091B7019091B801892BC7
:1016500009F080C0D093B801C093B70180917A019E
:10166000813081F584E891E00E947E088DE891E068
:101670000E947E0886E991E00E947E088FE991E051
:101680000E947E0881E691E00E947E0888E591E054
:101690000E947E088EE691E00E947E088BE791E032
:1016A0000E947E0888EA91E00E947E0881E691E02F
:1016B0009093B4018093B30188E591E09093B201D7
:1016C0008093B10180916A018F5F80936A01AE8936
:1016D000809177018A1710F4A093770129E02A9F5F
:1016E000D0011124AC57BE4F11960D90BC91A02D86
:1016F000BD83AC8314968D919C9115979F838E83A7
:101700001496ED91FC911597CE01029693838283F6
:1017100015969C938E931497EE89E29FF001112405
:10172000EC57FE4FFB87EA8780818F5F80830F90A5
:101730000FBE8091D801882351F0E091B701F0915C
:10174000B80196898E89981710F40E948C08DF9151
:10175000CF9108958091D8018111B4CFE091B70164
:10176000F091B80196898E89891708F4ABCFD09390
:10177000B801C093B701A6CF0F920FB6F8940F929D
:101780001F9211242F923F924F925F926F927F92FD
:101790008F929F92AF92BF92CF92DF92EF92FF9281
:1017A0000F931F932F933F934F935F936F937F9369
:1017B0008F939F93AF93BF93CF93DF93EF93FF9359
:1017C000A091B701B091B8010DB60D920EB60D9271
:1017D00013BE809178018111F9C08091D60190915A
:1017E000D70101969093D7018093D601009781F598
:1017F0002091B3013091B4014091B1015091B201F7
:101800005093B4014093B3013093B2012093B101DE
:101810002091B9012F5F2093B901E091B301F091BC
:10182000B4012081211107C02FEF3FEF3093DA017F
:101830002093D9010DC0E091B301F091B40105806E
:10184000F681E02D208131813093DA012093D90196
:101850002091D9013091DA018217930710F420E02A
:10186000A1C020E039E0D32EE091B301F091B401A2
:101870003081311107C08FEF9FEF9093DA01809391
:10188000D90190C0E091B301F091B4010580F681D7
:10189000E02D0680F781E02D428153818417950762
:1018A00028F45093DA014093D9017CC0A285B38516
:1018B0004481558166817781EA017D836C836681ED
:1018C0007781EB015B834A83AF014E5F5F4F1196D7
:1018D0000D911C9112970417150721F412967C9311
:1018E0006E931197138612863C9131503C93A489D4
:1018F000B5891097F9F06685778500891189EB0124
:101900001D830C8300891189E8017B836A8311960A
:10191000ED90FC901297BF01645F7F4FE616F706CB
:1019200021F412961C930E931197158A148A3C91F8
:1019300031503C93A689309177013A1710F4A09367
:101940007701DA9ED0011124AC57BE4F11960D904D
:10195000BC91A02DB583A48314966D917C911597AD
:101960007783668314966D917C911597EB015B8369
:101970004A8315965C934E93149746894D9DD001EA
:101980001124AC57BE4FB387A2873C913F5F3C9375
:10199000E091B701F091B8013689341708F064CFAF
:1019A00021E062CFE091B701F091B801E689D9E07A
:1019B000ED9FF0011124EC57FE4F8081823008F03A
:1019C00021E080916D0181110EC00AC080916B01F0
:1019D00090916C01019690936C0180936B016CC0A7
:1019E000222309F469C080917801882321F081E0E5
:1019F00080936D0161C010926D01A091B701B0910B
:101A0000B801E091B701F091B8012D913C9187891F
:101A1000908D82179307A8F08091B7019091B8013B
:101A20008091B7019091B801259A2D9A2FEF87EAFE
:101A300091E6215080409040E1F700C000001D9ADF
:101A4000F5CF2091770189E001C02150422F50E06D
:101A5000849FF001859FF00D1124EC57FE4F90817B
:101A6000992399F3A181B28112966D917C91728331
:101A70006183289FC001112489579E4F68177907F9
:101A800021F4858196819283818389E0849FF0018E
:101A9000859FF00D1124EC57FE4F0180F281E02D5F
:101AA000868197819093B8018093B7012093770145
:101AB0008091B7019091B801A091B701B091B801A0
:101AC000CD91CDBFDD91DEBFFF91EF91DF91CF9141
:101AD000BF91AF919F918F917F916F915F914F9146
:101AE0003F912F911F910F91FF90EF90DF90CF903A
:101AF000BF90AF909F908F907F906F905F904F902E
:101B00003F902F901F900F900FBE0F900895CF938E
:101B1000DF93009751F0EC010E94AC06CE010E94C9
:101B2000ED11DF91CF910C944C09DF91CF91089585
:101B3000CF93DF9300D000D01F92CDB7DEB785E002
:101B4000B82ECE0101967C01E091BE01F091BF015B
:101B50001081D12CC12C112329F00580F681E02DB4
:101B6000C080D1800E94AC060E94A2064C018091E8
:101B7000B5019091B6018816990608F089C00E94B7
:101B8000D0079092B6018092B5010E944C09D7010E
:101B9000EB2D1D92EA95E9F70091D4011091D50142
:101BA0000FB6F8940F92D8015A96DC905A97DD2020
:101BB00009F42FC15C964C915C974423F9F050E0F6
:101BC00016968D919C911797840F951F17969C934D
:101BD0008E93169714962D913C9115978217930723
:101BE00038F08D919C91119717969C938E93169730
:101BF000F80166817781C7010E947C12DA94D801CE
:101C00005A96DC925A9718968C91882339F0C8011D
:101C100008960E94FD0581110E948C080F900FBE4E
:101C2000A980A7FCB9CF0C811D81D8011A968D918E
:101C30009C91892B21F0C80102960E94FF060E9408
:101C4000A2066C018091B5019091B601C816D90623
:101C500010F40E94D007D092B601C092B501EFEF08
:101C6000EA0DE93008F098CF0E2E000CFF0BE15C76
:101C7000F14FD80152968C9152970C947612C20E65
:101C8000C20E050FED0EFF0EC20EC20E050FED0EB9
:101C90009092B6018092B501112351F08C149D04ED
:101CA00070F00E944C09B401C6010E94A6076FCFD4
:101CB000E091BC01F091BD0161E08081811160E0A3
:101CC0000091D4011091D5010FB6F8940F92D8016C
:101CD0005D968C915D978F3F11F45D961C92F80193
:101CE000868D8F3F09F4168E0F900FBED8015A963D
:101CF0008C915A9781113CC05296ED91FC91A09124
:101D0000B701B091B8011F96FC93EE931E97A09176
:101D1000B701B091B8018481958151969C938E93BF
:101D200050978091B7019091B801A481B5810C962C
:101D300013969C938E9312978091B7019091B8015E
:101D40000C9695838483E091B701F091B801C801A6
:101D50004196958B848BF80181898F5F818BC601B9
:101D600088199909662311F08FEF9FEF0E94EE0703
:101D7000C8010E94BD060E944C09811108CF0E9433
:101D80008C0805CF8160F801828B8A809B806485F6
:101D90007585680D791D9401A601C8010E94580738
:101DA000882309F4F9CED80152968C91529782FF7C
:101DB00010C01C966D917C91680D791DA601C8011B
:101DC0000E948207D8015096ED91FC91C8010995B7
:101DD000E3CE8E7FF801828BF5CF816052968C9393
:101DE00052976A817B811D967C936E931C976C0D34
:101DF0007D1D9601A601C8010E945807CDCE81FD28
:101E000004C0C8010E94870DC7CE8E7FF801828B67
:101E1000C3CE0F900FBE98CE00E010E08091790104
:101E200081110CC080918401823010F00E948C08D6
:101E30000115110599F30E942401F0CF0FB6F89413
:101E40000F92E0918001F0918101C681D781CE018E
:101E500002960E94FF0680917A01815080937A0158
:101E6000809179018150809379010F900FBE8F8905
:101E7000988D0E94870DCE010E94870DCFCFCF9302
:101E8000DF93EC010E94AC06CE010E945111EC01DF
:101E90000E944C09209769F4259A2D9A2FEF80E72C
:101EA00092E0215080409040E1F700C000001D9A70
:101EB000F5CFCE01DF91CF9108957F928F929F92BF
:101EC000AF92BF92CF92DF92EF92FF920F931F9348
:101ED000CF93DF93982EA92E762E872E7A01B22EDD
:101EE000CA010E943F0F6C01D0E0C0E0892B09F4C9
:101EF00060C080E390E00E943F0FEC01892B09F461
:101F000055C080E3DE011D928A95E9F7D88ECF8A0D
:101F1000A70165EA70E0C6010E948512B1E0EB1AE4
:101F2000F108EF89F88DEE0DFF1D672D782DCE019C
:101F300049969B01205F3F4FDB014D91BD01DC01C4
:101F40004D93CD01AB0141505109DA014C9144232D
:101F500019F02617370781F718A6BE8AB9A61B867F
:101F60001A861D8A1C8AD987C88784E090E08B195D
:101F700091099D878C87DB8BCA8B9082DF0111973B
:101F8000AC9211971C92119780E88C9311971C9238
:101F900057971C9211971C92B397F983E883011508
:101FA000110539F0F801D183C08303C0C6010E9436
:101FB000870DCE01DF91CF911F910F91FF90EF9090
:101FC000DF90CF90BF90AF909F908F907F900895BB
:101FD0000E94BC0B1895CF93DF93CDB7DEB7609707
:101FE0000FB6F894DEBF0FBECDBF789484B5826083
:101FF00084BD84B5816084BD85B5826085BD85B5AD
:10200000816085BD80916E00816080936E0010922A
:1020100081008091810082608093810080918100A5
:102020008160809381008091800081608093800036
:102030008091B10084608093B1008091B000816094
:102040008093B00080917A00846080937A008091C0
:102050007A00826080937A0080917A008160809318
:102060007A0080917A00806880937A001092C10093
:1020700020910501309106018FEF98E0821B930BB0
:1020800090930201809301010E942A02A8E4B1E02A
:10209000FE013196BF018D918193882321F081E06B
:1020A000A835B807C1F70AEB11E020E040EC50E09A
:1020B0008CE09FE00E945D0F009709F4B9C00E9478
:1020C000180B0FB6F8940F928091D4019091D5011E
:1020D000892B09F050C089EC91E00E947E0880ECC9
:1020E00091E00E947E0889EC91E09093BF0180937B
:1020F000BE0180EC91E09093BD018093BC0181E52D
:1021000090E00E943F0F8C01009789F14F96F801F3
:10211000918380838AE0838F85E0848F0FB6F89463
:102120000F9280819181238D448DBC01249F600D8D
:10213000711D112475836483128E938382832150D1
:10214000330B429FB001439F700D1124860F971FE0
:10215000978386838FEF858F868FC80108960E94AC
:102160007E08C80141960E947E080F900FBE109312
:10217000D5010093D4010F900FBE8091D4019091AE
:10218000D501892B09F454C002ED11E023E04CE5A0
:1021900050E06DE471E088E99DE00E945D0F0097DA
:1021A00009F446C00E94180BF8948FEF9FEF9093AC
:1021B000DA018093D90181E08093D8011092D70190
:1021C0001092D601A89588E190EC0FB6F894A895E6
:1021D000809360000FBE90936000A091B701B09112
:1021E000B801CD91CDBFDD91DEBFFF91EF91DF91C1
:1021F000CF91BF91AF919F918F917F916F915F919F
:102200004F913F912F911F910F91FF90EF90DF9091
:10221000CF90BF90AF909F908F907F906F905F9086
:102220004F903F902F901F900F900FBE0F900895EA
:10223000809100010E942A0200E010E001151105C2
:10224000E9F30E942401FACFE4EEF1E01382128256
:1022500088EE93E0A0E0B0E084839583A683B78303
:102260008BE091E09183808385EC90E09587848773
:1022700084EC90E09787868780EC90E0918B808B50
:1022800081EC90E0938B828B82EC90E0958B848B39
:1022900086EC90E0978B868B118E128E138E148EA7
:1022A00008950F931F93CF93DF938230910510F41D
:1022B00082E090E0E0918302F091840230E020E03F
:1022C000B0E0A0E0309799F42115310509F44AC037
:1022D000281B390B24303105D8F58A819B81611583
:1022E000710589F1FB0193838283FE0111C0408156
:1022F00051810281138148175907E0F048175907A7
:1023000099F4109761F012960C93129713961C9300
:102310003296CF01DF91CF911F910F9108950093D5
:10232000830210938402F4CF2115310551F0421736
:10233000530738F0A901DB019A01BD01DF01F80163
:10234000C1CFEF01F9CF9093840280938302CDCF68
:10235000FE01E20FF31F81939193225031093983DB
:102360002883D7CF2091810230918202232B41F420
:102370002091030130910401309382022093810265
:1023800020910101309102012115310541F42DB751
:102390003EB74091050150910601241B350BE09199
:1023A0008102F0918202E217F307A0F42E1B3F0B8B
:1023B0002817390778F0AC014E5F5F4F24173507B7
:1023C00048F04E0F5F1F5093820240938102819329
:1023D00091939FCFF0E0E0E09CCFCF93DF93009705
:1023E000E9F0FC01329713821282A0918302B0912E
:1023F0008402ED0130E020E01097A1F420813181CA
:10240000820F931F20918102309182022817390791
:1024100009F061C0F0938202E0938102DF91CF91D5
:102420000895EA01CE17DF07E8F54A815B819E0136
:1024300041155105B1F7E901FB83EA8349915991AF
:10244000C40FD51FEC17FD0761F4808191810296BE
:10245000840F951FE90199838883828193819B83EF
:102460008A83F0E0E0E012968D919C91139700979B
:10247000B9F52D913C911197CD010296820F931FD2
:1024800020918102309182022817390739F630975E
:1024900051F51092840210928302B0938202A093AD
:1024A0008102BCCFD383C28340815181840F951FA9
:1024B000C817D90761F44E5F5F4F88819981480F33
:1024C000591F518340838A819B8193838283211585
:1024D000310509F0B0CFF0938402E09383029ECFE0
:1024E000FD01DC01C0CF13821282D7CFEE0FFF1F98
:1024F0000590F491E02D0994FB01DC0102C00190EC
:102500000D9241505040D8F70895DC0101C06D9301
:0C25100041505040E0F70895F894FFCFD0
:10251C0003000085028000000000005301B000DDC4
:10252C0000A0010E01EC0000014672656552544F8B
:10253C005320686561727462656174000D0A00460F
:10254C0072656552544F53207465737420626F6FBB
:10255C007465642E0048420049444C4500546D7229
:06256C002053766300001D
:00000001FF
